:020000040800F2
:10000000A80B00208901000885260008C1230008EC
:100010008126000845040008832D00080000000028
:100020000000000000000000000000004D27000854
:10003000490400080000000089260008C5290008BE
:10004000A3010008A3010008A3010008A301000800
:10005000A3010008A3010008A3010008A3010008F0
:10006000A3010008A3010008A3010008A3010008E0
:10007000A3010008A3010008A3010008A3010008D0
:10008000A3010008A301000891020008A3010008D1
:10009000A3010008A3010008A3010008A3010008B0
:1000A000A3010008552A0008A3010008A3010008C5
:1000B000652A0008A3010008A3010008A3010008A5
:1000C000A3010008A3010008A3010008A301000880
:1000D000A3010008A3010008A3010008A301000870
:1000E000A3010008A3010008A301000800F002F822
:1000F00000F03AF80AA090E8000C82448344AAF188
:100100000107DA4501D100F02FF8AFF2090EBAE885
:100110000F0013F0010F18BFFB1A43F0010318473B
:10012000CC450000EC450000103A24BF78C878C1E7
:10013000FAD8520724BF30C830C144BF04680C60ED
:10014000704700000023002400250026103A28BF35
:1001500078C1FBD8520728BF30C148BF0B60704739
:100160001FB51FBD10B510BD00F05CF81146FFF7BC
:10017000F7FF02F0A5FE00F07AF803B4FFF7F2FFF4
:1001800003BC00F07DF8000009488047094800479B
:10019000FEE7FEE7FEE7FEE7FEE7FEE7FEE7FEE737
:1001A000FEE7FEE704480549054A064B7047000094
:1001B000512A0008ED000008A8050020A80B002027
:1001C000A8070020A80700204FF0000200B5134642
:1001D00094469646203922BFA0E80C50A0E80C5067
:1001E000B1F12001BFF4F7AF090728BFA0E80C5018
:1001F00048BF0CC05DF804EB890028BF40F8042B11
:1002000008BF704748BF20F8022B11F0804F18BF7D
:1002100000F8012B704770477047704700487047DF
:10022000480500207546FFF7F9FFAE460500694610
:10023000534620F00700854618B020B5FFF7B2FFFF
:10024000BDE820404FF000064FF000074FF00008D7
:100250004FF0000B21F00701AC46ACE8C009ACE858
:10026000C009ACE8C009ACE8C0098D46704710B5BC
:100270000446AFF300802046BDE81040FFF77DBF85
:1002800001491820ABBEFEE72600020070470000BF
:1002900010B5294890F8481080F849102748D0E94F
:1002A0000020511C40F10000244A6323C2E90010E1
:1002B0000022591A824103D20021204A1160516064
:1002C0001F480068406A00211E4B1C4A126803EB5D
:1002D000C20203C21C480068006800F00200022845
:1002E0000ED1C01F1849096808601848006818B185
:1002F00000201649086018E001201449086014E045
:1003000013480068006800F0020002280DD1C01FE9
:100310000F49096808600F48006818B100200D49AE
:10032000086002E001200B490860074800F0ADFBBF
:10033000074800F0AAFB10BDA80400201800002008
:10034000F40000208801002094000020100000200C
:10035000C40000201400002070B504460025206869
:10036000806800F0010018B32068806820F0010068
:100370002168886000F0F8FE054613E000F0F4FE06
:10038000401B02280ED92068806800F0010048B1A7
:10039000A06A40F01000A062E06A40F00100E06254
:1003A000012070BD2068806800F001000028E5D1C0
:1003B0000020F6E738B504460025002000902068AC
:1003C000806800F0010078BB2068806840F0010080
:1003D00021688860194800681949B0FBF1F0009065
:1003E00002E00098401E009000980028F9D100F02B
:1003F000BBFE054619E000F0B7FE401B022814D9E9
:100400002068806800F0010078B9A06A40F0100010
:10041000A062E06A40F00100E06200BF002084F8C2
:10042000240000BF012038BD05E02068806800F08E
:1004300001000028DFD00020F5E700003C0000208C
:1004400040420F0000BFFEE7704772B600BFFEE7F4
:100450002DE9FC5F044600F0B3F83F480021426CF0
:100460007C3002F012F93C49886108462146026C52
:100470005C3002F00AF93849486102F039FD36482B
:100480000569014608694FF07C5103F093F88346F3
:100490003148C06880F000493049484603F08AF886
:1004A0008246594603F08EF906462B4908694FF0FB
:1004B0007C5103F07FF881462749C868274903F03B
:1004C00079F88246494603F07DF90746DFF89080C7
:1004D0004146244803F06EF88146234902F0BCFEF1
:1004E00001900021384603F031F902D24FF00109A2
:1004F00001E04FF000090021304603F027F901D256
:10050000012000E0002009EB40090021284603F00B
:100510001DF901D2012000E0002009EB80000090CD
:100520000D49886D02F0AAFF1FFA80F90A49486D4B
:1005300002F0A4FF1FFA80FA0749086D02F09EFF3F
:100540001FFA80FB4A465146584602F001F902F074
:1005500021F9BDE8FC9F0000A8040020D7B35D3F4F
:100560000000E1443ACD933F0000C04170B5A021A6
:100570001148FFF729FE11490F487C3002F0BFF8FF
:100580000E490D485C3002F0BAF802F041F90A4910
:10059000886D02F073FF84B20749486D02F06EFF68
:1005A00085B20549086D02F069FF86B222462946E8
:1005B000304602F0CDF870BDA804002040000020B5
:1005C00070B5504890F84900032804D0052863D03E
:1005D00006287DD12FE001214B4800F0C6F94B4998
:1005E0008988401A06B2304602F068FF05464FF08F
:1005F0006B5102F0DFFF044602F094FD414AC2E96C
:100600000A010121424800F0B0F940490988401A26
:1006100006B2304602F052FF05464FF06B5102F031
:10062000C9FF044602F07EFD364AC2E90C010021F2
:100630001162516263E00121334800F096F93349B9
:10064000C988401A06B2304602F038FF05464FF01E
:100650006B5102F0AFFF044602F064FD294AC2E983
:10066000080101212A4800F080F928494988401AE8
:1006700006B2304602F022FF05464FF06B5102F001
:1006800099FF044602F04EFD1E4AC2E90A0100220B
:100690001C480263426332E001211B4800F065F907
:1006A0001A49C988401A06B2304602F007FF0546CB
:1006B0004FF06B5102F07EFF044602F033FD114A09
:1006C000C2E908010121124800F04FF90F4900E08A
:1006D00014E00988401A06B2304602F0EFFE0546E3
:1006E0004FF06B5102F066FF044602F01BFD054A15
:1006F000C2E90C0100219162D16200E000BF00BF9D
:1007000070BD0000A8040020C40000205400002098
:100710009400002038B50246002300200090906825
:1007200000B100BF00BF92F82400012801D10220CF
:1007300038BD012082F8240000BF906890B9486855
:10074000012809D11068806B6FF315000C6840EA2E
:10075000C4301468A06338E0906A40F020009062D2
:10076000012332E00C694868A0421ED84C68086931
:10077000001BC0F1030000EB80041F20A04040F4E8
:1007800040141068806BA0434D680C69641BC4F171
:10079000030404EB84050C68AC400D8A6D1E44EA2A
:1007A000055420431468A0630FE04C680869001BDF
:1007B000C0F1030000EB80041F20A04040F440146F
:1007C0001068806BA0431468A0631068806800F014
:1007D000010040B91068806847F20104A0438C69A9
:1007E00020431468A060487D01280FD18869B0F5C6
:1007F000E04F06D11068406840F480601468606083
:1008000004E0906A40F0200090620123087D0128F6
:100810000DD1487D30B91068406840F480501468AC
:10082000606004E0906A40F0200090620123086854
:100830000A2812D31068C0680C780A3C04EB4405FF
:100840000724AC40A0430D780A3D05EB45058C68B4
:10085000AC4020431468E0600FE0106800690C7839
:1008600004EB44050724AC40A0430D7805EB450597
:100870008C68AC402043146820610868102802D0BE
:100880000868112805D11068806840F400001468D9
:10089000A0604868012806D002280DD0032814D093
:1008A00004281BD11BE0106840696FF30B00CC6873
:1008B0002043146860611BE0106880696FF30B00CF
:1008C000CC6820431468A06112E01068C0696FF31F
:1008D0000B00CC6820431468E06109E000BF106899
:1008E000006A6FF30B00CC6820431468206200BFDD
:1008F00000BF0868102802D00868112827D1174CBB
:100900001068A0421ED11068806800F40000F0B9A1
:100910001068806840F400001468A060086810281F
:1009200015D10F4800680F4CB0FBF4F000EB8000CD
:100930004000009002E00098401E009000980028BF
:10094000F9D104E0906A40F020009062012300BFDA
:10095000002082F8240000BF1846E9E60024014088
:100960003C00002040420F00704702460020012951
:100970000FD0022909D0032904D0042908D1136813
:10098000986C09E01368586C06E01368186C03E073
:1009900000BF1368D86B00BF00BF704770B5044636
:1009A000002500BF94F82400012801D1022070BD69
:1009B000012084F8240000BF2046FFF7FBFC054619
:1009C000002D55D1A06A42F20101884340F48050C5
:1009D000A0622B492068884208D12A48006800F4A8
:1009E000702008B9012002E0002000E0012020B1C1
:1009F000A06A20F48010A06203E0A06A40F4801096
:100A0000A062A06A00F4807008B90020E06200BF14
:100A1000002084F8240000BF401F2168086020687F
:100A2000406800F4806010BB2068806800F4E040FB
:100A3000B0F5E04F15D112492068884208D111481D
:100A4000006800F4702008B9012002E0002000E0F6
:100A5000012030B12068806840F40210216888606D
:100A60000BE02068806840F400402168886004E062
:100A700000BF002084F8240000BF284697E700004C
:100A80000028014004240140704770B504462068E6
:100A900005682068466806F0200020282DD105F062
:100AA0000200022829D1A06A00F0100018B9A06A3B
:100AB00040F40070A0622068806800F46020B0F507
:100AC000602F13D1207B88B92068406820F0200077
:100AD00021684860A06A20F48070A062A06A00F4D7
:100AE000805018B9A06A40F00100A0622046FFF7CC
:100AF000CBFF6FF012002168086006F080008028AC
:100B000039D105F00400042835D1A06A00F01000A6
:100B100018B9A06A40F40050A0622068806800F410
:100B2000E040B0F5E04F0DD02068406800F48060F0
:100B3000D0B92068806800F46020B0F5602F13D130
:100B4000207B88B92068406820F0800021684860D8
:100B5000A06A20F48050A062A06A00F4807018B9E6
:100B6000A06A40F00100A0622046FFF7FDFE6FF092
:100B70000C002168086006F0400040280DD105F007
:100B8000010050B1A06A40F48030A062204600F01D
:100B9000A7F86FF001002168086070BD2DE9F041F1
:100BA0000446002700250026A84614B90120BDE808
:100BB000F081A06810B1207D00B100BFA06A30B9FB
:100BC0000020E06284F82400204600F08BF82046E4
:100BD000FFF7C2FB0746A06A00F01000002873D19F
:100BE000002F71D1A06A20F4885040F00200A0626A
:100BF000E16960680843217B40EA41000643A06840
:100C0000B0F5807F02D0A068012802D14FF4807037
:100C100000E000200543207D012811D1207B38B958
:100C2000A069401E4FF4006141EA4030054307E0EF
:100C3000A06A40F02000A062E06A40F00100E0629B
:100C40002068406820F46940284321684860206893
:100C5000806821490840304321688860A068B0F569
:100C6000807F02D0A068012802D14FF4807000E09C
:100C70000020B0F5807F03D1208A401E4FEA005843
:100C80002068C06A20F4700040EA08002168C86249
:100C90002068806811490840B04208D10020E06215
:100CA000A06A20F0020040F00100A06211E0A06AFA
:100CB00020F0020040F01000A062E06A40F0010065
:100CC000E062012705E0FFE7A06A40F01000A062A3
:100CD000012738466BE70000FDF7E1FFFE0E1FFF1E
:100CE0007047000010B586B00446002002900390C3
:100CF0000490059045492068884240D100BF44488F
:100D0000806940F40070424988610846806900F4B7
:100D10000070019000BF00BF00BF0846806940F02E
:100D2000040088610846806900F00400019000BF5B
:100D300000BF00BF0846806940F00800886108468F
:100D4000806900F00800019000BF00BF60200290A1
:100D50000320039002A92F4800F076F801200290AA
:100D60000320039002A92C4800F06EF800221146DF
:100D7000122000F07FFA122000F06CFA43E02749BD
:100D8000206888423FD100BF2148806940F48060DC
:100D90001F4988610846806900F48060019000BFA7
:100DA00000BF00BF0846806940F004008861084623
:100DB000806900F00400019000BF00BF00BF08463A
:100DC000806940F0080088610846806900F00800EA
:100DD000019000BF00BFC02002900320039002A931
:100DE0000C4800F031F8012002900320039002A982
:100DF000094800F029F800221146122000F03AFAC2
:100E0000122000F027FA06B010BD000000240140B7
:100E10000010024000080140000C01400028014081
:100E200070B5044600F0A0F906462546681C10B1CE
:100E300004480078054400BF00F096F9801BA842E2
:100E4000FAD370BD380000202DE9F8470346002290
:100E500094466EE14FF0010808FA02F4D1F80080E0
:100E600008EA0400A0427DD1DFF8DCA2D1F80480BA
:100E7000A8EB0A09D0453AD014DCB8F1030F50D0E2
:100E800009DCB8F1000F31D0B8F1010F1CD0B8F176
:100E9000020F49D120E0B8F1110F18D0B8F1120FAC
:100EA00042D11EE0B9F5881F25D006DCB9F5803F98
:100EB00020D0B9F5801F37D11AE0B9F5001F18D03E
:100EC000B9F5041F30D117E0D1F80CC02DE0D1F8EE
:100ED0000C8008F1040C28E0D1F80C8008F1080C13
:100EE00023E0D1F80C8008F10C0C1EE000BF00BF1D
:100EF00000BF00BF00BF00BFD1F80880B8F1000FED
:100F000002D14FF0040C0BE0D1F80880B8F1010FCA
:100F100003D14FF0080C1C6102E04FF0080C5C613B
:100F200003E04FF0000C00E000BF00BFFF2801D835
:100F3000984601E003F104084646FF2802D84FEA2C
:100F4000820803E0A2F108084FEA88084746D6F86D
:100F500000804FF00F0909FA07F928EA09080CFA8E
:100F600007F900E088E048EA0908C6F80080D1F8EF
:100F7000048008F08058B8F1805F7DD100BFDFF8B1
:100F8000CC81D8F8188048F00108DFF8C091C9F882
:100F90001880C846D8F8188008F00108CDF80080FD
:100FA00000BF00BF4FEAB9384FEA920958F82950FC
:100FB0004FEA82784FEA18794FF00F0808FA09F8DB
:100FC00025EA0805DFF88881434502D14FF0000883
:100FD00016E0DFF88081434502D14FF001080FE0B1
:100FE000DFF87481434502D14FF0020808E0DFF8D2
:100FF0006C81434502D14FF0030801E04FF0040833
:101000004FEA82794FEA197908FA09F848EA0505A2
:10101000DFF84C814FEA920948F82950D1F8048052
:1010200008F48018B8F5801F0AD1DFF83881D8F8A5
:10103000008048EA0008DFF82C91C9F8008009E038
:10104000DFF82081D8F8008028EA0008DFF8149142
:10105000C9F80080D1F8048008F40018B8F5001F22
:1010600010D1DFF8008108F10408D8F8008048EAC0
:101070000008DFF8F09000E05AE009F10409C9F82F
:1010800000800DE0DFF8DC8008F10408D8F800806B
:1010900028EA0008DFF8CC9009F10409C9F80080BB
:1010A000D1F8048008F40038B8F5003F0ED1DFF81D
:1010B000B480A8F10408D8F8008048EA0008DFF8F6
:1010C000A490A9F10409C9F800800DE0DFF894802C
:1010D000A8F10408D8F8008028EA0008DFF8849016
:1010E000A9F10409C9F80080D1F8048008F4803817
:1010F000B8F5803F0ED1DFF86C80A8F10808D8F869
:10110000008048EA0008DFF85C90A9F10809C9F8F6
:1011100000800DE0DFF84C80A8F10808D8F80080C6
:1011200028EA0008DFF83C90A9F10809C9F8008016
:10113000521CD1F8008028FA02F8B8F1000F7FF4B1
:1011400089AEBDE8F88700000000111000100240D1
:1011500000080140000C0140001001400014014053
:101160000800014008040140014800687047000081
:101170003000002003480068034909780844014909
:1011800008607047300000203800002010B5084883
:10119000006840F0100006490860032000F0A8F83D
:1011A0000F2000F007F800F02BF8002010BD000021
:1011B0000020024070B504460E4800784FF47A7162
:1011C000B1FBF0F00C490968B1FBF0F5284600F0DE
:1011D0006BFC08B1012070BD102C07D20022214603
:1011E000501E00F047F80548046001E00120F2E7D6
:1011F0000020F0E7380000203C00002034000020F0
:1012000008B500BF1148806940F001000F498861AE
:101210000846806900F00100009000BF00BF00BFD9
:101220000846C06940F08050C8610846C06900F0B7
:101230008050009000BF00BF00BF0549486820F003
:10124000E06040F00070486000BF08BD0010024040
:101250000000014001460846002809DB00F01F039A
:1012600001229A4043099B0003F1E023C3F80021C7
:1012700000BF70472DE9F05F80460D4616460027F7
:1012800001F082FD074639462A46334601F0070041
:10129000C0F1070ABAF1040F02D94FF0040A01E0C5
:1012A000C0F1070AD14600F1040ABAF1070F02D2D1
:1012B0004FF0000A01E0A0F1030AD4464FF0010A02
:1012C0000AFA09FAAAF1010A0AEA020A0AFA0CFA67
:1012D0004FF0010B0BFA0CFBABF1010B0BEA030B0C
:1012E0004AEA0B042146404601F056FDBDE8F09F56
:1012F00000BF00F00702064B19684FF6FF031940C4
:10130000044B0B4343EA0221014B196000BF7047B5
:101310000CED00E00000FA05F8B5044600260025B3
:10132000207800F0010000286BD000274348C069F6
:1013300000F0805070B900BF4048C06940F0805054
:101340003E49C8610846C06900F08050009000BF67
:1013500000BF01273A48006800F48070B0B93848EF
:10136000006840F4807036490860FFF7FDFE0646CD
:1013700006E0FFF7F9FE801B642801D90320F8BDC1
:101380002F48006800F480700028F2D02B48006AD3
:1013900000F440752DB3A08800F44070A84220D01E
:1013A0002648006A20F44075012026490860002084
:1013B00008602248056205F0010090B1FFF7D4FEF5
:1013C000064608E0FFF7D0FE801B41F288318842D4
:1013D00001D90320D3E71948006A00F00200002871
:1013E000F0D01648006A20F4407061680843134941
:1013F0000862012F04D10846C06920F08050C861FE
:1014000000BF207800F00200022807D10B48406896
:1014100020F44040A168084308494860207800F063
:101420001000102807D10548406820F48000E168CA
:101430000843024948600020A1E700000010024074
:10144000007000404004424270B504460D460CB99D
:10145000012070BD5A48006800F00700A8420ED273
:101460005748006820F0070028435549086008469F
:10147000006800F00700A84201D00120E9E72078C9
:1014800000F0020002281DD1207800F0040004289A
:1014900005D14C48406840F4E0604A4948602078F3
:1014A00000F00800082805D14648406840F4605024
:1014B000444948604348406820F0F000A168084370
:1014C00040494860207800F0010078B36068012846
:1014D00006D13C48006800F4003090B90120B8E71C
:1014E0006068022806D13748006800F0007040B9F3
:1014F0000120AEE73348006800F0020008B901207F
:10150000A7E73048406820F00300616808432D4990
:101510004860FFF729FE064609E0FFF725FE801B1D
:1015200041F28831884202D9032092E707E025483A
:10153000406800F00C006168B0EB810FEDD12048ED
:10154000006800F00700A8420ED91D48006820F08E
:10155000070028431A4908600846006800F00700A1
:10156000A84201D0012074E7207800F0040004288C
:1015700007D11448406820F4E060E168084311494D
:101580004860207800F00800082808D10D4840681D
:1015900020F46050216940EAC1000A49486000F027
:1015A00019F808494968C1F30311074A515CC8405A
:1015B0000649086006480068FFF7FCFD002048E780
:1015C0000020024000100240C03800083C0000200B
:1015D0003400002070B500210022002400230020E8
:1015E000134D696801F00C05F5B1042D02D0082DEA
:1015F00019D101E00F4819E00F4DC1F38346AB5DEF
:1016000001F4803555B10A4D6D68C5F340450B4E68
:10161000725D084D5D43B5FBF2F402E0084D03FB3B
:1016200005F4204602E000BF024800BF00BF70BDC5
:101630000010024000127A00AE380008BE380008E0
:1016400000093D00F8B504460CB90120F8BD20782A
:1016500000F00100002878D0F848406800F00C0045
:1016600004280CD0F548406800F00C00082811D17F
:10167000F248406800F48030B0F5803F0AD1EF486E
:10168000006800F4003000285FD0606800285CD15A
:101690000120DBE700BF6068B0F5803F06D1E74876
:1016A000006840F48030E549086028E0606858B977
:1016B000E248006820F48030E0490860084600688D
:1016C00020F4802008601AE06068B0F5A02F0BD1EC
:1016D000DA48006840F48020D8490860084600686D
:1016E00040F4803008600AE0D448006820F480307C
:1016F000D24908600846006820F48020086000BFD6
:10170000606888B1FFF730FD054606E0FFF72CFD65
:10171000401B642801D9032098E7C848006800F4FA
:1017200000300028F2D010E0FFF71EFD054606E06D
:10173000FFF71AFD401B642801D9032086E7BF4844
:10174000006800F400300028F2D1207800F0020098
:10175000022857D1B948406800F00C0050B1B74892
:10176000406800F00C00082818D1B448406800F424
:10177000803098B9B148006800F0020020B12069BB
:10178000012801D0012061E7AC48006820F0F80092
:10179000616940EAC100A949086033E02069E8B105
:1017A0000120A7490860FFF7DFFC054606E0FFF7C8
:1017B000DBFC401B022801D9032047E79F48006853
:1017C00000F002000028F2D09C48006820F0F800E9
:1017D000616940EAC1009949086013E00020984916
:1017E0000860FFF7C1FC054606E0FFF7BDFC401BA3
:1017F000022801D9032029E79048006800F0020080
:101800000028F2D1207800F0080008282DD1A06926
:10181000B8B101208B490860FFF7A6FC054606E039
:10182000FFF7A2FC401B022801D903200EE78348E2
:10183000406A00F002000028F2D0012000F072FFA0
:1018400013E000207F490860FFF78EFC054606E0A4
:10185000FFF78AFC401B022801D90320F6E67748EF
:10186000406A00F002000028F2D1207800F0040065
:10187000042873D100277148C06900F0805070B906
:1018800000BF6E48C06940F080506C49C86108468E
:10189000C06900F08050009000BF00BF01276A4877
:1018A000006800F48070B0B96748006840F4807048
:1018B00065490860FFF758FC054606E0FFF754FC51
:1018C000401B642801D90320C0E65F48006800F48B
:1018D00080700028F2D000BFE068012806D1574888
:1018E000006A40F001005549086227E0E06858B9F5
:1018F0005248006A20F00100504908620846006A18
:1019000020F00400086219E0E06805280BD14B487C
:10191000006A40F00400494908620846006A40F045
:10192000010008620AE04548006A20F001004349CE
:1019300008620846006A20F00400086200BFE06800
:10194000A0B1FFF711FC054609E0FFF70DFC401BB5
:1019500041F28831884202D9032077E622E03748F5
:10196000006A00F002000028EFD012E0FFF7FCFB55
:10197000054608E0FFF7F8FB401B41F2883188423A
:1019800001D9032062E62D48006A00F00200002819
:10199000F0D1012F05D12948C06920F08050274996
:1019A000C86100BFE069C8B32448406800F00C007B
:1019B000082860D0E069022848D100202049086644
:1019C000FFF7D2FB054606E0FFF7CEFB401B0228DF
:1019D00001D903203AE61948006800F00070002899
:1019E000F2D1206AB0F5803F07D11448406820F456
:1019F0000030A168084311494860D4E90801084350
:101A00000E49496821F4741108430C4948600120CB
:101A10000B490866FFF7A8FB054607E03DE0FFF726
:101A2000A3FB401B022801D903200FE603480068EE
:101A300000F000700028F2D02FE0000000100240FB
:101A400000004242800442420070004000201449DD
:101A50000866FFF789FB054606E0FFF785FB401B9C
:101A6000022801D90320F1E50E48006800F000705B
:101A70000028F2D111E0E069012800D1E6E509482B
:101A8000466806F48031206A814204D106F4701160
:101A9000606A814201D00120D8E50020D6E500002F
:101AA000000042420010024070B504462546681E00
:101AB000B0F1807F01D301200FE0681E4FF0E021DC
:101AC00048610F214FF0FF3001F066F900204FF020
:101AD000E021886107200861002070BD70477047D1
:101AE00010B50346002200BF93F83C00012801D145
:101AF000022010BD012083F83C0000BF22F0FF004F
:101B0000CC6840EA040222F440708C6840EA040287
:101B100022F480604C6840EA040222F400600C6801
:101B200040EA040222F480500C6940EA040222F4E4
:101B300000504C6940EA040222F48040CC6940EA3B
:101B400004021868426400BF002083F83C0000BF14
:101B500000BFCEE730B502460B4600BF92F83C000E
:101B6000012801D1022030BD012082F83C0000BFD5
:101B7000022082F83D00106844681068816824F0F3
:101B800070041868044310684460104D1068A8423F
:101B90000BD01068B0F1804F07D00D4D1068A842EF
:101BA00003D00C4D1068A84205D121F0800158687F
:101BB000014310688160012082F83D0000BF0020D1
:101BC00082F83C0000BF00BFCDE70000002C0140C0
:101BD000000400400008004070B504460D4615B9E9
:101BE00094F842000BE0042D02D14320005D06E092
:101BF000082D02D14420005D01E04520005D012850
:101C000001D0012070BD1DB9022084F842000EE011
:101C1000042D03D102214320015508E0082D03D1F2
:101C200002214420015502E00221452001550422F1
:101C30002946206800F09DFF2068406C40F4004079
:101C4000216848641249206888420BD02068B0F1AE
:101C5000804F07D00F492068884203D00E49206882
:101C600088420CD12068806800F00706062E0CD050
:101C70002068006840F001002168086005E02068E5
:101C8000006840F00100216808600020BAE7000009
:101C9000002C0140000400400008004010B504463C
:101CA0000CB9012010BD94F83D0028B9002084F83B
:101CB0003C00204600F026F8022084F83D00211D5B
:101CC000206800F003FF012084F8460000BF84F87C
:101CD0003E0001213F200155402001554120015582
:101CE00000BF00BF012084F842004320015544207A
:101CF00001554520015500BF012084F83D0000201A
:101D0000D0E7000038B504460D492068884215D157
:101D100000BF0C48806940F400600A4988610846A9
:101D2000806900F40060009000BF00BF00221146EF
:101D30001920FFF79FFA1920FFF78CFA38BD000031
:101D4000002C014000100240014691F83D0001289E
:101D500001D001207047022081F83D00124B086835
:101D600098420BD00868B0F1804F07D00F4B08683D
:101D7000984203D00E4B086898420CD108688068DE
:101D800000F00702062A0CD00868006840F0010045
:101D90000B68186005E00868006840F001000B68F7
:101DA00018600020D6E70000002C0140000400402D
:101DB00000080040014691F83D00012801D00120B3
:101DC0007047022081F83D000868C06840F00100BB
:101DD0000B68D860124B086898420BD00868B0F1C5
:101DE000804F07D00F4B0868984203D00E4B08680D
:101DF00098420CD10868806800F00702062A0CD0CF
:101E00000868006840F001000B68186005E0086889
:101E1000006840F001000B6818600020D0E7000067
:101E2000002C014000040040000800402DE9F04172
:101E300004460D46002700BF94F83C00012802D15B
:101E40000220BDE8F081012084F83C0000BF0220A0
:101E500084F83D002068866826F0770626F47F46E1
:101E6000206886602868502833D00CDC202850D0A9
:101E700004DC00284BD0102851D149E0302849D04B
:101E800040284CD139E060282DD0702807D0B0F51B
:101E9000805F03D0B0F5005F41D10DE041E0D5E9AE
:101EA00002136A68206800F075FE2068866846F0B4
:101EB00077062068866034E0D5E902136A682068F6
:101EC00000F068FE2068806840F4804021688860E7
:101ED00027E0EA686968206800F02CFF502120683C
:101EE00000F063FE1DE0EA686968206800F035FFD5
:101EF0006021206800F059FE13E0EA6869682068F4
:101F000000F018FF4021206800F04FFE09E000BFFC
:101F100000BF00BF2968206800F047FE01E00127EC
:101F200000BF00BF012084F83D0000BF002084F8FE
:101F30003C0000BF384684E7704770B5044620680F
:101F4000C5682068066906F00200022819D105F06C
:101F50000200022815D1401F216808610120207766
:101F60002068806900F0030018B12046FFF7E4FF05
:101F700005E0204600F0E0F8204600F0B3F900202C
:101F8000207706F00400042819D105F00400042885
:101F900015D1C0432168086102202077206880693C
:101FA00000F4407018B12046FFF7C6FF05E0204658
:101FB00000F0C2F8204600F095F90020207706F0E6
:101FC0000800082819D105F00800082815D1C043D9
:101FD00021680861042020772068C06900F00300B0
:101FE00018B12046FFF7A8FF05E0204600F0A4F84E
:101FF000204600F077F90020207706F01000102826
:1020000019D105F01000102815D1C04321680861CE
:10201000082020772068C06900F4407018B120467D
:10202000FFF78AFF05E0204600F086F8204600F022
:1020300059F90020207706F0010048B105F00100B1
:1020400030B16FF0010021680861204600F0B6F958
:1020500006F08000802809D105F08000802805D195
:10206000C043216808612046FFF738FD06F04000B4
:10207000402809D105F04000402805D1C04321681F
:102080000861204600F09BF906F02000202809D1C5
:1020900005F02000202805D1C043216808612046B2
:1020A000FFF71DFD70BD000010B586B0044600208E
:1020B00002900390049005901B492068884230D11B
:1020C00000BF1A48806940F0080018498861084636
:1020D000806900F00800019000BF00BF00BF084603
:1020E000806940F0040088610846806900F00400BF
:1020F000019000BF00BF4FF46040029002200390A7
:102100000320059002A90A48FEF79EFE4FF4E06006
:102110000290022003900320059002A90548FEF7D3
:1021200093FE06B010BD0000002C014000100240DC
:10213000000C01400008014070472DE9F0410446C1
:102140000D461646002700BF94F83C00012802D136
:102150000220BDE8F081012084F83C0000BF36B1C8
:10216000042E1BD0082E31D00C2E5ED145E029461E
:10217000206800F023FD2068806940F00800216895
:1021800088612068806920F00400216888612068E7
:102190008069296908432168886148E029462068E8
:1021A00000F03CFD2068806940F40060216888618F
:1021B0002068806920F480602168886120688069D7
:1021C000296940EA01202168886130E029462068B9
:1021D00000F058FD2068C06940F008002168C8611F
:1021E0002068C06920F004002168C8612068C069C7
:1021F000296908432168C86119E02946206800F070
:1022000075FD2068C06940F400602168C8612068DD
:10221000C06920F480602168C8612068C0692969AC
:1022200040EA01202168C86101E0012700BF00BF2A
:1022300000BF002084F83C0000BF384689E710B595
:1022400004460CB9012010BD94F83D0028B90020C7
:1022500084F83C00204600F025F8022084F83D0078
:10226000211D206800F032FC012084F8460000BFE8
:1022700084F83E0001213F200155402001554120B6
:10228000015500BF00BF012084F8420043200155E2
:10229000442001554520015500BF012084F83D0030
:1022A0000020D0E738B504462068B0F1804F15D142
:1022B00000BF0B48C06940F001000949C8610846E9
:1022C000C06900F00100009000BF00BF002211466D
:1022D0001C20FEF7CFFF1C20FEF7BCFF38BD00001E
:1022E000001002407047000070B504460D4615B955
:1022F00094F83E000BE0042D02D13F20005D06E083
:10230000082D02D14020005D01E04120005D012840
:1023100001D0012070BD1DB9022084F83E000EE0FE
:10232000042D03D102213F20015508E0082D03D1DF
:1023300002214020015502E00221412001550122E5
:102340002946206800F004FC19492068884201D120
:10235000012000E0002028B12068406C40F40040DB
:10236000216848641249206888420BD02068B0F187
:10237000804F07D00F492068884203D00E4920685B
:1023800088420CD12068806800F00706062E0CD029
:102390002068006840F001002168086005E02068BE
:1023A000006840F00100216808600020B2E70000EA
:1023B000002C0140000400400008004070477047B6
:1023C00000BFFEE700B587B01C216846FDF7FCFEA4
:1023D0001548164908600021144881600173017591
:1023E0004FF46021C16100201049486001210F486D
:1023F0000161FEF7D3FB08B1FEF727F80520009036
:102400000120019004900020029006908DF81500A4
:102410008DF81400039069460448FEF77BF908B173
:10242000FEF713F807B000BD00240140940000201F
:1024300000B587B01C216846FDF7C6FE1548164951
:102440000860002114488160017301754FF4602118
:10245000C16100201049486001210F480161FEF769
:102460009DFB08B1FDF7F1FF0620009001200190CF
:1024700004900020029006908DF815008DF814004D
:10248000039069460448FEF745F908B1FDF7DDFF02
:1024900007B000BD00280140C400002008B500BFFF
:1024A0001348806940F0200011498861084680691E
:1024B00000F02000009000BF00BF00BF0846806908
:1024C00040F0040088610846806900F00400009034
:1024D00000BF00BF00BF0846806940F00800886167
:1024E0000846806900F00800009000BF00BF08BDEA
:1024F0000010024000B595B000201190129013908A
:1025000014900F9010901C2108A8FDF75DFE20216B
:102510006846FDF759FE3B483B4908600220486089
:102520004021394881604FF4E161C16000210161BF
:10253000416180218161FFF7B1FB08B1FDF785FFA3
:102540004FF48050119011A92F48FFF76FFC08B18C
:10255000FDF77BFF2C48FFF772FE08B1FDF775FF12
:1025600070200F90002010900FA92748FFF7F2FA73
:1025700008B1FDF76AFF60200890002009900A90DA
:102580000B900C900D900E90002208A91E48FFF7AA
:10259000D4FD08B1FDF759FF042208A91A48FFF736
:1025A000CCFD08B1FDF751FF082208A91648FFF736
:1025B000C4FD08B1FDF749FF7020089040F2077094
:1025C00009900C2208A91048FFF7B7FD08B1FDF7E4
:1025D0003CFF002000900190029005200390002015
:1025E00004904FF40050059000200790694606487B
:1025F000FFF776FA08B1FDF728FF0348FFF754FD0F
:1026000015B000BD002C0140F400002000B589B0D9
:102610000020079008901C216846FDF7D5FD4FF07B
:1026200080401649086048204860002113488160B6
:102630004FF47A71C160002101618161FFF7FFFDF4
:1026400008B1FDF702FF00200790089007A90B488A
:10265000FFF780FA08B1FDF7F8FE60200090002037
:10266000019002900490002269460448FFF765FD3E
:1026700008B1FDF7EAFE09B000BD00003C010020F2
:1026800000BFFEE700BFFEE770472DE9F0410446BA
:102690000D4616463146284601F094F8E060D4E92C
:1026A000031000F06BFD2061606980F00047384640
:1026B000216901F04BF800D203E0D4E9040101F0F4
:1026C00045F82169606800F075FF0746E1682068F9
:1026D00000F070FF8046394600F050FDE061A069CF
:1026E00080F000473846E16901F030F800D203E09D
:1026F000D4E9061001F02AF8E069BDE8F08170B570
:1027000004460D4620212046FDF75EFD2868206026
:1027100068686060A868A060E86860612869A06176
:1027200070BD000008B508490968C9084FF47A72FD
:10273000B1FBF2F14143009100BF00BF00994A1E76
:1027400000920029F9D108BD3C000020704700002C
:1027500010B50C4B1B685A630A4B1B689963094BF5
:102760001B68D863074B1B685B6B074C2360054BEA
:102770001B689B6B054C2360024B1B68DB6B044C96
:10278000236010BDF4000020780000207C000020B1
:102790008000002010B51A4890F84800032804D0A3
:1027A00005281CD0062827D10CE006201549086012
:1027B0001548FDF7AFFF0520124908601348FDF7E3
:1027C000A9FF1AE007200F4908600F48FDF7A2FF94
:1027D00006200C4908600D48FDF79CFF0DE007201E
:1027E000084908600848FDF795FF0520054908607D
:1027F0000648FDF78FFF00E000BF00BF10BD0000DE
:10280000A80400205C000020C400002094000020E8
:102810002DE9FE436448FFF7CDFA6448FFF794FAC8
:102820000C216248FFF760FD6148FEF7B7F8604889
:102830000068406840F080005D49096848605D4874
:10284000FEF7ACF85B480068406840F080005949EA
:1028500009684860002000900190029000210C4619
:102860000D460E460F460520534908605048FDF7B7
:1028700051FF0620504908604E48FDF74BFF4FF0CE
:10288000000814E00120FEF7CBFA01214848FEF7CA
:102890006CF8041945F1000501214648FEF765F87A
:1028A000861947F1000708F101000FFA80F8B8F522
:1028B0007A7FE7DB2046294600F018FE81463F4933
:1028C00000F0CAFC804600F0D9FD3D490880304642
:1028D000394600F00BFE8146384900F0BDFC8046C9
:1028E00000F0CCFD36498880062033490860304826
:1028F000FDF710FF0720304908602E48FDF70AFF5A
:1029000000210C460D460E460F46884614E0012075
:10291000FEF786FA01212648FEF727F8041945F14B
:10292000000501212348FEF720F8861947F100072A
:1029300008F101000FFA80F8B8F57A7FE7DB20464E
:10294000294600F0D3FD81461C4900F085FC8046F5
:1029500000F094FD1A4948803046394600F0C6FD23
:102960008146164900F078FC804600F087FD144946
:10297000C88000210D48FFF7B7FC04210B48FFF782
:10298000B3FC08210948FFF7AFFC00210748FFF717
:1029900023F904210548FFF71FF908210348FFF731
:1029A0001BF9BDE8FE8300003C010020F40000207C
:1029B00094000020C40000205C00002000007A4445
:1029C0005400002010B5FEF7D5FB10BD00B593B044
:1029D000282109A8FDF7F8FB142104A8FDF7F4FB52
:1029E00000200090019002900390012009900004C3
:1029F0000A9000200B9001200D9002201090C1033E
:102A000011914FF4E011129109A8FEF71BFE08B1D5
:102A1000FDF71BFD0F20049002200590002006907A
:102A20004FF48060079000200890022104A8FEF770
:102A30000BFD08B1FDF709FD022000908003029014
:102A40006846FEF769FC08B1FDF7FFFC13B000BD56
:102A50007047000010B50248FFF76FFA10BD000084
:102A6000F400002010B51248007848B11149D1F89F
:102A70009C001149096800F081FB0E49C1F89C00D7
:102A80000C49D1F89C000D4900F060FE03D20C48BF
:102A90000849C1F89C000B48D0E90020521C40F1C5
:102AA00000000849C1E900200748FFF746FA10BDB9
:102AB00024000020A804002020000020000034434F
:102AC000000034C3280000203C01002010B502683B
:102AD0001C4B984208D0B0F1804F05D01A4B984259
:102AE00002D01A4B984203D122F070024B681A436D
:102AF000144B984208D0B0F1804F05D0124B984249
:102B000002D0124B984203D122F44072CB681A4390
:102B100022F080034C6943EA040202608B68C362BE
:102B20000B688362074B984201D10B690363012351
:102B30004361036903F001031BB1036923F001033F
:102B4000036110BD002C014000040040000800405B
:102B500030B501F01F05012404FA05F3046A9C4313
:102B60000462046A01F01F0502FA05F52C430462B1
:102B700030BD30B501F00F05042404FA05F3046AF2
:102B80009C430462046A01F00F0502FA05F52C4328
:102B9000046230BD30B50C46816821F47F4142EAC1
:102BA000032525432943816030BD0A46816821F011
:102BB000700142F0070319438160704730B5026A23
:102BC000056A25F0010505624368846924F07004F4
:102BD00024F003040D682C4322F002028D682A437E
:102BE0000D4DA84206D100BF22F00802CD682A434D
:102BF00022F00402084DA84207D123F4807323F485
:102C000000734D692B438D692B43436084614D688C
:102C10004563026230BD0000002C014030B5026AFD
:102C2000056A25F0100505624368846924F4E044D0
:102C300024F440740D6844EA052422F020028D68D3
:102C400042EA05120E4DA84207D100BF22F08002D1
:102C5000CD6842EA051222F04002094DA84209D18E
:102C600023F4806323F400634D6943EA85038D698F
:102C700043EA8503436084614D688563026230BD29
:102C8000002C014030B5026A056A25F480750562A2
:102C90004368C46924F0700424F003040D682C43D5
:102CA00022F400728D6842EA05220F4DA84207D136
:102CB00000BF22F40062CD6842EA052222F480625D
:102CC000094DA84209D123F4805323F400534D69E0
:102CD00043EA05138D6943EA05134360C4614D68F7
:102CE000C563026230BD0000002C014030B5036AAC
:102CF000056A25F4805505624468C26922F4E04201
:102D000022F440720D6842EA052223F400538D68D4
:102D100043EA0533064DA84204D124F480444D69AA
:102D200044EA85144460C2614D680564036230BDA5
:102D3000002C014030B50B461446026A056A25F0A6
:102D400001050562816921F0F00141EA041122F0D8
:102D50000A021A438161026230BD30B50B46144647
:102D6000026A056A25F010050562816921F4704147
:102D700041EA043122F0A00242EA031281610262B8
:102D800030BD00BFFEE7000002480068C0F302202B
:102D9000704700000CED00E010B5002804DB0A07C6
:102DA000130E054A135406E00A07140E034A00F0F6
:102DB0000F031B1FD45410BD00E400E018ED00E029
:102DC0002DE9F04705460021284600F0BFFC01D25E
:102DD000284601E085F0004005460021284600F025
:102DE000B5FC28D83049284600F0B0FB23D22E4944
:102DF000284600F0DCFC8146002100F0A7FC04D24C
:102E00002949284600F0D3FC05E02749284600F070
:102E1000CEFC80F000408046244900F0CBFB074602
:102E200000F010FB224951F820602249304600F0A2
:102E300013FA044634E01C49284600F087FC29D8E0
:102E40001D49284600F082FB24D21749284600F08D
:102E5000B9FC8146002100F079FC04D212492846D1
:102E600000F0B0FC05E01049284600F0ABFC80F013
:102E7000004080460D4900F09DFB074600F0E2FA55
:102E80000B4951F820600B49304600F0E5F980F01D
:102E9000004405E00849284600F0A0FA00D1074C9C
:102EA0002046BDE8F08700000000B4420000204149
:102EB000D83800080000C84200003443000080BF3A
:102EC000FEF764F9FFF782FDFFF7E8FAFFF77AFAF9
:102ED000FFF7AEFAFFF70EFBFFF798FBFDF746FB97
:102EE00003E002480068FDF7B3FAFAE700000020AB
:102EF00070B51D49D1F89C0000F038F806461A4814
:102F00004169304600F056FB04461749D1F89C0051
:102F1000FFF756FF064614488169304600F04AFB29
:102F20000546214600F04EFC0F49C860D1F89C00D0
:102F3000FFF746FF06460C484169304600F03AFB71
:102F400004460949D1F89C0000F010F806460648EE
:102F50008169304600F02EFB0546214600F00EF94F
:102F60000149086170BD0000A80400202DE9F04768
:102F700005460021284600F0E9FB1DD85F49284698
:102F800000F0E4FA18D20021284600F0DFFB01D25D
:102F9000284601E085F000408046594900F00AFBD0
:102FA000074600F04FFA574951F82060564930461D
:102FB00000F052F904469DE05049284600F0C6FB57
:102FC00028D85249284600F0C1FA23D24F49284652
:102FD00000F0EDFB8146002100F0B8FB04D24B4924
:102FE000284600F0E4FB05E04849284600F0DFFBF6
:102FF00080F000408046424900F0DCFA074600F0CD
:1030000021FA404951F820603F49304600F024F948
:1030100004466FE03E49284600F098FB29D83D4918
:10302000284600F093FA24D23849284600F0A6F842
:103030008146002100F08AFB04D23449284600F082
:103040009DF805E03149284600F098F880F00040EE
:1030500080462B4900F0AEFA074600F0F3F9294903
:1030600051F820602849304600F0F6F880F000441E
:1030700040E02849284600F069FB35D80021284661
:1030800000F064FA30D22149284600F077F88246F1
:103090001E4900F08CFB8146002100F057FB08D24E
:1030A0001A49284600F06AF88146184900F07FFB6B
:1030B00009E01649284600F061F88146134900F0FE
:1030C00076FB80F0004080460D4900F073FA074619
:1030D00000F0B8F90B4951F820600B49304600F078
:1030E000BBF880F0004405E00849284600F076F976
:1030F00000D100242046BDE8F08700000000B44263
:1031000000002041D83800080000C84200003443C5
:10311000000034C30000B4C20808A0F500114FEA53
:103120003101704743004FEAD30C4FEA3C0C434057
:103130001FBF40070CF1605113F0FE4F70471CF0A9
:10314000006F03D100200CF0004170470CF00043E9
:1031500043EA507010B540EACC0000F0ACFA00BF72
:10316000000000924FEA0001FFF7D6BF4FF0004188
:103170004FF00000A1F500217047000090EA010F18
:1031800048BF81F0004100F12483421A3CBF801AFD
:1031900089184FEAD0524FF07F4C1CEA410FA2EB46
:1031A000D15318BF9CEA026F00F03B804FF0004CF7
:1031B0004CEA00204CEA012121FA03FC10EB0C0C34
:1031C0001ED202F1FF325FEA1C2040EBC25038BF32
:1031D00070471CF07F0F4FEA400C18BFBCF17F4FC7
:1031E00038BF7047C3F12003994008BF20F00100A9
:1031F000BCF17F4F38BF7047A0F1C04000F0A1BACA
:103200004FEA3C00000A40EBC25028BF1CF0FF0F01
:103210004FEA400CE6D018BFBCF17F4F38BF704773
:10322000EAE79CEA026F05D010EA5C0F08BF00F0E5
:103230000040704710B500F03EFA00BF64FBBE3E90
:10324000401058BFC0F14040491058BFC1F1404143
:103250008142EFF3008070474FF47F0C1CEAD012DC
:103260001EBF1CEAD11392EA0C0F93EA0C0F00F078
:10327000858090EA010F48BF42F4807240F4000C50
:1032800041F400002CF07F4120F07F4000B58142E6
:10329000A2EB03020FF2081CACEB504EC0F1000091
:1032A0009EF800E04FEA4E0E00FB0EFC38BF4900CE
:1032B0004FEA2C1C02F5FA020CFB0EF34FEACE1E6D
:1032C0004FEA112C4FEAC1210EEB635E42EB224222
:1032D0000EFB0CFC4FEA1C5300FB03114FEA112CB0
:1032E0004FEA01310EFB0CFC4FEADC4C00FB0C11E9
:1032F000C14228BF09184CEB03335DF804EB10EB17
:10330000410143EBC250B2F57C0F38BF704729D55D
:1033100012F0F00F1CBF00F1C04000F000407047F9
:10332000008182838485868788898B8C8D8E8F919E
:103330009293959697999A9C9D9FA0A2A3A5A7A8C2
:10334000AAACAEB0B2B3B5B7B9BCBEC0C2C5C7C9EE
:10335000CCCED1D4D7D9DCDFE2E6E9ECF0F3F7FA52
:10336000FE0000004FEA400C0CF1807CBCF17E4F67
:1033700028BF7047B0F1C04000F0E3B990EA010FF8
:103380000CEAD11348BF42F48072624538BF6345EE
:1033900007D213F47F0F16D080EA010000F000403E
:1033A000704710B500F087F9097EFC3E00F005B8C3
:1033B00080EA010000F00040704780EA010000F060
:1033C000004000F0BEB912F47F0F04BF02487047FE
:1033D00080EA010000F0B5B90000C07F50EA010C9E
:1033E00000F113801CF5000F58BFBCF5000F01D48D
:1033F0008842704707D710F5000F58BF11F5000F2E
:1034000015D488427047894270471CF5000F04D5D7
:10341000BCF5000FF7D5814270474FF0807C1CEB64
:10342000400F38BF1CEB410F01D28142704710B5ED
:1034300000F041F9922449004FF000504FF08051C4
:10344000FFF7FEBE41000B0ED3F19E0208D950F4E7
:1034500000034FEA032323FA02F048BF40427047BB
:1034600010B500F028F900BF499224800020704771
:103470006FF0004282EA200070470000C10DD1F1D8
:103480009E0206DB4FEA002343F0004323FA02F0DA
:103490007047004207D54FEA4001B1F1FE4F02D21A
:1034A0004FF00000704710B500F005F949922480F4
:1034B000002070476FEA20007047000010F00041C4
:1034C00048BF4042B0FA80F310FA03F2C3F19D0303
:1034D0000BD051EAC35101EB1220530638BF70479D
:1034E00000F1010008BF20F0010070474FF07E524C
:1034F00009E011F0004204D54042C1F1000138BF9B
:10350000491E42F07E520B0002F1706212BF20236E
:103510005FEA00017047B1FA81FCA3EB0C0301FAEA
:103520000CF120FA03FC02EBC352C3F1200341EA81
:103530000C0110FA03FC5CEA416C42EB112018BF4D
:103540005FF0806C28BF20F00100704750EA010C4A
:1035500000F113801CF5000F58BFBCF5000F01D41B
:103560008842704707D710F5000F58BF11F5000FBC
:1035700015D488427047894270471CF5000F04D566
:10358000BCF5000FF7D5814270474FF0807C1CEBF3
:10359000400F38BF1CEB410F01D28142704710B57C
:1035A00000F089F8922449004FF000504FF080510C
:1035B000FFF746BE4FF47F0C1CEAD0121EBF1CEA78
:1035C000D11392EA0C0F93EA0C0F00F0478090EAB7
:1035D000010F48BF42F480724FF0004C4CEA0020CB
:1035E0004CEA012102EB0302A0FB0113A2F5000249
:1035F000002918BF43F001035B0028BF4FEA3303E3
:1036000042EB22425FEA132C4CEBC2502EBFBCEBC4
:10361000436FB2F57C0F70474FEA036CBCF1004F6B
:1036200008BF20F00100B2F57C0F38BF70470BD502
:1036300082F0FF0212F5803FC8BF704700F1C04022
:10364000D8BF00F00040704700F5000C5FEA4C0C5A
:1036500048BF7047B0F1C04000F073B890EA010F66
:103660000CEAD11348BF42F48072624538BF63450B
:1036700004D280EA010000F00040704710B500F06D
:103680001AF800BF8900013E00F007B800F009B841
:103690005FEA410C5FEA1C6C08D080EA010000F090
:1036A00050B85FEA400C5FEA1C6CF6D14FF0004066
:1036B000A0F5800070470EF1020E2EF0030E5EF8AA
:1036C000044B244204D44FEA4102B2F17F4F11D897
:1036D0004FEA4003B3F17F4F0CD80ED14FEAD07CB4
:1036E000B2F17F4F0CEB4C0C0CF1020C08BF4CEB11
:1036F000D17C04E04FF0080C01E04FEAD17C0CEBE8
:103700004C0324FA03F404F00704B4F1040C06D2C9
:103710000EEB840CBDE810404CF0010C6047DFE874
:103720000CF0070802024FF00040A0F5800010BD29
:103730000846420018BFD2F1807288BF00F00040F6
:1037400010BDFF2141EAD050C005704751EA000C7E
:1037500000F113801CF5000F58BFBCF5000F01D419
:103760008142704707D711F5000F58BF10F5000FC1
:1037700015D481427047894270471CF5000F04D56B
:10378000BCF5000FF7D5884270474FF0807C1CEBEA
:10379000410F38BF1CEB400F01D28842704780EACE
:1037A000010081EA000180EA0100FFF7F8BE80F025
:1037B000004090EA010F7FF5E8AC81F0004100F095
:1037C00008B8000090EA010F48BF81F000413FF5C2
:1037D000DCAC421A04D882F00042A0EB0200114493
:1037E0004FEAD0524FF07F4C1CEA410FA2EBD1536D
:1037F00018BF9CEA026F4AD04FF0004C4CEA002000
:103800004CEA012121FA03FCB0EB0C0C0FD412F0AE
:10381000FE0F36D05FEA4C001DD5001240EBC250BF
:1038200038BF70471CF03F0F18BF70470BE0A2F184
:1038300001025FEA1C2040EBC25038BF70471CF009
:103840007F0F18BF7047C3F12003994014BF401E7B
:1038500020F00100704780084FEA122308BF70472C
:10386000B0FA80FCA2EB0C02CCF1280C60FA0CF050
:1038700093EA122F04BF00EBC25070474FEAC370A7
:103880007047130A5FEADC1008BF7047F6E79CEA4E
:10389000026F04D010EA5C0F08BF0020704710B51B
:1038A000FFF709FF40DFF63E81F00040704702035A
:1038B0000405060708090A0B0C0D0E0F1010010273
:1038C00000000000000000000102030406070809D0
:1038D000000000000102030400000000BCB8323EFA
:1038E000ABB8B23E6A0A063F63B8323F39665F3F03
:1038F000F109863FAB609C3F46B7B23FBD0DC93F63
:103900000C64DF3F2EBAF53F10080640ED3211403F
:10391000AE5D1C4050882740D0B232402DDD3D4086
:103920006307494072315440565B5F400D856A40E1
:1039300096AE7540F76B80408900864001958B40BC
:103940005C2991409BBD9640BB519C40BDE5A14088
:103950009E79A7405D0DAD40FAA0B2407334B840E7
:10396000C8C7BD40F75AC340FEEDC840DE80CE4018
:103970009413D44020A6D9408138DF40B5CAE44032
:10398000BB5CEA4093EEEF403A80F540B111FB405A
:103990007B510041031A034172E20541C6AA084166
:1039A000FE720B411B3B0E411B031141FECA13412A
:1039B000C49216416C5A1941F5211C415FE91E4120
:1039C000A9B02141D3772441DC3E2741C3052A41D8
:1039D00089CC2C412C932F41AD59324109203541DE
:1039E00042E6374155AC3A4144723D410D384041C1
:1039F000AFFD42412AC345417E884841AA4D4B4113
:103A0000AD124E4187D75041389C5341BE6056415C
:103A10001925594149E95B414DAD5E41257161412F
:103A2000D03464414DF866419CBB6941BC7E6C4119
:103A3000AD416F416F04724100C7744160897741A5
:103A40008F4B7A418B0D7D4156CF7F417648814126
:103A500028A98241C00984413D6A8541A0CA8641A6
:103A6000E82A8841148B894126EB8A411B4B8C4103
:103A7000F4AA8D41B20A8F41526A9041D6C9914150
:103A80003D29934186889441B1E79541BF469741CE
:103A9000AFA5984180049A4132639B41C5C19C41C6
:103AA00039209E418E7E9F41C2DCA041D73AA2417F
:103AB000CB98A3419EF6A4415054A641E2B1A74140
:103AC000510FA941A06CAA41CCC9AB41D526AD414B
:103AD000BC83AE4181E0AF41223DB141A099B241EA
:103AE000FAF5B3413052B54142AEB641300AB84161
:103AF000F865B9419CC1BA411B1DBC417478BD41F8
:103B0000A7D3BE41B42EC0419B89C1415BE4C241F1
:103B1000F43EC4416699C541B0F3C641D34DC84196
:103B2000CEA7C941A101CB414B5BCC41CCB4CD4127
:103B3000240ECF415367D04158C0D1413319D341EE
:103B4000E571D4416BCAD541C722D741F97AD84132
:103B5000FFD2D941D92ADB418882DC410ADADD4132
:103B60006131DF418B88E04188DFE1415836E34134
:103B7000FA8CE4416FE3E541B639E741CF8FE84184
:103B8000BAE5E941753BEB410291EC4160E6ED415C
:103B90008E3BEF418C90F0415BE5F141F939F34107
:103BA000668EF441A3E2F541AE36F741888AF841CA
:103BB00031DEF941A831FB41EC84FC41FED7FD41E7
:103BC000DE2AFF41C53E004202E800422591014243
:103BD0002E3A02421DE30242F28B0342AC3404420D
:103BE0004DDD0442D38505423E2E06428ED6064266
:103BF000C37E0742DE260842DDCE0842C176094276
:103C0000891E0A4236C60A42C76D0B423C150C4259
:103C100096BC0C42D3630D42F40A0E42F9B10E4237
:103C2000E1580F42ACFF0F425BA61042ED4C11422F
:103C300062F31142BA991242F43F134211E6134261
:103C4000118C1442F3311542B7D715425D7D1642EF
:103C5000E622174250C817429B6D1842C9121942FA
:103C6000D7B71942C75C1A4299011B424BA61B42A7
:103C7000DE4A1C4252EF1C42A7931D42DC371E4213
:103C8000F2DB1E42E87F1F42BE23204274C720425F
:103C90000A6B2142800E2242D5B122420A552342AC
:103CA0001EF82342129B2442E53D254297E025421F
:103CB0002783264297252742E5C72742116A2842D3
:103CC0001C0C294205AE2942CD4F2A4272F12A42EC
:103CD000F5922B4256342C4295D52C42B1762D428A
:103CE000AA172E4281B82E4235592F42C5F92F42CC
:103CF000339A30427D3A3142A4DA3142A87A3242D4
:103D0000881A334244BA3342DC59344250F93442BF
:103D1000A1983542CC373642D4D63642B7753742B1
:103D2000751438420FB3384284513942D3EF3942C7
:103D3000FE8D3A42032C3B42E3C93B429E673C4224
:103D400033053D42A2A23D42EB3F3E420FDD3E42E3
:103D50000C7A3F42E316404294B340421E50414227
:103D600081EC4142BE884242D4244342C3C0434214
:103D70008B5C44422CF84442A6934542F82E4642BE
:103D800022CA46422565474200004842B39A48424B
:103D90003E354942A1CF4942DC694A42EE034B42DB
:103DA000D79D4B4298374C4230D14C42A06A4D428D
:103DB000E6034E42039D4E42F7354F42C2CE4F427C
:103DC00063675042DAFF5042289851424C305242C9
:103DD00046C8524216605342BCF75342378F544292
:103DE00088265542AEBD5542AA5456427BEB5642F8
:103DF000218257429C185842ECAE58421045594215
:103E00000ADB5942D7705A4279065B42F09B5B420B
:103E10003A315C4259C65C424B5B5D4212F05D42F6
:103E2000AC845E4219195F425AAD5F426F416042F5
:103E300057D56042116961429FFC61420090624225
:103E40003323634239B6634212496442BDDB6442A4
:103E50003A6E65428A006642AB9266429F24674290
:103E600064B66742FC47684264D968429F6A694207
:103E7000AAFB6942888C6A42361D6B42B5AD6B4223
:103E8000053E6C4226CE6C42185E6D42DAED6D4204
:103E90006D7D6E42D10C6F42049C6F42082B7042C4
:103EA000DCB970427F487142F3D671423665724286
:103EB00049F372422C817342DD0E74425E9C74425F
:103EC000AF297542CEB67542BC43764279D0764270
:103ED000055D77425FE977428875784280017942D3
:103EE000458D7942D9187A423BA47A426B2F7B42A6
:103EF00068BA7B4234457C42CDCF7C42345A7D4205
:103F000068E47D42696E7E4237F87E42D3817F420B
:103F10009E058042394A8042BA8E804221D3804237
:103F20006F178142A35B8142BD9F8142BDE3814205
:103F3000A4278242706B824223AF8242BBF282424C
:103F4000393683429D798342E6BC8342160084421F
:103F50002B4384422586844206C98442CB0B85428A
:103F6000764E8542079185427DD38542D81586429B
:103F7000185886423E9A864248DC8642381E87425E
:103F80000D608742C6A1874265E38742E9248842E3
:103F9000516688429EA78842D0E88842E629894235
:103FA000E16A8942C1AB894285EC89422E2D8A4261
:103FB000BB6D8A422CAE8A4282EE8A42BC2E8B4274
:103FC000DA6E8B42DDAE8B42C3EE8B428E2E8C427C
:103FD0003C6E8C42CFAD8C4246ED8C42A02C8D4283
:103FE000DE6B8D4200AB8D4206EA8D42EF288E4299
:103FF000BC678E426CA68E4200E58E4278238F42CB
:10400000D3618F4211A08F4233DE8F42381C904221
:10401000205A9042EB97904299D590422B139142AF
:10402000A0509142F78D914232CB91424F0892427B
:104030004F45924232829242F8BE9242A1FB924296
:104040002C3893429A749342EAB093421DED934206
:10405000322994422A65944204A19442C0DC9442DD
:104060005F189542E0539542438F954288CA954226
:10407000B0059642B9409642A57B964272B69642EA
:1040800021F19642B32B9742266697427AA0974237
:10409000B1DA9742C9149842C34E98429E8898421A
:1040A0005BC29842FAFB98427A359942DB6E99429C
:1040B0001EA8994242E19942471A9A422E539A42C7
:1040C000F58B9A429EC49A4228FD9A4293359B42B0
:1040D000E06D9B420DA69B421BDE9B4209169C4253
:1040E000D94D9C428A859C421BBD9C428DF49C42CA
:1040F000DF2B9D4213639D42279A9D421BD19D4217
:10410000F0079E42A53E9E423B759E42B1AB9E4249
:1041100007E29E423E189F42554E9F424C849F426A
:1041200023BA9F42DBEF9F427225A042EA5AA04287
:104130004190A04279C5A04290FAA042872FA142A7
:104140005E64A1421599A142ACCDA1422202A242D5
:104150007836A242AD6AA242C29EA242B7D2A24221
:104160008B06A3423F3AA342D26DA34244A1A3428D
:1041700096D4A342C707A442D73AA442C66DA4422C
:1041800095A0A44243D3A442D005A5423C38A54201
:10419000876AA542B09CA542B9CEA542A100A6421D
:1041A0006832A6420D64A6429195A642F4C6A64284
:1041B00036F8A6425629A742555AA742338BA74242
:1041C000EFBBA74289ECA742031DA8425A4DA84263
:1041D000907DA842A4ADA84297DDA842680DA942EF
:1041E000173DA942A46CA942109CA9425ACBA942EE
:1041F00082FAA9428729AA426B58AA422D87AA426D
:10420000CDB5AA424BE4AA42A612AB42E040AB4273
:10421000F76EAB42EC9CAB42BFCAAB4270F8AB420C
:10422000FE25AC426A53AC42B380AC42DAADAC423C
:10423000DFDAAC42C107AD428034AD421D61AD4210
:10424000978DAD42EFB9AD4224E6AD423612AE4293
:10425000263EAE42F269AE429C95AE4223C1AE42CA
:1042600087ECAE42C917AF42E742AF42E26DAF42C0
:10427000BA98AF4270C3AF4202EEAF427118B0427B
:10428000BD42B042E56CB042EB96B042CDC0B04208
:104290008CEAB0422714B142A03DB142F466B1426B
:1042A0002690B14234B9B1421EE2B142E50AB242AF
:1042B0008933B242095CB2426584B2429DACB242DB
:1042C000B2D4B242A4FCB2427124B3421B4CB342FA
:1042D000A173B342039BB34241C2B3425CE9B34210
:1042E0005210B4422537B442D35DB4425E84B44226
:1042F000C4AAB44207D1B44225F7B4421F1DB54247
:10430000F542B542A768B542358EB5429EB3B54277
:10431000E4D8B54204FEB5420123B642D947B642BD
:104320008D6CB6421C91B64287B5B642CDD9B64225
:10433000EFFDB642ED21B742C645B7427A69B742B2
:10434000098DB74274B0B742BBD3B742DCF6B7426F
:10435000D919B842B13CB842655FB842F381B8425E
:104360005DA4B842A2C6B842C2E8B842BD0AB9428A
:10437000932CB942444EB942D06FB9423791B942F9
:1043800079B2B94296D3B9428EF4B9426115BA42B4
:104390000F36BA429756BA42FB76BA423997BA42BA
:1043A00051B7BA4245D7BA4213F7BA42BC16BB421C
:1043B0004036BB429E55BB42D674BB42EA93BB42D9
:1043C000D8B2BB42A0D1BB4243F0BB42C10EBC42FB
:1043D000182DBC424B4BBC425769BC423F87BC4284
:1043E00000A5BC429CC2BC4212E0BC4262FDBC4281
:1043F0008D1ABD429237BD427154BD422B71BD42F0
:10440000BE8DBD422CAABD4274C6BD4296E2BD42DD
:1044100092FEBD42681ABE421836BE42A251BE424A
:10442000066DBE424588BE425DA3BE424FBEBE423F
:104430001BD9BE42C1F3BE42410EBF429A28BF42C1
:10444000CE42BF42DB5CBF42C276BF428390BF42D6
:104450001EAABF4292C3BF42E0DCBF4208F6BF4281
:10446000090FC042E527C0429940C0422859C042C6
:104470009071C042D189C042ECA1C042E1B9C042B2
:10448000AFD1C04257E9C042D800C1423318C1423F
:10449000672FC1427546C1425C5DC1421C74C14276
:1044A000B68AC14229A1C14275B7C1429BCDC14262
:1044B0009AE3C14272F9C142240FC242AF24C24200
:1044C000133AC242514FC2426764C2425779C24254
:1044D000208EC242C2A2C2423DB7C24292CBC24269
:1044E000BFDFC242C6F3C242A607C3425E1BC3423D
:1044F000F02EC3425B42C3429F55C342BC68C342D5
:10450000B27BC342808EC34228A1C342A9B3C34237
:1045100003C6C34235D8C34241EAC34225FCC34265
:10452000E20DC442781FC442E730C4422F42C44265
:104530005053C4424964C4421B75C442C685C44238
:104540004A96C442A7A6C442DCB6C442EAC6C442E4
:10455000D1D6C44290E6C44228F6C4429905C54269
:10456000E214C5420524C542FF32C542D341C542CB
:104570007F50C542035FC542606DC542967BC54210
:10458000A589C5428C97C5424BA5C542E3B2C54239
:1045900054C0C5429DCDC542BEDAC542B8E7C5424A
:1045A0008BF4C5423601C642BA0DC642161AC6423F
:1045B0004A26C6425732C6423C3EC642FA49C64225
:1045C0009055C642FF60C642466CC6426577C642F9
:1045D0005D82C6422D8DC642D697C64256A2C642BD
:1045E000B0ACC642E1B6C642EBC0C642CDCAC64276
:1045F00088D4C6421ADEC64285E7C642C9F0C64222
:10460000E4F9C642D802C742A50BC7424914C742C3
:10461000C61CC7421B25C742482DC7424D35C7425D
:104620002B3DC742E144C7426F4CC742D653C742F5
:10463000145BC7422B62C7421A69C742E16FC74287
:104640008076C742F87CC7424883C7426F89C74219
:104650006F8FC7424895C742F89AC74280A0C742A9
:10466000E1A5C7421AABC7422BB0C74214B5C74237
:10467000D5B9C7426EBEC742E0C2C74229C7C742CA
:104680004BCBC74245CFC74217D3C742C1D6C7425B
:1046900043DAC7429DDDC742CFE0C742DAE3C742F3
:1046A000BCE6C74277E9C7420AECC74274EEC7428C
:1046B000B7F0C742D2F2C742C5F4C74291F6C7422B
:1046C00034F8C742AFF9C74202FBC7422EFCC742CB
:1046D00031FDC7420DFEC742C1FEC7424CFFC74273
:1046E000B0FFC742ECFFC7420000C8420C470008B9
:1046F000000000209400000028010008A0470008E6
:1047000094000020140B0000440100080000A040A9
:104710000000000000000000000000000100000098
:104720000100000000000000000000000000004048
:104730000000000000000000000000000000000079
:10474000100000000100000000127A000000803F0D
:104750000000000000000000000000000000000059
:104760000000000000000000050000000100000043
:104770000000000000000000010000000000000038
:104780000000000000000000000000000000000029
:104790000000000000000000000000000000000019
:04000005080000ED02
:00000001FF
