:020000040800F2
:10000000880C002089010008E54C0008FD35000837
:10001000E14C0008D10500086F5400080000000002
:10002000000000000000000000000000054E000875
:100030002106000800000000E94C0008B15000084B
:10004000A3010008A3010008A3010008A301000800
:10005000A3010008A3010008A3010008A3010008F0
:10006000A3010008A3010008A3010008A3010008E0
:10007000A3010008A3010008A3010008A3010008D0
:10008000D5050008E505000881030008A301000864
:10009000A3010008A3010008A3010008A3010008B0
:1000A000A301000841510008A3010008A3010008B2
:1000B00051510008A3010008A301000811360008EF
:1000C00001360008A3010008A3010008A3010008ED
:1000D000A3010008A3010008A3010008A301000870
:1000E000A3010008A3010008A301000800F002F822
:1000F00000F03AF80AA090E8000C82448344AAF188
:100100000107DA4501D100F02FF8AFF2090EBAE885
:100110000F0013F0010F18BFFB1A43F0010318473B
:10012000D4720000F4720000103A24BF78C878C17D
:10013000FAD8520724BF30C830C144BF04680C60ED
:10014000704700000023002400250026103A28BF35
:1001500078C1FBD8520728BF30C148BF0B60704739
:100160001FB51FBD10B510BD00F0D4F81146FFF744
:10017000F7FF05F01BFA00F0F2F803B4FFF7F2FF07
:1001800003BC00F0F5F80000094880470948004723
:10019000FEE7FEE7FEE7FEE7FEE7FEE7FEE7FEE737
:1001A000FEE7FEE704480549054A064B7047000094
:1001B0003D510008ED00000888060020880C002052
:1001C000880800208808002053EA020C00F06980AB
:1001D0002DE9F04B4FF00006002B1FBFB3FA83F55B
:1001E00003FA05F424FA05F65E4012BF1643B2FA8C
:1001F00082F502FA05F4C5F120051EBF22FA05FCBE
:1002000044EA0C04203556EA044C4FEA144418BF63
:10021000641C4FF000084FF00009904271EB030C92
:1002200039D3002919BFB1FA81F701FA07F6B0FAFC
:1002300080F700FA07F6C7F120071EBF20FA07FC77
:1002400046EA0C062037B6FBF4FCA7EB0507103F87
:1002500007F01F0BCBF120060CFA0BFB2CFA06F66D
:1002600044BFB3460026202FA4BF5E464FF0000BCC
:100270005BEA060C08BF4FF0010B19EB0B09ABFB57
:10028000027C48EB0608C01B06FB02CC0BFB03CC30
:1002900071EB0C01C1E70B46024641464846BDE8FA
:1002A000F08B13B54FF000004FF00001AFF300806A
:1002B000BDE81C4070474FF0000200B5134694465D
:1002C0009646203922BFA0E80C50A0E80C50B1F1AE
:1002D0002001BFF4F7AF090728BFA0E80C5048BFC2
:1002E0000CC05DF804EB890028BF40F8042B08BF60
:1002F000704748BF20F8022B11F0804F18BF00F85C
:10030000012B7047704770477047000000487047E6
:10031000280600207546FFF7F9FFAE46050069463E
:10032000534620F00700854618B020B5FFF73AFF86
:10033000BDE820404FF000064FF000074FF00008E6
:100340004FF0000B21F00701AC46ACE8C009ACE867
:10035000C009ACE8C009ACE8C0098D46704710B5CB
:100360000446AFF300802046BDE81040FFF705BF0C
:1003700001491820ABBEFEE72600020070470000CE
:1003800010B5294890F8481080F849102748D0E95E
:100390000020511C40F10000244A6323C2E90010F0
:1003A0000022591A824103D20021204A1160516073
:1003B0001F480068406A00211E4B1C4A126803EB6C
:1003C000C20203C21C480068006800F00200022854
:1003D0000ED1C01F1849096808601848006818B194
:1003E00000201649086018E001201449086014E054
:1003F00013480068006800F0020002280DD1C01FF9
:100400000F49096808600F48006818B100200D49BD
:10041000086002E001200B490860074800F073FE05
:10042000074800F070FE10BD88050020180000206D
:10043000D8010020680200209C000020100000204D
:10044000CC0000201400002070B504460025206870
:10045000806800F0010018B32068806820F0010077
:100460002168886001F06AFB054613E001F066FB35
:10047000401B02280ED92068806800F0010048B1B6
:10048000A06A40F01000A062E06A40F00100E06263
:10049000012070BD2068806800F001000028E5D1CF
:1004A0000020F6E738B504460025002000902068BB
:1004B000806800F0010078BB2068806840F001008F
:1004C00021688860194800681949B0FBF1F0009074
:1004D00002E00098401E009000980028F9D101F039
:1004E0002DFB054619E001F029FB401B022814D919
:1004F0002068806800F0010078B9A06A40F0100020
:10050000A062E06A40F00100E06200BF002084F8D1
:10051000240000BF012038BD05E02068806800F09D
:1005200001000028DFD00020F5E700003C0000209B
:1005300040420F007CB504460D4616460123224674
:100540006C210348CDE9005601F068FD7CBD000038
:10055000FC00002070B51D49D1F89C0005F080F822
:1005600006461A48C16B304605F0A8FE04461749F6
:10057000D1F89C0004F09AFF06461448816B30467F
:1005800005F09CFE0546214605F0ACFC0F49486489
:10059000D1F89C0004F08AFF06460C48C16B304637
:1005A00005F08CFE04460949D1F89C0005F058F886
:1005B00080F000460548816B304605F07FFE054619
:1005C000214605F08FFC0149086470BD88050020B4
:1005D00000BFFEE710B5024800F0BCFF10BD0000F0
:1005E0009401002010B5024800F0B4FF10BD0000D7
:1005F0005001002030B590F840500124AC40C56B4C
:100600006C60046863604468102C04D10468A260C4
:100610000468E16003E00468A1600468E26030BD42
:10062000704772B600BFFEE72DE9F04F85B08146F6
:1006300000F0DEFA04F05AFBFFF78CFFFE480021C1
:10064000426C7C3004F07EFBFB49886108464946D9
:10065000026C5C3004F076FBF749486104F0C2FF9D
:10066000F5480569014608694FF07C5105F026FE02
:100670008346F148C06880F0004AF049504605F0D2
:100680001DFE8046594605F021FF0646EA490869E5
:100690004FF07C5105F012FE8046E749C868E749F3
:1006A00005F00CFE8246414605F010FF0746E4487F
:1006B0000490E448049905F001FE8046E24905F003
:1006C0007FFC03900021384605F0C4FE02D24FF0B3
:1006D000010801E04FF000080021304605F0BAFEA5
:1006E00001D2012000E0002008EB4008002128464C
:1006F00005F0B0FE01D2012000E0002008EB8004EC
:10070000052C45D13846039905F0D8FD8346284687
:10071000039905F0D3FD02905846029905F0E2FBDB
:1007200001900499019805F095FE0FD20199049863
:1007300005F046FC82465946504605F0BFFD83460B
:100740005046029905F0BAFD029000BF5946049840
:1007500005F0BCFE0090029905F0B8FE82464FF00D
:10076000804105F02DFC80465846029905F0BAFB01
:100770008246414605F0B6FBAF49086541460298FE
:1007800005F0B0FBAC4948650846C0F858807FE1E9
:10079000042C49D187F000400190039905F08EFDAB
:1007A000824686F000400190039905F087FD83465C
:1007B0005946504605F096FB02900499029805F0C0
:1007C00049FE0FD20299049805F0FAFB01905146B8
:1007D000019805F073FD82465946019805F06EFDBB
:1007E000834600BF5146049805F070FE59460090BC
:1007F00005F06CFE4FF08041019005F0E1FB804672
:100800004146584605F06EFB8B49086559465046EF
:1008100005F068FB4146019005F064FB8649486598
:100820000846C0F8588033E1062C46D12846039983
:1008300005F044FD83463046039905F03FFD0290E4
:100840005846029905F04EFB01900499019805F075
:1008500001FE0FD20199049805F0B2FB8246594679
:10086000504605F02BFD83465046029905F026FDC3
:10087000029000BF5946049805F028FE00900299A6
:1008800005F024FE82464FF0804105F099FB80463A
:100890006948C0F850805846029905F023FB82460B
:1008A000414605F01FFB644948654146029805F042
:1008B00019FB014660488165EAE0022C49D185F0C8
:1008C00000400190039905F0F9FC824687F0004052
:1008D0000190039905F0F2FC83465946504605F015
:1008E00001FB02900499029805F0B4FD0FD2029921
:1008F000049805F065FB01905146019805F0DEFC77
:1009000082465946019805F0D9FC834600BF5146FE
:10091000049805F0DBFD5946009005F0D7FD4FF037
:100920008041019005F04CFB80464348C0F8508060
:100930004146584605F0D6FA3F4948655946504663
:1009400005F0D0FA4146019005F0CCFA3A498865A5
:100950009EE0032C45D13046039905F0AFFC834659
:100960003846039905F0AAFC02905846029905F012
:10097000B9FA01900499019805F06CFD0FD2019924
:10098000049805F01DFB82465946504605F096FC3A
:1009900083465046029905F091FC029000BF5946EB
:1009A000049805F093FD0090029905F08FFD8246B2
:1009B0004FF0804105F004FB80464146029805F067
:1009C00091FA1D4908650846C0F8548058460299B6
:1009D00005F088FA8246414605F084FA1649886592
:1009E00056E0012C54D186F000400190039905F0A7
:1009F00065FC824685F000400190039905F05EFC9D
:100A000083465946504605F06DFA029004990298C3
:100A100005F020FD0FD20299049805F0D1FA01905B
:100A20005146019805F04AFC82465946019805F066
:100A300045FC834600BF09E088050020D7B35D3F31
:100A40000000E1443ACD933F0000C0415146049874
:100A500005F03CFD5946009005F038FD4FF080410F
:100A6000019005F0ADFA80465946504605F03AFA35
:100A70004146019005F036FA164908650846C0F867
:100A800054804146584605F02DFA1249886500BF4A
:100A90001049886D05F0A6FB1FFA80F80D49486DD6
:100AA00005F0A0FB1FFA80FA0A49086D05F09AFBD1
:100AB0001FFA80FB42465146584604F0CDF904F037
:100AC000A3F9044981F8480004F0E8F905B0BDE84D
:100AD000F08F00008805002070B5A0211148FFF7B5
:100AE000EAFB11490F487C3004F066F90E490D48C5
:100AF0005C3004F061F904F00FFA0A49886D05F0E2
:100B000071FB84B20749486D05F06CFB85B205495D
:100B1000086D05F067FB86B222462946304604F090
:100B20009BF970BD88050020400000202DE9F041B0
:100B300000F040F804461B480168204605F0C6FC5A
:100B40000746384605F0A2F921F0004105464FF06E
:100B50000042154B05F07AF80DD20021384605F019
:100B600079FC02D24FF0FF3000E001200F49096804
:100B700008440E4908600B4804600C48006805F002
:100B800051FB80464FF0804105F098FB064608492E
:100B900005F094FB054603480168284605F0A2F9D4
:100BA000BDE8F081880000202F1B14408C0000203D
:100BB000DB0F49402DE9F0410B4840780A4909789C
:100BC00040EA012005B2284605F02CFB07460749FC
:100BD00005F074FB06464FF08B4105F0F1F9044631
:100BE0002046BDE8F081000090000020DB0FC940E6
:100BF0002DE9F041624890F84900032804D0052807
:100C00007DD006287AD13CE001215E4800F0EBF966
:100C10005D498988401A06B2304605F003FB054657
:100C20004FF06B5105F04AFB044605F02FF9544A8A
:100C3000C2E90A010121554800F0D5F95249098855
:100C4000401A06B2304605F0EDFA05464FF06B51FA
:100C500005F034FB044605F019F9494AC2E90C01D4
:100C60001146D1E90A4181F000451146D1E90C63F2
:100C700032462046294605F01FF8414AC2E90801DC
:100C80007AE001213F4800F0AEF93F49C988401A97
:100C900006B2304605F0C6FA05464FF06B5105F036
:100CA0000DFB044605F0F2F8354AC2E908010121BE
:100CB000364800F098F934494988401A06B230465F
:100CC00005F0B0FA05464FF06B5105F0F7FA04460F
:100CD00005F0DCF82A4AC2E90A011146D1E90841C7
:100CE00081F000411046D0E90A633246204604F004
:100CF000E3FF234AC2E90C013EE000E03BE00121B2
:100D0000204800F070F92049C988401A06B23046E0
:100D100005F088FA05464FF06B5105F0CFFA04460E
:100D200005F0B4F8164AC2E908010121174800F09D
:100D30005AF915490988401A06B2304605F072FA88
:100D400005464FF06B5105F0B9FA044605F09EF8E0
:100D50000B4AC2E90C011146D1E9084181F000417A
:100D60001046D0E90C633246204604F0A5FF044A41
:100D7000C2E90A0100E000BF00BFBDE8F081000049
:100D800088050020CC000020540000209C0000209A
:100D900038B50246002300200090906800B100BFE3
:100DA00000BF92F82400012801D1022038BD0120A3
:100DB00082F8240000BF906890B94868012809D1E2
:100DC0001068806B6FF315000C6840EAC43014683B
:100DD000A06338E0906A40F020009062012332E086
:100DE0000C694868A0421ED84C680869001BC0F115
:100DF000030000EB80041F20A04040F44014106862
:100E0000806BA0434D680C69641BC4F1030404EBC0
:100E100084050C68AC400D8A6D1E44EA05542043DD
:100E20001468A0630FE04C680869001BC0F1030060
:100E300000EB80041F20A04040F440141068806B39
:100E4000A0431468A0631068806800F0010040B9F6
:100E50001068806847F20104A0438C69204314683D
:100E6000A060487D01280FD18869B0F5E04F06D118
:100E70001068406840F480601468606004E0906A24
:100E800040F0200090620123087D01280DD1487DAB
:100E900030B91068406840F480501468606004E025
:100EA000906A40F020009062012308680A2812D35B
:100EB0001068C0680C780A3C04EB44050724AC4079
:100EC000A0430D780A3D05EB45058C68AC402043F6
:100ED0001468E0600FE0106800690C7804EB4405CA
:100EE0000724AC40A0430D7805EB45058C68AC4069
:100EF0002043146820610868102802D0086811286F
:100F000005D11068806840F400001468A06048684B
:100F1000012806D002280DD0032814D004281BD1A4
:100F20001BE0106840696FF30B00CC682043146825
:100F300060611BE0106880696FF30B00CC68204390
:100F40001468A06112E01068C0696FF30B00CC68F0
:100F500020431468E06109E000BF1068006A6FF385
:100F60000B00CC6820431468206200BF00BF0868F3
:100F7000102802D00868112827D1174C1068A04209
:100F80001ED11068806800F40000F0B91068806815
:100F900040F400001468A0600868102815D10F48BC
:100FA00000680F4CB0FBF4F000EB800040000090B4
:100FB00002E00098401E009000980028F9D104E05B
:100FC000906A40F020009062012300BF002082F868
:100FD000240000BF1846E9E6002401403C00002040
:100FE00040420F0070470246002001290FD002291D
:100FF00009D0032904D0042908D11368986C09E0AA
:101000001368586C06E01368186C03E000BF13689F
:10101000D86B00BF00BF704770B50446002500BF05
:1010200094F82400012801D1022070BD012084F829
:10103000240000BF2046FFF735FA0546002D55D1A4
:10104000A06A42F20101884340F48050A0622B491B
:101050002068884208D12A48006800F4702008B946
:10106000012002E0002000E0012020B1A06A20F46D
:101070008010A06203E0A06A40F48010A062A06A21
:1010800000F4807008B90020E06200BF002084F8FE
:10109000240000BF401F216808602068406800F4F9
:1010A000806010BB2068806800F4E040B0F5E04F3D
:1010B00015D112492068884208D11148006800F40F
:1010C000702008B9012002E0002000E0012030B1CA
:1010D0002068806840F40210216888600BE0206876
:1010E000806840F400402168886004E000BF002070
:1010F00084F8240000BF284697E70000002801403C
:1011000004240140704770B50446206805682068D3
:10111000466806F0200020282DD105F002000228A4
:1011200029D1A06A00F0100018B9A06A40F400703C
:10113000A0622068806800F46020B0F5602F13D1B1
:10114000207B88B92068406820F020002168486032
:10115000A06A20F48070A062A06A00F4805018B9E0
:10116000A06A40F00100A0622046FFF7CBFF6FF0BD
:1011700012002168086006F08000802839D105F04F
:101180000400042835D1A06A00F0100018B9A06A44
:1011900040F40050A0622068806800F4E040B0F5A0
:1011A000E04F0DD02068406800F48060D0B920681E
:1011B000806800F46020B0F5602F13D1207B88B9DF
:1011C0002068406820F0800021684860A06A20F410
:1011D0008050A062A06A00F4807018B9A06A40F044
:1011E0000100A0622046FFF7FDFE6FF00C002168B1
:1011F000086006F0400040280DD105F0010050B114
:10120000A06A40F48030A062204600F0A7F86FF09A
:1012100001002168086070BD2DE9F04104460027F7
:1012200000250026A84614B90120BDE8F081A06879
:1012300010B1207D00B100BFA06A30B90020E0628B
:1012400084F82400204600F08BF82046FFF7FCF8D5
:101250000746A06A00F01000002873D1002F71D15A
:10126000A06A20F4885040F00200A062E169606842
:101270000843217B40EA41000643A068B0F5807F27
:1012800002D0A068012802D14FF4807000E0002055
:101290000543207D012811D1207B38B9A069401E6B
:1012A0004FF4006141EA4030054307E0A06A40F096
:1012B0002000A062E06A40F00100E062206840681F
:1012C00020F46940284321684860206880682149EB
:1012D0000840304321688860A068B0F5807F02D064
:1012E000A068012802D14FF4807000E00020B0F522
:1012F000807F03D1208A401E4FEA00582068C06AD0
:1013000020F4700040EA08002168C8622068806804
:1013100011490840B04208D10020E062A06A20F0E4
:10132000020040F00100A06211E0A06A20F002007B
:1013300040F01000A062E06A40F00100E062012786
:1013400005E0FFE7A06A40F01000A06201273846E0
:101350006BE70000FDF7E1FFFE0E1FFF7047000086
:1013600010B586B0044600200290039004900590CA
:1013700045492068884240D100BF4448806940F414
:101380000070424988610846806900F4007001904D
:1013900000BF00BF00BF0846806940F004008861BC
:1013A0000846806900F00400019000BF00BF00BF44
:1013B0000846806940F0080088610846806900F0AE
:1013C0000800019000BF00BF60200290032003903E
:1013D00002A92F4800F022FA012002900320039076
:1013E00002A92C4800F01AFA00221146122001F03E
:1013F00049F8122001F036F843E027492068884276
:101400003FD100BF2148806940F480601F49886156
:101410000846806900F48060019000BF00BF00BFF3
:101420000846806940F0040088610846806900F041
:101430000400019000BF00BF00BF0846806940F073
:10144000080088610846806900F00800019000BF2C
:1014500000BFC02002900320039002A90C4800F0B6
:10146000DDF9012002900320039002A9094800F051
:10147000D5F900221146122001F004F8122000F0E4
:10148000F1FF06B010BD0000002401400010024032
:1014900000080140000C01400028014070B50446DE
:1014A000002594F82100022803D00420A063012520
:1014B00048E02068006820F00E002168086020687D
:1014C000006820F00100216808601F4920688842F8
:1014D00001D1012026E01C4914312068884201D145
:1014E00010201FE0184928312068884201D180155A
:1014F00018E015493C312068884201D1801411E080
:10150000114950312068884202D14FF4803009E0FF
:101510000D4964312068884202D14FF4801001E007
:101520004FF08070084908394860012084F8210094
:1015300000BF002084F8200000BF606B10B120467F
:10154000616B8847284670BD08000240014691F84B
:101550002100704770B50446E06B05682068066896
:1015600094F84010042088402840002846D006F017
:101570000400002842D02068006800F0200028B94C
:101580002068006820F0040021680860574920683E
:10159000884201D1042027E0544914312068884250
:1015A00001D1402020E0514928312068884201D1F2
:1015B000001519E04D493C312068884202D14FF4B2
:1015C000804011E0494950312068884202D14FF4EF
:1015D000802009E0454964312068884202D14FF4F7
:1015E000800001E04FF08060404908394860E06ABF
:1015F00000287AD02046E16A884776E094F84010C7
:10160000022088402840A0B306F0020088B320687A
:10161000006800F0200040B92068006820F00A004F
:1016200021680860012084F8210030492068884240
:1016300001D1022028E02D4914312068884201D1CF
:10164000202021E0294928312068884201D1401515
:101650001AE026493C312068884202D14FF40050FC
:1016600012E0224950312068884203D14FF4003003
:101670000AE017E01D4964312068884202D14FF426
:10168000001001E04FF0007018490839486000BFB1
:10169000002084F8200000BFA06A30B32046A16A71
:1016A000884722E094F84010082088402840E0B1A4
:1016B00006F00800C8B12068006820F00E0021681C
:1016C000086094F8401001208840E16B48600120D8
:1016D000A06384F8210000BF002084F8200000BF30
:1016E000206B10B12046216B884770BD0800024076
:1016F0000146002209B901207047164B0868C01A3C
:101700001423B0FBF3F08000086412480838C86363
:10171000022081F821000868026843F6F0708243D5
:10172000D1E901031843CB6818430B6918434B698F
:1017300018438B691843CB69184302430868026059
:1017400000208863012081F82100002081F820001A
:1017500000BFD1E7080002402DE9F04104460D46E4
:1017600016461F464FF0000800BF94F820000128DD
:1017700002D10220BDE8F081012084F8200000BFE2
:1017800094F8210001282CD1022084F821000020A7
:10179000A0632068006820F00100216808603B46D3
:1017A000324629462046FEF725FFE06A30B1206820
:1017B000006840F00E00216808600BE020680068B7
:1017C00020F00400216808602068006840F00A00EA
:1017D000216808602068006840F001002168086006
:1017E00006E000BF002084F8200000BF4FF0020890
:1017F0004046BFE770B5044600F0A0F9064625460E
:10180000681C10B104480078054400BF00F096F948
:10181000801BA842FAD370BD380000202DE9F8479C
:101820000346002294466EE14FF0010808FA02F4E4
:10183000D1F8008008EA0400A0427DD1DFF8DCA2E4
:10184000D1F80480A8EB0A09D0453AD014DCB8F1ED
:10185000030F50D009DCB8F1000F31D0B8F1010FFF
:101860001CD0B8F1020F49D120E0B8F1110F18D007
:10187000B8F1120F42D11EE0B9F5881F25D006DC61
:10188000B9F5803F20D0B9F5801F37D11AE0B9F5FE
:10189000001F18D0B9F5041F30D117E0D1F80CC0E3
:1018A0002DE0D1F80C8008F1040C28E0D1F80C8070
:1018B00008F1080C23E0D1F80C8008F10C0C1EE0B4
:1018C00000BF00BF00BF00BF00BF00BFD1F808804D
:1018D000B8F1000F02D14FF0040C0BE0D1F80880F2
:1018E000B8F1010F03D14FF0080C1C6102E04FF07A
:1018F000080C5C6103E04FF0000C00E000BF00BF8B
:10190000FF2801D8984601E003F104084646FF2865
:1019100002D84FEA820803E0A2F108084FEA8808DB
:101920004746D6F800804FF00F0909FA07F928EA70
:1019300009080CFA07F900E088E048EA0908C6F847
:101940000080D1F8048008F08058B8F1805F7DD124
:1019500000BFDFF8CC81D8F8188048F00108DFF824
:10196000C091C9F81880C846D8F8188008F0010856
:10197000CDF8008000BF00BF4FEAB9384FEA9209A6
:1019800058F829504FEA82784FEA18794FF00F083B
:1019900008FA09F825EA0805DFF88881434502D1ED
:1019A0004FF0000816E0DFF88081434502D14FF088
:1019B00001080FE0DFF87481434502D14FF00208BF
:1019C00008E0DFF86C81434502D14FF0030801E0E5
:1019D0004FF004084FEA82794FEA197908FA09F8BA
:1019E00048EA0505DFF84C814FEA920948F829508A
:1019F000D1F8048008F48018B8F5801F0AD1DFF808
:101A00003881D8F8008048EA0008DFF82C91C9F83E
:101A1000008009E0DFF82081D8F8008028EA00087B
:101A2000DFF81491C9F80080D1F8048008F4001898
:101A3000B8F5001F10D1DFF8008108F10408D8F8CC
:101A4000008048EA0008DFF8F09000E05AE009F171
:101A50000409C9F800800DE0DFF8DC8008F1040813
:101A6000D8F8008028EA0008DFF8CC9009F10409D2
:101A7000C9F80080D1F8048008F40038B8F5003FB8
:101A80000ED1DFF8B480A8F10408D8F8008048EA45
:101A90000008DFF8A490A9F10409C9F800800DE05E
:101AA000DFF89480A8F10408D8F8008028EA00083C
:101AB000DFF88490A9F10409C9F80080D1F8048006
:101AC00008F48038B8F5803F0ED1DFF86C80A8F1BB
:101AD0000808D8F8008048EA0008DFF85C90A9F10F
:101AE0000809C9F800800DE0DFF84C80A8F108086B
:101AF000D8F8008028EA0008DFF83C90A9F108092E
:101B0000C9F80080521CD1F8008028FA02F8B8F118
:101B1000000F7FF489AEBDE8F887000000001110C7
:101B20000010024000080140000C0140001001407C
:101B30000014014008000140080401400148006809
:101B40007047000030000020704770472DE9F84FC3
:101B50000446206847692068D0F80480002594F87E
:101B60003E90C7F3002070B1C8F3002058B145F093
:101B700001056FF48070216848612068006840F4B6
:101B8000004021680860C7F3402040B1C8F300203E
:101B900028B145F002056FF4007021684861C7F371
:101BA000802070B3C8F3002058B3CA46B4F82AB0F6
:101BB00094F83D60206B0090BAF1200F0FD1BBF17B
:101BC000000F0CD1212E06D0292E04D0282E06D1AC
:101BD0000098212803D1204602F092FC11E06FF416
:101BE00080602168486145F00405B9F1100F02D00A
:101BF000B9F1400F05D12068006840F400702168F9
:101C00000860C7F3C02040B1C8F3002028B145F0F8
:101C100008056FF40060216848612DB1206C2843ED
:101C20002064204601F052FEBDE8F88F2DE9F04710
:101C300005464FF0000928684668D5F82CA095F8AD
:101C40003E7095F83D80102F01D0402F75D1286847
:101C5000D0F818902868446904F0010060B9BAF51A
:101C60002A0F02D0BAF12A4F01D1012000E0002052
:101C7000012801D1BDE8F08704F0010048B1C6F3A6
:101C8000402030B1284601F0CBFC284602F03EFA55
:101C9000B7E0C4F3C00030B1C6F3402018B1284605
:101CA00002F0DFF8ADE0C4F3400030B1C6F34020ED
:101CB00018B1284602F0EAF8A3E0C9F3800040B367
:101CC0002868406800F40060B0F5006FE0D0C4F30D
:101CD000C01048B1C6F3802030B1C4F3800018B9F9
:101CE000284602F052F88CE0C4F380000028CFD0E0
:101CF000C6F340200028CBD0B8F1210F03D12846ED
:101D000001F0F3FF7DE0402F7BD1284602F04DFA31
:101D100077E02868406800F40060B0F5006F70D08C
:101D2000C4F3801050B1C6F3802038B1C4F38000F2
:101D300020B9284601F057FF63E00BE0C4F38000B0
:101D400000285ED0C6F3402000285AD0284601F073
:101D5000B2FE56E0286C10B12868446904E0286897
:101D6000D0F8189028684469C4F3400060B1C6F305
:101D7000402048B1286C10B12868D0F81890494626
:101D8000284602F085FB3CE0C4F3001030B1C6F3F6
:101D9000402018B1284602F007FC32E0B8F1210FCC
:101DA00002D0B8F1290F16D1C4F3C01048B1C6F360
:101DB000802030B1C4F3800018B9284602F045FBFA
:101DC0001FE0C4F38000E0B1C6F34020C8B128464C
:101DD00002F02EFB15E0C4F3801048B1C6F380205A
:101DE00030B1C4F3800018B9284602F0FEFA08E0CA
:101DF000C4F3800028B1C6F3402010B1284602F099
:101E0000E7FA00BF36E7704770B504460CB9012009
:101E100070BD94F83D0028B9002084F83C002046AD
:101E200000F02AFA242084F83D002068006820F0A1
:101E30000100216808602068006840F400402168C3
:101E400008602068006820F400402168086000F005
:101E5000CFFC05465C496068884206D85B488542ED
:101E600001D2012007E0002005E05948854201D257
:101E7000012000E00020012800D1C9E75548B5FB4A
:101E8000F0F62068406820F03F0030432168486049
:101E90004D496068884201D8701C07E04FF4967085
:101EA00070434FF47A71B0FBF1F0401C2168096A6D
:101EB00021F03F0108432168086243496068884275
:101EC00014D8681E61684900B0FBF1F0401CC0F3F3
:101ED0000B00042801D204203DE0681E616849001F
:101EE000B0FBF1F0401CC0F30B0034E0A06838B93F
:101EF000681E616801EB4101B0FBF1F0401C0AE093
:101F0000681E616801EBC10202EB0111B0FBF1F048
:101F1000401C40F48040C0F30B0008B901201AE0D7
:101F2000A06848B9681E616801EB4101B0FBF1F09F
:101F3000401CC0F30B000CE0681E616801EBC1029D
:101F400002EB0111B0FBF1F0401CC0F30B0040F4B8
:101F5000804040F400402168C9694CF6FF7291430B
:101F600008432168C861D4E907010843216809686A
:101F700021F0C001084321680860D4E90310084338
:101F80002168896848F2FF329143084321688860DC
:101F9000D4E9050108432168C96821F0FF0108431D
:101FA0002168C8602068006840F00100216808606E
:101FB00000202064202084F83D000020206384F865
:101FC0003E0000BF24E70000A086010080841E00C0
:101FD00000093D0040420F00704770477047000005
:101FE00010B504460849206888420CD1FEF7E2FD8E
:101FF00006490860FEF79AFD054908600222054976
:102000000C20FEF797FA10BD005400409400002009
:102010009800002090000020704700002DE9FE4F3E
:1020200004460E4617469846DDE90CABFFF786FDE1
:1020300081460020029094F83D00202875D18A48FE
:1020400000681921B0FBF1F04FF47A71B0FBF1F0A8
:1020500000EBC00101EB0010029000BF0298401E8F
:102060000290029870B900202063202084F83D007F
:10207000002084F83E00206C40F020002064022004
:10208000BDE8FE8F20688069C0F340000028E5D1DC
:1020900000BF94F83C00012801D10220F0E70120A4
:1020A00084F83C0000BF2068006800F0010028B9F7
:1020B0002068006840F0010021680860206800681E
:1020C00020F4006021680860222084F83D00402050
:1020D00084F83E0000202064C4F824A0A4F82AB0AC
:1020E000608D20856148E0626664A764C4F84C8016
:1020F00000202065208D00287AD0A06BB0B15C480C
:10210000A16B88625B48A16B08630020A16BC86269
:10211000A16B4863238DD4F800C00CF11001626AF2
:10212000A06BFFF719FB054611E09AE0202084F828
:102130003D00002084F83E00206C40F080002064C8
:1021400000BF002084F83C0000BF012098E7002D6C
:102150004FD1232043463A463146CDE90009204677
:1021600002F086F8B8B1A06BFFF798F90546002099
:10217000A16B88622068006820F480602168086094
:102180000020208560852068006820F0010021681B
:102190000860012074E7208D012806D120680068BE
:1021A00020F480602168086005E02068406840F401
:1021B00080502168486000BF00200190206840697D
:1021C000019020688069019000BF00BF00BF00201F
:1021D00084F83C0000BF2068406840F480702168AB
:1021E00048602068406840F400602168486036E03C
:1021F00010E0202084F83D00002084F83E00206C90
:1022000040F01000206400BF002084F83C0000BFB4
:10221000012035E7232043463A463146CDE90009FF
:10222000204602F025F808B1012029E700BF002070
:10223000019020684069019020688069019000BF8A
:1022400000BF2068006840F400702168086020200A
:1022500084F83D0000BF002084F83C0000BF00204F
:102260000EE702200CE700003C0000200000FFFF0A
:102270007B3700083537000810B586B004460020CB
:10228000029003900490059037492068884268D1F5
:1022900000BF3648806940F008003449886108462C
:1022A000806900F00800019000BF00BFC0200290CC
:1022B000122003900320059002A92D48FFF7AEFAE3
:1022C00000BF2A48C06940F400102849C861084688
:1022D000C06900F40010019000BF00BF25482649E6
:1022E0000860002048600021234881608021C1608F
:1022F0000021016141618161C161FFF7F9F908B114
:10230000FEF78FF900BF1C48A063446200BF194864
:1023100014381A490860102048600021174881606D
:102320008021C1600021016141618161C161FFF7CC
:10233000DFF908B1FEF775F900BF10486063446229
:1023400000BF002211461F2000F09CF81F2000F063
:1023500089F800221146202000F094F8202000F097
:1023600081F806B010BD000000540040001002408B
:10237000000C014080000240500100209401002028
:1023800070477047034800680349097808440149C9
:1023900008607047300000203800002010B5084861
:1023A000006840F0100006490860032000F0A8F81B
:1023B0000F2000F007F800F02BF8002010BD0000FF
:1023C0000020024070B504460E4800784FF47A7140
:1023D000B1FBF0F00C490968B1FBF0F5284600F0BC
:1023E00081FC08B1012070BD102C07D200222146CB
:1023F000501E00F047F80548046001E00120F2E7B4
:102400000020F0E7380000203C00002034000020CD
:1024100008B500BF1148806940F001000F4988618C
:102420000846806900F00100009000BF00BF00BFB7
:102430000846C06940F08050C8610846C06900F095
:102440008050009000BF00BF00BF0549486820F0E1
:10245000E06040F00070486000BF08BD001002401E
:102460000000014001460846002809DB00F01F0378
:1024700001229A4043099B0003F1E023C3F80021A5
:1024800000BF70472DE9F05F80460D4616460027D5
:1024900002F0F0FF074639462A46334601F00700AE
:1024A000C0F1070ABAF1040F02D94FF0040A01E0A3
:1024B000C0F1070AD14600F1040ABAF1070F02D2AF
:1024C0004FF0000A01E0A0F1030AD4464FF0010AE0
:1024D0000AFA09FAAAF1010A0AEA020A0AFA0CFA45
:1024E0004FF0010B0BFA0CFBABF1010B0BEA030BEA
:1024F0004AEA0B042146404602F0C4FFBDE8F09FC3
:1025000000BF00F00702064B19684FF6FF031940A1
:10251000044B0B4343EA0221014B196000BF704793
:102520000CED00E00000FA05F8B504460026002591
:10253000207800F0010000286BD000274348C069D4
:1025400000F0805070B900BF4048C06940F0805032
:102550003E49C8610846C06900F08050009000BF45
:1025600000BF01273A48006800F48070B0B93848CD
:10257000006840F4807036490860FFF7DFFA0646CD
:1025800006E0FFF7DBFA801B642801D90320F8BDC1
:102590002F48006800F480700028F2D02B48006AB1
:1025A00000F440752DB3A08800F44070A84220D0FC
:1025B0002648006A20F44075012026490860002062
:1025C00008602248056205F0010090B1FFF7B6FAF5
:1025D000064608E0FFF7B2FA801B41F288318842D4
:1025E00001D90320D3E71948006A00F0020000284F
:1025F000F0D01648006A20F440706168084313491F
:102600000862012F04D10846C06920F08050C861DB
:1026100000BF207800F00200022807D10B48406874
:1026200020F44040A168084308494860207800F041
:102630001000102807D10548406820F48000E168A8
:102640000843024948600020A1E700000010024052
:10265000007000404004424270B504460D460CB97B
:10266000012070BD5A48006800F00700A8420ED251
:102670005748006820F0070028435549086008467D
:10268000006800F00700A84201D00120E9E72078A7
:1026900000F0020002281DD1207800F00400042878
:1026A00005D14C48406840F4E0604A4948602078D1
:1026B00000F00800082805D14648406840F4605002
:1026C000444948604348406820F0F000A16808434E
:1026D00040494860207800F0010078B36068012824
:1026E00006D13C48006800F4003090B90120B8E7FA
:1026F0006068022806D13748006800F0007040B9D1
:102700000120AEE73348006800F0020008B901205C
:10271000A7E73048406820F00300616808432D496E
:102720004860FFF70BFA064609E0FFF707FA801B3F
:1027300041F28831884202D9032092E707E0254818
:10274000406800F00C006168B0EB810FEDD12048CB
:10275000006800F00700A8420ED91D48006820F06C
:10276000070028431A4908600846006800F007007F
:10277000A84201D0012074E7207800F0040004286A
:1027800007D11448406820F4E060E168084311492B
:102790004860207800F00800082808D10D484068FB
:1027A00020F46050216940EAC1000A49486000F005
:1027B0002FF808494968C1F30311074A515CC84022
:1027C0000649086006480068FFF7FCFD002048E75E
:1027D0000020024000100240C86500083C000020B4
:1027E0003400002001480068704700003C000020D1
:1027F00000B5FFF7F7FF04494968C1F30221034A16
:10280000515CC84000BD000000100240D8650008BF
:1028100070B500210022002400230020134D6968B8
:1028200001F00C05F5B1042D02D0082D19D101E0FD
:102830000F4819E00F4DC1F38346AB5D01F48035BD
:1028400055B10A4D6D68C5F340450B4E725D084D9C
:102850005D43B5FBF2F402E0084D03FB05F42046AE
:1028600002E000BF024800BF00BF70BD0010024080
:1028700000127A00B6650008C665000800093D0030
:10288000F8B504460CB90120F8BD207800F001002D
:10289000002878D0F848406800F00C0004280CD0DC
:1028A000F548406800F00C00082811D1F248406853
:1028B00000F48030B0F5803F0AD1EF48006800F4A2
:1028C000003000285FD0606800285CD10120DBE781
:1028D00000BF6068B0F5803F06D1E748006840F46B
:1028E0008030E549086028E0606858B9E24800682F
:1028F00020F48030E04908600846006820F4802019
:1029000008601AE06068B0F5A02F0BD1DA480068C3
:1029100040F48020D84908600846006840F48030C0
:1029200008600AE0D448006820F48030D24908608A
:102930000846006820F48020086000BF606888B105
:10294000FFF7FCF8054606E0FFF7F8F8401B64289F
:1029500001D9032098E7C848006800F40030002837
:10296000F2D010E0FFF7EAF8054606E0FFF7E6F8D8
:10297000401B642801D9032086E7BF48006800F4A3
:1029800000300028F2D1207800F00200022857D150
:10299000B948406800F00C0050B1B748406800F0FA
:1029A0000C00082818D1B448406800F4803098B969
:1029B000B148006800F0020020B12069012801D070
:1029C000012061E7AC48006820F0F800616940EA46
:1029D000C100A949086033E02069E8B10120A74996
:1029E0000860FFF7ABF8054606E0FFF7A7F8401BC5
:1029F000022801D9032047E79F48006800F0020041
:102A00000028F2D09C48006820F0F800616940EA94
:102A1000C1009949086013E0002098490860FFF759
:102A20008DF8054606E0FFF789F8401B022801D91A
:102A3000032029E79048006800F002000028F2D146
:102A4000207800F0080008282DD1A069B8B1012035
:102A50008B490860FFF772F8054606E0FFF76EF84D
:102A6000401B022801D903200EE78348406A00F08A
:102A700002000028F2D0012002F0B0F913E000209B
:102A80007F490860FFF75AF8054606E0FFF756F859
:102A9000401B022801D90320F6E67748406A00F07F
:102AA00002000028F2D1207800F00400042873D13D
:102AB00000277148C06900F0805070B900BF6E48AF
:102AC000C06940F080506C49C8610846C06900F098
:102AD0008050009000BF00BF01276A48006800F4E2
:102AE0008070B0B96748006840F48070654908603C
:102AF000FFF724F8054606E0FFF720F8401B64289E
:102B000001D90320C0E65F48006800F48070002807
:102B1000F2D000BFE068012806D15748006A40F0B3
:102B200001005549086227E0E06858B95248006A38
:102B300020F00100504908620846006A20F00400B5
:102B4000086219E0E06805280BD14B48006A40F0A4
:102B50000400494908620846006A40F00100086222
:102B60000AE04548006A20F001004349086208462F
:102B7000006A20F00400086200BFE068A0B1FEF720
:102B8000DDFF054609E0FEF7D9FF401B41F2883121
:102B9000884202D9032077E622E03748006A00F035
:102BA00002000028EFD012E0FEF7C8FF054608E05B
:102BB000FEF7C4FF401B41F28831884201D903204F
:102BC00062E62D48006A00F002000028F0D1012FD3
:102BD00005D12948C06920F080502749C86100BF4D
:102BE000E069C8B32448406800F00C00082860D0B1
:102BF000E069022848D1002020490866FEF79EFFC0
:102C0000054606E0FEF79AFF401B022801D9032083
:102C10003AE61948006800F000700028F2D1206AF6
:102C2000B0F5803F07D11448406820F40030A16817
:102C3000084311494860D4E9080108430E4949682E
:102C400021F4741108430C49486001200B490866BF
:102C5000FEF774FF054607E03DE0FEF76FFF401BFF
:102C6000022801D903200FE60348006800F0007035
:102C70000028F2D02FE00000001002400000424285
:102C80008004424200700040002014490866FEF7AC
:102C900055FF054606E0FEF751FF401B022801D90B
:102CA0000320F1E50E48006800F000700028F2D122
:102CB00011E0E069012800D1E6E50948466806F41C
:102CC0008031206A814204D106F47011606A814229
:102CD00001D00120D8E50020D6E5000000004242E6
:102CE0000010024070B504462546681EB0F1807F92
:102CF00001D301200FE0681E4FF0E02148610F2151
:102D00004FF0FF3002F0BEFB00204FF0E021886161
:102D100007200861002070BD7047704710B503465A
:102D2000002200BF93F83C00012801D1022010BD11
:102D3000012083F83C0000BF22F0FF00CC6840EA8D
:102D4000040222F440708C6840EA040222F480609D
:102D50004C6840EA040222F400600C6840EA040275
:102D600022F480500C6940EA040222F400504C69BD
:102D700040EA040222F48040CC6940EA0402186868
:102D8000426400BF002083F83C0000BF00BFCEE7D4
:102D900030B502460B4600BF92F83C00012801D135
:102DA000022030BD012082F83C0000BF022082F8E2
:102DB0003D00106844681068816824F07004186849
:102DC000044310684460104D1068A8420BD010688E
:102DD000B0F1804F07D00D4D1068A84203D00C4DC4
:102DE0001068A84205D121F080015868014310689D
:102DF0008160012082F83D0000BF002082F83C0085
:102E000000BF00BFCDE70000002C014000040040DF
:102E10000008004070B504460D4615B994F842000C
:102E20000BE0042D02D14320005D06E0082D02D105
:102E30004420005D01E04520005D012801D0012013
:102E400070BD1DB9022084F842000EE0042D03D1AC
:102E500002214320015508E0082D03D1022144201E
:102E6000015502E00221452001550422294620682F
:102E700002F0F5F92068406C40F400402168486495
:102E80001249206888420BD02068B0F1804F07D0EB
:102E90000F492068884203D00E49206888420CD12F
:102EA0002068806800F00706062E0CD020680068B5
:102EB00040F001002168086005E02068006840F0EB
:102EC0000100216808600020BAE70000002C0140E2
:102ED000000400400008004010B504460CB9012071
:102EE00010BD94F83D0028B9002084F83C0020462D
:102EF00000F026F8022084F83D00211D206802F031
:102F00005BF9012084F8460000BF84F83E000121EF
:102F10003F200155402001554120015500BF00BF11
:102F2000012084F8420043200155442001554520EA
:102F3000015500BF012084F83D000020D0E70000CB
:102F400038B504460D492068884215D100BF0C48A9
:102F5000806940F400600A4988610846806900F48D
:102F60000060009000BF00BF002211461920FFF74B
:102F700089FA1920FFF776FA38BD0000002C0140CD
:102F800000100240014691F83D00012801D00120C7
:102F90007047022081F83D00124B086898420BD020
:102FA0000868B0F1804F07D00F4B0868984203D0F3
:102FB0000E4B086898420CD10868806800F0070240
:102FC000062A0CD00868006840F001000B68186001
:102FD00005E00868006840F001000B6818600020F8
:102FE000D6E70000002C014000040040000800402B
:102FF000014691F83D00012801D0012070470220D0
:1030000081F83D000868C06840F001000B68D86096
:10301000124B086898420BD00868B0F1804F07D077
:103020000F4B0868984203D00E4B086898420CD1A9
:103030000868806800F00702062A0CD0086800685B
:1030400040F001000B68186005E00868006840F077
:1030500001000B6818600020D0E70000002C014040
:1030600000040040000800402DE9F04104460D46F0
:10307000002700BF94F83C00012802D10220BDE8DF
:10308000F081012084F83C0000BF022084F83D005C
:103090002068866826F0770626F47F4620688660DA
:1030A0002868502833D00CDC202850D004DC0028BD
:1030B0004BD0102851D149E0302849D040284CD17C
:1030C00039E060282DD0702807D0B0F5805F03D09C
:1030D000B0F5005F41D10DE041E0D5E902136A6827
:1030E000206802F0CDF82068866846F077062068F0
:1030F000866034E0D5E902136A68206802F0C0F8FF
:103100002068806840F480402168886027E0EA6891
:103110006968206802F084F95021206802F0BBF849
:103120001DE0EA686968206802F08DF96021206876
:1031300002F0B1F813E0EA686968206802F070F9FB
:103140004021206802F0A7F809E000BF00BF00BFDF
:103150002968206802F09FF801E0012700BF00BF46
:10316000012084F83D0000BF002084F83C0000BF2F
:10317000384684E7704770B504462068C568206803
:10318000066906F00200022819D105F002000228A3
:1031900015D1401F216808610120207720688069CF
:1031A00000F0030018B12046FFF7E4FF05E02046D9
:1031B00000F0E0F8204600F0B3F90020207706F098
:1031C0000400042819D105F00400042815D1C043D7
:1031D00021680861022020772068806900F440702F
:1031E00018B12046FFF7C6FF05E0204600F0C2F800
:1031F000204600F095F90020207706F00800082806
:1032000019D105F00800082815D1C04321680861CC
:10321000042020772068C06900F0030018B1204620
:10322000FFF7A8FF05E0204600F0A4F8204600F0D4
:1032300077F90020207706F01000102819D105F04A
:103240001000102815D1C04321680861082020779C
:103250002068C06900F4407018B12046FFF78AFF6B
:1032600005E0204600F086F8204600F059F90020DD
:10327000207706F0010048B105F0010030B16FF091
:10328000010021680861204600F0B6F906F08000D0
:10329000802809D105F08000802805D1C04321682D
:1032A00008612046FFF738FD06F04000402809D1AC
:1032B00005F04000402805D1C04321680861204640
:1032C00000F09BF906F02000202809D105F020002D
:1032D000202805D1C043216808612046FFF71DFD65
:1032E00070BD000010B586B0044600200290039027
:1032F000049005901B492068884230D100BF1A48CD
:10330000806940F00800184988610846806900F02B
:103310000800019000BF00BF00BF0846806940F070
:10332000040088610846806900F00400019000BF35
:1033300000BF4FF4604002900220039003200590EC
:1033400002A90A48FEF76AFA4FF4E06002900220F0
:1033500003900320059002A90548FEF75FFA06B026
:1033600010BD0000002C014000100240000C014084
:103370000008014070472DE9F04104460D4616460D
:10338000002700BF94F83C00012802D10220BDE8CC
:10339000F081012084F83C0000BF36B1042E1BD020
:1033A000082E31D00C2E5ED145E02946206801F070
:1033B0007BFF2068806940F00800216888612068F0
:1033C000806920F00400216888612068806929698B
:1033D00008432168886148E02946206801F094FF8D
:1033E0002068806940F400602168886120688069F5
:1033F00020F480602168886120688069296940EA3A
:1034000001202168886130E02946206801F0B0FF82
:103410002068C06940F008002168C8612068C06960
:1034200020F004002168C8612068C0692969084348
:103430002168C86119E02946206801F0CDFF2068A5
:10344000C06940F400602168C8612068C06920F448
:1034500080602168C8612068C069296940EA01204C
:103460002168C86101E0012700BF00BF00BF002044
:1034700084F83C0000BF384689E710B504460CB913
:10348000012010BD94F83D0028B9002084F83C00CC
:10349000204600F025F8022084F83D00211D206818
:1034A00001F08AFE012084F8460000BF84F83E0047
:1034B00001213F200155402001554120015500BF09
:1034C00000BF012084F842004320015544200155EB
:1034D0004520015500BF012084F83D000020D0E7C1
:1034E00038B504462068B0F1804F15D100BF0B48B5
:1034F000C06940F001000949C8610846C06900F090
:103500000100009000BF00BF002211461C20FEF702
:10351000B9FF1C20FEF7A6FF38BD000000100240D6
:103520007047000070B504460D4615B994F83E008A
:103530000BE0042D02D13F20005D06E0082D02D1F2
:103540004020005D01E04120005D012801D0012004
:1035500070BD1DB9022084F83E000EE0042D03D199
:1035600002213F20015508E0082D03D1022140200F
:10357000015502E00221412001550122294620681F
:1035800001F05CFE19492068884201D1012000E069
:10359000002028B12068406C40F400402168486455
:1035A0001249206888420BD02068B0F1804F07D0C4
:1035B0000F492068884203D00E49206888420CD108
:1035C0002068806800F00706062E0CD0206800688E
:1035D00040F001002168086005E02068006840F0C4
:1035E0000100216808600020B2E70000002C0140C3
:1035F00000040040000800407047704700BFFEE72D
:1036000010B50248FEF7A2FA10BD0000FC00002031
:1036100010B50248FEF70AFB10BD0000FC000020B8
:10362000C16AB1F52A0F02D10121C16205E0C16A68
:10363000B1F12A4F01D10821C1627047F8B50546A2
:10364000002000906C6A94F83D60394800681921A8
:10365000B0FBF1F04FF47A71B0FBF1F0C0EBC000B9
:1036600000EB8000009000BF009820B9206C40F073
:103670002000206409E00098401E00902068006847
:1036800000F40070B0F5007FEED000BF606B10B1A9
:103690000020616B8862A06B10B10020A16B886272
:1036A0002068006820F48060216808600020608540
:1036B000606B10B10020616B4863A06B10B10020FB
:1036C000A16B48632068006820F001002168086051
:1036D00094F83D0060280AD1202084F83D000020A5
:1036E00084F83E0020642046FEF72EFA1EE006F025
:1036F0002800282811D12068006840F001002168C6
:1037000008602068006840F480602168086000203C
:103710002063282084F83D0005E0202084F83D0047
:10372000002084F83E002046FEF76DFBF8BD000047
:103730003C00002070B505466C6A606B10B100203B
:10374000616B8862A06B10B10020A16B8862206859
:10375000006820F4806021680860002060852020D7
:1037600084F83D00002084F83E00206C40F01000FA
:1037700020642046FEF747FB70BD2DE9F041074667
:103780007C6A94F83D6094F83E80E56A2068406861
:1037900020F4407021684860606B10B10020616BBC
:1037A0008862A06B10B10020A16B886206F0210036
:1037B000212806D006F02200222826D1B8F1200FB9
:1037C00023D12068406820F4006021684860002010
:1037D0006085292E08D121202063282084F83D000F
:1037E0002046FEF7CEFD09E02A2E07D122202063D5
:1037F000282084F83D002046FEF7C2FD206840687E
:1038000040F440702168486054E094F83E0000287D
:1038100050D0608D012805D12068006820F48060B8
:10382000216808602068406820F440702168486082
:1038300015F5803F06D0082D04D0B5F12A4F01D0F0
:10384000202D05D12068006840F4007021680860D0
:103850002068406820F480502168486020684068F3
:1038600020F400602168486000206085206C18B159
:103870002046FEF7C8FA1DE0202084F83D0094F8A9
:103880003E00402807D1002084F83E0020632046F7
:10389000FEF7A6FB0EE0002084F83E00082D01D0C4
:1038A000202D02D10020206301E012202063204659
:1038B000FEF793FBBDE8F08101684969C1F3C011CF
:1038C00011B1002102681161704700002DE9F0413B
:1038D000044694F83D6094F83E70102F01D0402FBC
:1038E00007D1222E05D12068006820F400602168ED
:1038F000086006F02800282805D100202063282031
:1039000084F83D0010E02068406800F40060B0F5E5
:10391000006F07D0602E05D0202084F83D000020E5
:1039200084F83E00002020632068406800F40060B6
:10393000B0F5006F40D12068406820F40060216835
:103940004860606B90F82100012814D04848616BF2
:103950004863606BFDF7A2FD00285BD0206800681B
:1039600020F0010021680860202084F83D00606B91
:10397000416B88474EE03E48A16B4863A06BFDF762
:103980008DFD002846D020684069C0F3801030B11A
:1039900020680069616A0870606A401C6062206883
:1039A000006820F0010021680860202084F83D00B4
:1039B000A06B416B88472DE094F83D0060281AD138
:1039C000202084F83D000020206420684069C0F376
:1039D000801030B120680069616A0870606A401C1C
:1039E00060622068006820F00100216808602046BD
:1039F000FEF7AAF80EE020684069C0F3801030B1ED
:103A000020680069616A0870606A401C6062204634
:103A1000FEF7F9F9256C05F0010058B905F0020030
:103A2000022807D005F00400042803D005F00800A0
:103A3000082805D12068406820F4E06021684860CB
:103A400094F83D60206C00F0040004280ED1282E6C
:103A50000CD10848E06200202063202084F83D005B
:103A6000002084F83E002046FEF7B6FABDE8F0815B
:103A70003D3600080000FFFF014608684069C0F3BA
:103A80008020B0B16FF480600A6850610020086344
:103A9000202081F83D00002081F83E00086C40F0B5
:103AA0000400086400BF002081F83C0000BF012032
:103AB00070470020FCE770B50446E56A608D042875
:103AC00010D12068406820F4806021684860206838
:103AD0000069616A0870606A401C6062608D401E07
:103AE00060857FE0608D03281AD12068406820F44B
:103AF000806021684860042D07D0022D05D0206821
:103B0000006820F480602168086020680069616AAC
:103B10000870606A401C6062608D401E608561E0D4
:103B2000608D022854D1012D01D0102D06D12068BE
:103B3000006820F480602168086010E0042D01D046
:103B4000022D06D12068006840F48060216808607A
:103B500005E02068006840F4007021680860206873
:103B60000069616A0870606A401C6062608D401E76
:103B7000608520680069616A0870606A401C606244
:103B8000608D401E60852068406820F44070216888
:103B90004860202084F83D0094F83E00402807D17A
:103BA000002084F83E0020632046FEF719FA19E051
:103BB000002084F83E00082D01D0202D02D10020E5
:103BC000206301E0122020632046FEF706FA09E098
:103BD00020680069616A0870606A401C6062608DDC
:103BE000401E608570BD70B5044694F83D002228E3
:103BF0007AD1E66A658D032D13D920680069616A60
:103C00000870606A401C6062608D401E6085608D37
:103C1000032868D12068406820F4806021684860EB
:103C200061E0E06A022858D0012D01D0002D54D166
:103C3000204600F05BFEA0BB2068006820F4806096
:103C4000216808602068406820F4E06021684860CE
:103C500020680069616A0870606A401C6062608D5B
:103C6000401E6085202084F83D0094F83E004028E6
:103C700007D1002084F83E0020632046FEF7B0F90B
:103C800031E0002084F83E00082E01D0202E02D121
:103C90000020206301E0122020632046FEF79DF9FA
:103CA00021E0FFE72068406820F4E0602168486078
:103CB00020680069616A0870606A401C6062608DFB
:103CC000401E6085202084F83D00002084F83E00DE
:103CD0002046FEF798F806E006E02068406820F4E9
:103CE00080602168486000BF70BD70B50446E56A19
:103CF00094F83D00212847D1608D50B1606A00786A
:103D000021680861606A401C6062608D401E6085A9
:103D10003AE0082D16D0202D14D015F5803F11D093
:103D20002068406820F4E06021684860112020632A
:103D3000002084F83E00202084F83D002046FEF755
:103D40004DF921E02068406820F4E0602168486077
:103D50002068006840F4007021680860002020633B
:103D6000202084F83D0094F83E00402806D1002031
:103D700084F83E002046FEF74FF905E0002084F865
:103D80003E002046FEF72AF970BD2DE9F0410446B9
:103D900094F83D5094F83E70E66A208DB0BB212D1A
:103DA0003CD1082E16D0202E14D016F5803F11D00D
:103DB0002068406820F4E06021684860112020639A
:103DC000002084F83E00202084F83D002046FEF7C5
:103DD00005F944E02068406820F4E060216848600C
:103DE0002068006840F400702168086000202063AB
:103DF000202084F83D0094F83E00402807D10020A0
:103E000084F83E002046FEF707F928E006E000208F
:103E100084F83E002046FEF7E1F820E0212D03D093
:103E2000402F1CD1222D1AD1608D30B920684068F6
:103E300020F480602168486011E094F83E0040283A
:103E400003D1204600F0B1F909E0606A00782168EA
:103E50000861606A401C6062608D401E6085BDE83C
:103E6000F081416CC9B202681161416B11B1416BC3
:103E7000896A21B9816B41B1816B896A29B1016875
:103E8000496841F4006102685160704738B590F8A4
:103E90003E20C16A036B90F83D40222C73D1046D23
:103EA00064B9402A0AD100BF002400940468646900
:103EB00000940468A469009400BF26E1046DC4B9AD
:103EC0000469B4F5404F14D100BF00240094046885
:103ED000646900940468A469009400BF00BF04688A
:103EE000246844F4807405682C60046D641C0465C7
:103EF0000BE1448D8CB900BF002400940468646910
:103F000000940468A469009400BF00BF046824689A
:103F100044F4007405682C60E9E0448D012C72D1F2
:103F200011F5803F30D10468246824F4806405686A
:103F30002C600468646804F40064B4F5006F10D168
:103F40000468246824F4806405682C6000BF0024A1
:103F500000940468646900940468A469009400BF34
:103F6000C5E000BF002400940468646900940468FC
:103F7000A469009400BF00BF0468246844F400747E
:103F800005682C60B3E0B5E0082923D0202921D0B2
:103F9000122B01D101291DD104290AD0022908D0F0
:103FA000102906D00468246824F4806405682C6015
:103FB00005E00468246844F4806405682C6000BF50
:103FC000002400940468646900940468A46900945F
:103FD00000BF8CE00468246824F4806405682C60C9
:103FE00000BF002400940468646900940468A46914
:103FF000009400BF00BF0468246844F4007405689E
:104000002C6074E0FFE7448D022C47D104291BD0BB
:10401000022919D0102917D00468246844F40064D8
:1040200005682C6000BF0024009404686469009453
:104030000468A469009400BF00BF0468246824F4E5
:10404000806405682C6010E00468246844F480648F
:1040500005682C6000BF0024009404686469009423
:104060000468A469009400BF00BF0468646804F495
:104070000064B4F5006F3AD111F5803F07D00129F3
:1040800005D0082903D0102901D020292FD1046898
:10409000646844F4805405686C6028E0046824680F
:1040A00044F4806405682C600468646804F4006467
:1040B000B4F5006F10D111F5803F07D0012905D06C
:1040C000082903D0102901D0202905D1046864688B
:1040D00044F4805405686C6000BF002400940468B8
:1040E000646900940468A469009400BF00BF0024C0
:1040F00004650AE000BF0024009404686469009429
:104100000468A469009400BF00BF38BD90F83E1059
:1041100040290ED1016D29B9416C01F0FE01026800
:10412000116141E0416CC9B241F0010102681161C5
:104130003AE00169B1F5804F20D190F83D10212976
:1041400005D1416C01F0FE010268116105E0416C8E
:10415000C9B241F0010102681161416B11B1416BBB
:10416000896A21B9816BF9B1816B896AE1B1016812
:10417000496841F400610268516015E0016D41B980
:10418000416C01F44071F02242EAE11102681161D0
:104190000AE0016D012907D1416C01F44071F1225F
:1041A00042EAE11102681161704770B5044694F863
:1041B0003D50206D98B9E06C012807D1A06CC0B2C9
:1041C00021680861206D801C206550E0A06CC0F360
:1041D000072021680861206D401C206547E0206DA4
:1041E000012807D1A06CC0B221680861206D401C75
:1041F00020653CE0206D022836D1222D09D12068AF
:10420000006840F4807021680860206D401C2065C3
:104210002DE0608D60B1212D0AD1606A007821689F
:104220000861606A401C6062608D401E60851EE00F
:10423000608DE0B9212D1AD12068406820F4E0603B
:10424000216848602068006840F4007021680860B8
:1042500000202063202084F83D00002084F83E00E8
:104260002046FDF7D9FE02E02046FFF725FB70BD92
:104270002DE9F84304460F4615469946DDE90886C0
:104280002068006840F48060216808602068006849
:1042900040F4807021680860434600224FF001110D
:1042A0002046009600F046FA60B12068006800F4ED
:1042B0008070B0F5807F02D14FF40070206403203D
:1042C000BDE8F88307F0FE002168086133464246E6
:1042D0003E49204600F08DFA08B10120F0E700BF0A
:1042E000002000902068406900902068806900905C
:1042F00000BF00BF32464146204600F01FFB50B1D0
:10430000206C042805D12068006840F40070216802
:1043100008600120D4E7B9F1010F03D1E8B22168A8
:10432000086117E0C5F3072021680861324641465D
:10433000204600F003FB50B1206C042805D1206812
:10434000006840F40070216808600120B8E7E8B216
:104350002168086132464146204600F0EFFA50B12C
:10436000206C042805D12068006840F400702168A2
:1043700008600120A4E72068006840F4807021688C
:104380000860434600224FF001112046009600F0DD
:10439000D1F958B12068006800F48070B0F5807FD2
:1043A00002D14FF400702064032089E7F8B240F096
:1043B000010021680861334642460449204600F066
:1043C00018FA08B101207BE7002079E7020001001C
:1043D000418D49B101680969426A1170416A491CFD
:1043E0004162418D491E4185704770B5044694F87D
:1043F0003D50608DD8B120680069616A0870606ABC
:10440000401C6062608D401E6085608D78B92A2DE9
:104410000DD12068406820F4806021684860222027
:104420002063282084F83D002046FDF7A9FF70BDD9
:10443000418D49B1416A097802681161416A491C9C
:104440004162418D491E4185704770B5044694F81C
:104450003D50608DD8B1606A007821680861606A5B
:10446000401C6062608D401E6085608D78B9292D8A
:104470000DD12068406820F48060216848602120C8
:104480002063282084F83D002046FDF77AFF70BDA8
:10449000F8B504460D46002794F83D0000F02800CA
:1044A00028281CD12068406820F48060216848607A
:1044B000C5F3800000B90127C5F3C01010B9A08969
:1044C00086B201E0208B86B200BF002084F83C0059
:1044D00000BF324639462046FDF737FB0FE000BFEC
:1044E000002000902068406900902068806900905A
:1044F00000BF00BF00BF002084F83C0000BFF8BD33
:1045000070B5044694F83D50E66A082E01D0202E7E
:104510001FD1282D1DD12348E0622068406820F477
:10452000E060216848606FF480602168486120681D
:10453000006820F48060216808600020206320204B
:1045400084F83D00002084F83E002046FDF744FD3D
:1045500026E0212D20D11348E06221202063202075
:1045600084F83D00002084F83E002068406820F474
:10457000E060216848606FF48060216848612068CD
:10458000006820F48060216808602046FFF794F9F5
:104590002046FDF7F6FE03E06FF480602168486175
:1045A00070BD00000000FFFF38B5044694F83D5090
:1045B0002068406820F4E0602168486000BF002067
:1045C00000902068406900902068006840F0010079
:1045D0002168086000BF00BF2068006820F4806088
:1045E000216808602068406800F40060B0F5006F42
:1045F00042D1222D01D02A2D1FD1A06B0068406826
:104600006085608D18B1206C40F004002064206843
:10461000406820F4006021684860A06BFCF796FFBA
:10462000012829D04148A16B4863A06BFCF736FFF5
:1046300010B3A06B416B88471EE0606B0068406858
:104640006085608D18B1206C40F004002064206803
:10465000406820F4006021684860606BFCF776FFDA
:10466000012809D03148616B4863606BFCF716FF85
:1046700010B1606B416B8847608D18B3206840694A
:10468000C0F3800048B120680069616A0870606A00
:10469000401C6062608D401E608520684069C0F3E8
:1046A000801048B120680069616A0870606A401C27
:1046B0006062608D401E6085608D18B1206C40F096
:1046C00004002064206C18B12046FFF7FFF82BE0AF
:1046D0002A2D07D100202063282084F83D002046A1
:1046E000FDF74EFE94F83D0028280DD11048E062F9
:1046F00000202063202084F83D00002084F83E0044
:104700002046FDF769FC0FE0206B222801D0222D06
:104710000AD100202063202084F83D00002084F886
:104720003E002046FDF72CFE38BD00003D36000857
:104730000000FFFF2DE9F04104460D4617461E46D6
:10474000DDF8188038E0701CA8B3FDF7F7F9A0EB8E
:104750000800B04200D876BBC5F3074001280AD153
:1047600020684069A9B20840A9B2884201D101205D
:104770000BE0002009E020688069A9B20840A9B2D6
:10478000884201D1012000E00020B84214D100206D
:104790002063202084F83D00002084F83E00206C37
:1047A00040F02000206400BF002084F83C0000BFDF
:1047B0000120BDE8F081FFE7C5F3074001280AD1D9
:1047C00020684069A9B20840A9B2884201D10120FD
:1047D0000BE0002009E020688069A9B20840A9B276
:1047E000884201D1012000E00020B842ABD0002077
:1047F000DFE72DE9F04104460D4616461F4658E016
:1048000020684069C0F38020E8B12068006840F467
:104810000070216808606FF48060216848610020A2
:104820002063202084F83D00002084F83E00206CA6
:1048300040F00400206400BF002084F83C0000BF6A
:104840000120BDE8F081701C90B3FDF777F9C01B23
:10485000B04200D866BBC5F3074001280AD12068E2
:104860004069A9B20840A9B2884201D101200BE0F9
:10487000002009E020688069A9B20840A9B28842F6
:1048800001D1012000E0002090B900202063202009
:1048900084F83D00002084F83E00206C40F02000A9
:1048A000206400BF002084F83C0000BF0120C8E75E
:1048B000FFE7C5F3074001280AD120684069A9B283
:1048C0000840A9B2884201D101200BE0002009E094
:1048D00020688069A9B20840A9B2884201D10120AC
:1048E00000E0002000288BD00020AAE708B5014690
:1048F00000200090104800681922B0FBF2F04FF43D
:104900007A72B0FBF2F000EB8000009000BF0098DC
:10491000401E0090009828B9086C40F02000086400
:10492000012008BD0868006800F40070B0F5007F41
:10493000EDD00020F5E700003C00002070B50446F3
:104940000D46164625E02046FFF796F808B10120EF
:1049500070BD681CE8B1FDF7F1F8801BA84200D8D3
:10496000BDB920684069C0F3C01090B90020206331
:10497000202084F83D00002084F83E00206C40F0A8
:104980002000206400BF002084F83C0000BF01200C
:10499000DEE720684069C0F3C0100028D3D00020B3
:1049A000D6E7000000B587B01C216846FBF783FC02
:1049B000154816490860002114488160017301758B
:1049C0004FF46021C16100201049486001210F4867
:1049D0000161FCF721FC08B1FBF723FE05200090E4
:1049E0000120019004900020029006908DF815009F
:1049F0008DF81400039069460448FCF7C9F908B122
:104A0000FBF70FFE07B000BD002401409C00002012
:104A100000B587B01C216846FBF74DFC15481649C8
:104A20000860002114488160017301754FF4602112
:104A3000C16100201049486001210F480161FCF765
:104A4000EBFB08B1FBF7EDFD062000900120019083
:104A500004900020029006908DF815008DF8140047
:104A6000039069460448FCF793F908B1FBF7D9FDB8
:104A700007B000BD00280140CC00002008B500BFF1
:104A80000E48406940F001000C4948610846406901
:104A900000F00100009000BF00BF0022114610206E
:104AA000FDF7F0FC1020FDF7DDFC0022114611207F
:104AB000FDF7E8FC1120FDF7D5FC08BD0010024011
:104AC00008B500BF1348806940F020001149886193
:104AD0000846806900F02000009000BF00BF00BFC2
:104AE0000846806940F0040088610846806900F04B
:104AF0000400009000BF00BF00BF0846806940F07E
:104B0000080088610846806900F00800009000BF36
:104B100000BF08BD0010024010B50B480B490860EB
:104B20000B484860002109488160C1604FF4804112
:104B30000161002141618161C1610162FDF764F998
:104B400008B1FBF76EFD10BD00540040FC000020D2
:104B5000801A060000B595B00020119012901390B5
:104B600014900F9010901C2108A8FBF7A4FB2021A3
:104B70006846FBF7A0FB3B483B49086002204860C1
:104B80004021394881604FF4E161C1600021016139
:104B9000416180218161FEF79FF908B1FBF741FD7A
:104BA0004FF48050119011A92F48FEF75DFA08B11B
:104BB000FBF737FD2C48FEF760FC08B1FBF731FD31
:104BC00070200F90002010900FA92748FEF7E0F802
:104BD00008B1FBF726FD60200890002009900A909C
:104BE0000B900C900D900E90002208A91E48FEF725
:104BF000C2FB08B1FBF715FD042208A91A48FEF70D
:104C0000BAFB08B1FBF70DFD082208A91648FEF70C
:104C1000B2FB08B1FBF705FD7020089040F2077069
:104C200009900C2208A91048FEF7A5FB08B1FBF774
:104C3000F8FC0020009001900290052003900020D5
:104C400004904FF4005005900020079069460648F4
:104C5000FEF764F808B1FBF7E4FC0348FEF742FBFB
:104C600015B000BD002C0140D801002000B589B06E
:104C70000020079008901C216846FBF71CFB4FF0B2
:104C80008040164908604820486000211348816030
:104C90004FF47A71C160002101618161FEF7EDFB83
:104CA00008B1FBF7BEFC00200790089007A90B484D
:104CB000FEF76EF808B1FBF7B4FC6020009000200E
:104CC000019002900490002269460448FEF753FBCD
:104CD00008B1FBF7A6FC09B000BD000020020020CF
:104CE00000BFFEE700BFFEE7704700002DE9F05F60
:104CF0001248D0E90821104600F088FD0F4988636A
:104D00000846D0E90A63324600204FF0804100F0A7
:104D10009FFE80460948D0E908633246404600F0CD
:104D2000A7FD04464FF08042054B00F091FE8246FD
:104D300000F06CFD0149C863BDE8F09F88050020C4
:104D4000A779E23F2DE9F04104460D46164631466B
:104D5000284601F0BBFBE060D4E9031001F0C2F883
:104D60002061606980F000473846216901F072FBDC
:104D700000D203E0D4E9040101F06CFB2169606812
:104D800001F09CFA0746E168206801F097FA804636
:104D9000394601F0A7F8E061A06980F00047384685
:104DA000E16901F057FB00D203E0D4E9061001F0FD
:104DB00051FBE069BDE8F08170B504460D46202145
:104DC0002046FBF778FA2868206068686060A86869
:104DD000A060E86860612869A06170BD08B50849F5
:104DE0000968C9084FF47A72B1FBF2F141430091AE
:104DF00000BF00BF00994A1E00920029F9D108BDEA
:104E00003C0000207047000010B50024114A516D8D
:104E1000106D01F01FFA0DD244F004040D4A916D9B
:104E2000506D01F017FA02D244F002040FE044F092
:104E300001040CE044F00204064A916D106D01F08B
:104E400009FA02D244F0040401E044F001042046CF
:104E500010BD00008805002010B50C4B1B685A637C
:104E60000A4B1B689963094B1B68D863074B1B6887
:104E70005B6B074C2360054B1B689B6B054C2360E9
:104E8000024B1B68DB6B044C236010BDD801002073
:104E90007C000020800000208400002010B51A480B
:104EA00090F84800032804D005281CD0062827D1F4
:104EB0000CE00620154908601548FBF769FF05203E
:104EC000124908601348FBF763FF1AE007200F49F7
:104ED00008600F48FBF75CFF06200C4908600D488E
:104EE000FBF756FF0DE00720084908600848FBF76C
:104EF0004FFF0520054908600648FBF749FF00E021
:104F000000BF00BF10BD0000880500205C0000202D
:104F1000CC0000209C0000202DE9FE435D48FEF7F8
:104F200067F85D48FEF72EF80C215B48FEF7FAFAA9
:104F30005A48FCF771F859480068406840F0800012
:104F40005649096848605648FCF766F854480068B6
:104F5000406840F080005249096848600020009095
:104F60000190029000210C460D460E460F4605208A
:104F70004C4908604948FBF70BFF06204949086087
:104F80004748FBF705FF4FF0000814E00120FCF74D
:104F900031FC01214148FCF726F8041945F10005D0
:104FA00001213F48FCF71FF8861947F1000708F177
:104FB00001000FFA80F83C4800888045E6DB3A485B
:104FC0000288002320462946FBF7FEF8374908806F
:104FD00035480288002330463946FBF7F5F8334957
:104FE000888006202F4908602C48FBF7D1FE072057
:104FF0002C4908602A48FBF7CBFE00210C460D46E1
:10500000002006460746804614E00120FCF7F2FB2C
:1050100001212248FBF7E7FF041945F100050121B2
:105020001F48FBF7E0FF861947F1000708F1010070
:105030000FFA80F81C4800888045E6DB1A48028891
:10504000002320462946FBF7BFF818494880164838
:105050000288002330463946FBF7B6F81349C8806A
:1050600000210D48FEF75EFA04210B48FEF75AFABC
:1050700008210948FEF756FA00210748FDF7CAFE45
:1050800004210548FDF7C6FE08210348FDF7C2FECE
:10509000BDE8FE8320020020D80100209C000020F3
:1050A000CC0000205C00002078000020540000208C
:1050B00010B5FDF767F910BD00B593B0282109A818
:1050C000FBF7F9F8142104A8FBF7F5F8002000908D
:1050D0000190029003900120099000040A900020A2
:1050E0000B9001200D9002201090C10311914FF4FC
:1050F000E011129109A8FDF7C3FB08B1FBF791FA83
:105100000F20049002200590002006904FF480604C
:10511000079000200890022104A8FDF79DFA08B12D
:10512000FBF77FFA02200090800302906846FDF7AB
:10513000FBF908B1FBF775FA13B000BD704700002A
:1051400010B50248FEF717F810BD0000D801002086
:1051500010B51248007848B11149D1F89C001149A6
:10516000096800F0BFFE0E49C1F89C000C49D1F857
:105170009C000D4901F06EF903D20C480849C1F8B2
:105180009C000B48D0E90020521C40F10000084967
:10519000C1E900200748FDF7EEFF10BD2400002004
:1051A000880500202000002000003443000034C3A4
:1051B000280000202002002010B502681C4B9842F5
:1051C00008D0B0F1804F05D01A4B984202D01A4B4C
:1051D000984203D122F070024B681A43144B984254
:1051E00008D0B0F1804F05D0124B984202D0124B3C
:1051F000984203D122F44072CB681A4322F0800314
:105200004C6943EA040202608B68C3620B688362E4
:10521000074B984201D10B69036301234361036982
:1052200003F001031BB1036923F00103036110BD07
:10523000002C0140000400400008004030B501F09F
:105240001F05012404FA05F3046A9C430462046AFE
:1052500001F01F0502FA05F52C43046230BD30B59C
:1052600001F00F05042404FA05F3046A9C43046268
:10527000046A01F00F0502FA05F52C43046230BD03
:1052800030B50C46816821F47F4142EA032525436D
:105290002943816030BD0A46816821F0700142F0E7
:1052A000070319438160704730B5026A056A25F02B
:1052B000010505624368846924F0700424F0030446
:1052C0000D682C4322F002028D682A430D4DA8423E
:1052D00006D100BF22F00802CD682A4322F0040262
:1052E000084DA84207D123F4807323F400734D695D
:1052F0002B438D692B43436084614D684563026293
:1053000030BD0000002C014030B5026A056A25F06E
:10531000100505624368846924F4E04424F4407471
:105320000D6844EA052422F020028D6842EA051245
:105330000E4DA84207D100BF22F08002CD6842EA9C
:10534000051222F04002094DA84209D123F48063DE
:1053500023F400634D6943EA85038D6943EA8503BD
:10536000436084614D688563026230BD002C01405A
:1053700030B5026A056A25F4807505624368C46920
:1053800024F0700424F003040D682C4322F400720E
:105390008D6842EA05220F4DA84207D100BF22F4D2
:1053A0000062CD6842EA052222F48062094DA842DB
:1053B00009D123F4805323F400534D6943EA0513C4
:1053C0008D6943EA05134360C4614D68C563026299
:1053D00030BD0000002C014030B5036A056A25F499
:1053E000805505624468C26922F4E04222F44072AA
:1053F0000D6842EA052223F400538D6843EA053321
:10540000064DA84204D124F480444D6944EA851431
:105410004460C2614D680564036230BD002C0140E8
:1054200030B50B461446026A056A25F0010505628F
:10543000816921F0F00141EA041122F00A021A43C5
:105440008161026230BD30B50B461446026A056ABE
:1054500025F010050562816921F4704141EA0431AB
:1054600022F0A00242EA03128161026230BD00BF55
:10547000FEE7000002480068C0F302207047000009
:105480000CED00E010B5002804DB0A07130E054AF6
:10549000135406E00A07140E034A00F00F031B1F03
:1054A000D45410BD00E400E018ED00E02DE9F04711
:1054B00005460021284600F0CDFF01D2284601E034
:1054C00085F0004005460021284600F0C3FF28D89B
:1054D0003049284600F0BEFE23D22E49284600F06F
:1054E000EAFF8146002100F0B5FF04D22949284691
:1054F00000F0E1FF05E02749284600F0DCFF80F0DE
:1055000000408046244900F0D9FE074600F04EFED8
:10551000224951F820602249304600F051FD0446EE
:1055200034E01C49284600F095FF29D81D4928463B
:1055300000F090FE24D21749284600F0C7FF8146AC
:10554000002100F087FF04D21249284600F0BEFF78
:1055500005E01049284600F0B9FF80F00040804681
:105560000D4900F0ABFE074600F020FE0B4951F854
:1055700020600B49304600F023FD80F0004405E038
:105580000849284600F0DEFD00D1074C2046BDE862
:10559000F08700000000B44200002041E0650008F0
:1055A0000000C84200003443000080BFFCF7F6FE54
:1055B000FFF782FDFFF784FAFFF760FAFFF7F2F9D1
:1055C000FFF726FAFFF7C6FAFFF750FBFFF7A4FA3A
:1055D000FBF782FA03E002480068FBF725F8FAE7D8
:1055E0000000002070B51D49D1F89C0000F038F88B
:1055F00006461A484169304600F060FE04461749E5
:10560000D1F89C00FFF752FF0646144881693046E6
:1056100000F054FE0546214600F058FF0F49C860CF
:10562000D1F89C00FFF742FF06460C48416930461E
:1056300000F044FE04460949D1F89C0000F010F83F
:10564000064606488169304600F038FE0546214688
:1056500000F048FC0149086170BD00008805002089
:105660002DE9F04705460021284600F0F3FE1DD83D
:105670005F49284600F0EEFD18D20021284600F0D0
:10568000E9FE01D2284601E085F0004080465949F4
:1056900000F014FE074600F089FD574951F82060DC
:1056A0005649304600F08CFC04469DE0504928469F
:1056B00000F0D0FE28D85249284600F0CBFD23D276
:1056C0004F49284600F0F7FE8146002100F0C2FE57
:1056D00004D24B49284600F0EEFE05E04849284632
:1056E00000F0E9FE80F000408046424900F0E6FD0F
:1056F000074600F05BFD404951F820603F493046C5
:1057000000F05EFC04466FE03E49284600F0A2FE31
:1057100029D83D49284600F09DFD24D23849284625
:1057200000F0E0FB8146002100F094FE04D23449F1
:10573000284600F0D7FB05E03149284600F0D2FBAF
:1057400080F0004080462B4900F0B8FD074600F08D
:105750002DFD294951F820602849304600F030FCE1
:1057600080F0004440E02849284600F073FE35D818
:105770000021284600F06EFD30D22149284600F075
:10578000B1FB82461E4900F096FE8146002100F0E2
:1057900061FE08D21A49284600F0A4FB8146184948
:1057A00000F089FE09E01649284600F09BFB81467F
:1057B000134900F080FE80F0004080460D4900F063
:1057C0007DFD074600F0F2FC0B4951F820600B49C3
:1057D000304600F0F5FB80F0004405E0084928461B
:1057E00000F0B0FC00D100242046BDE8F0870000A6
:1057F0000000B44200002041E06500080000C842FB
:1058000000003443000034C30000B4C221F0004261
:10581000A2F16052B2F5801F01F0004328BFD2F11F
:105820007F6C0BD95FEA001C43EAC20242EB507066
:1058300018BF704728BF20F001007047B2F5801FE5
:10584000BCBF184670474FEA410C1CF5001F02D23E
:10585000084600F0FABD70B500F0A4F90000008918
:10586000FFF7F6BF4FF00040A0F580007047000042
:1058700010B591EA030F48BF83F0004300F1248282
:10588000841A71EB030C05D2121943EB0C03001BB5
:1058900061EB0C01DFF824E14FEA1154A4EB135C37
:1058A0001EEA430F18BF9EEA445F73D023EA0E033B
:1058B000DCF1200E21EA045143F4801332D322FAA2
:1058C0000CFE10EB0E0023FA0CFE41EB0E01CCF1A6
:1058D000200E03FA0EFE10EB0E0051F10001B1F59F
:1058E000801FCCF1200E32D201EB045112FA0EF2DD
:1058F000BDE8104058BF7047401C38BF5FEA420205
:1059000018BF7047002814BF20F0010041F10001CA
:105910004FEA410313F5001F38BF7047A1F1C041A2
:1059200000F08EB9012A43EB0302ACF1200CDCF14C
:105930001F0E32BF4FF0000E23FA0CF310EB0300E2
:1059400041EB0451B4EB115FD0D0A1EB045101F550
:10595000801149085FEA300001EB04510ED350F189
:10596000000038BF12FA0EFE08D1BDE81040C9E7AA
:10597000401C38BF5FEA4202CAD1C3E7BDE810400D
:105980004FEA410313F5001F38BF7047A1F1C04132
:1059900000F056B99EEA445F08D011EA5E0FBDE8F8
:1059A000104004BF01F0004100207047BDE81040E6
:1059B00070B500F0F7F800BF64FBBE3E0000E0FFEA
:1059C000491058BFC1F140415B1058BFC3F140437B
:1059D0008B42EFF30080704751EA030C17D41CF59B
:1059E000801F58BFBCF5801F00F10680994218BF88
:1059F000704708BF9042704707D711F5801F58BF06
:105A000013F5801F19D499427047894270471CF5DD
:105A1000801F08D5BCF5801FF7D58B4218BF704793
:105A200008BF824270474FF4001C1CEB410F38BF87
:105A30001CEB430F01D28B42704770B500F0B2F8F7
:105A4000922449004FF000514FF08053FFF7B8BF48
:105A5000DFF848C170B51CEA111E1EBF1CEA131501
:105A60009EEA0C0F95EA0C0F00F06F8081EA0304A8
:105A700023EA4C134EEAD47E21EA4C1141F4801102
:105A800043F48013AE44A1FB024CA0FB0365AEF1CE
:105A90007F7E361955EB0C05A1FB034C4CF100033E
:105AA000A0FB021C16EB0C06654153F100030942F2
:105AB00018BF46F0010613F4007F0BD14FEA033103
:105AC0004FEA0530340341EA155140EA16506FF0B1
:105AD00003020AE04FEAC3214FEAC520F40241EA7B
