:020000040800F2
:10000000580B00208901000839230008212000082E
:1000100035230008510400085129000800000000A1
:1000200000000000000000000000000001240008A3
:10003000550400080000000069230008A9250008F5
:10004000A3010008A3010008A3010008A301000800
:10005000A3010008A3010008A3010008A3010008F0
:10006000A3010008A3010008A3010008A3010008E0
:10007000A3010008A3010008A3010008A3010008D0
:10008000A3010008A301000891020008A3010008D1
:10009000A3010008A3010008A3010008A3010008B0
:1000A000A301000831260008A3010008A3010008ED
:1000B00041260008A3010008A3010008A3010008CD
:1000C000A3010008A3010008A3010008A301000880
:1000D000A3010008A3010008A3010008A301000870
:1000E000A3010008A3010008A301000800F002F822
:1000F00000F03AF80AA090E8000C82448344AAF188
:100100000107DA4501D100F02FF8AFF2090EBAE885
:100110000F0013F0010F18BFFB1A43F0010318473B
:10012000743F0000943F0000103A24BF78C878C1A3
:10013000FAD8520724BF30C830C144BF04680C60ED
:10014000704700000023002400250026103A28BF35
:1001500078C1FBD8520728BF30C148BF0B60704739
:100160001FB51FBD10B510BD00F05CF81146FFF7BC
:10017000F7FF02F06DFC00F07AF803B4FFF7F2FF2E
:1001800003BC00F07DF8000009488047094800479B
:10019000FEE7FEE7FEE7FEE7FEE7FEE7FEE7FEE737
:1001A000FEE7FEE704480549054A064B7047000094
:1001B0002D260008ED00000858050020580B0020EF
:1001C00058070020580700204FF0000200B51346E2
:1001D00094469646203922BFA0E80C50A0E80C5067
:1001E000B1F12001BFF4F7AF090728BFA0E80C5018
:1001F00048BF0CC05DF804EB890028BF40F8042B11
:1002000008BF704748BF20F8022B11F0804F18BF7D
:1002100000F8012B704770477047704700487047DF
:10022000300000207546FFF7F9FFAE46050069462D
:10023000534620F00700854618B020B5FFF7B2FFFF
:10024000BDE820404FF000064FF000074FF00008D7
:100250004FF0000BAC46ACE8C009ACE8C009ACE814
:10026000C009ACE8C00921F007018D46704710B500
:100270000446AFF300802046BDE81040FFF77DBF85
:1002800001491820ABBEFEE72600020070470000BF
:1002900080B540F2B83040F2B03CC2F20000C2F289
:1002A000000C90F83810DCE9003280F83910581C46
:1002B00042F10001D0F163024FF0000E7EEB01032A
:1002C0004FF0000338BF0123002B40F2C443C2F2B9
:1002D00000031CBF002100201B68CCE90001596A03
:1002E00040F29003C2F2000303EBC00243F8301067
:1002F00040F26440C2F200000068C2F804E0016805
:10030000890715D440F29440C2F2000000680168E9
:1003100089071AD56FF00401016040F20C00C2F2A7
:100320000000016800290CBF0121002101600CE0E0
:100330006FF00401016040F20800C2F200000168A1
:1003400000290CBF01210021016040F26440C2F28B
:10035000000000F0B1FC40F29440C2F2000000F056
:10036000ABFC80BDB0B5044600688168C90709D000
:10037000816821F00101816000F018FF216889681F
:10038000C90701D10020B0BD054603E020688068A0
:10039000C007F7D000F00AFF401B0328F6D32068FF
:1003A0008068C007F2D0A06A40F01000A062E06A46
:1003B00040F00100E0620120B0BD0000B0B582B0A5
:1003C00004460020019021688A68D2073DD18868E0
:1003D00040F00100886040F20000C2F200000068B6
:1003E0004DF68361C4F21B31A0FB0101880C00BFF4
:1003F0000190019810B101980138F9E700F0D6FE9C
:1004000021688968C9071CD1054603E02068806817
:10041000C00719D100F0CAFE401B0328F6D320689C
:100420008068C007F2D1A06A40F01000A062E06AC4
:1004300040F00100E062002084F82400012002B0B6
:10044000B0BD002002B0B0BD002002B0B0BD0000C1
:10045000FEE7000070470000EFF3108072B600BFA7
:10046000FEE700002DE9F04740F2B83AC2F2000A78
:10047000DAF8342001460AF1680001F077FFDAF873
:100480003020CAF818000AF14800002101F06EFF80
:10049000CAF8140002F0F4FADAE903644BF2D73137
:1004A000CBF65D71304602F0A1FD054620464FF0C7
:1004B0007C5102F09BFD07462846394602F062FE59
:1004C0004BF2D7310546C3F65D71304602F08EFD22
:1004D000394602F057FE0021064602F0E5FB0746CA
:1004E000002820464FF0000118BF012702F0DCFB76
:1004F000002828464FF0000118BF043702F0D4FB53
:10050000002818BF0237781E052800F2B781DFE8FF
:1005100010F006004C009200D8001E0168014EF257
:100520006076CCF201362846314602F05FFD054682
:100530002046314602F05AFD2946064602F044FBA9
:1005400040F20008C4F2E1484146044602F0ACFB28
:1005500081464046214602F0CFFB0446284621460C
:1005600002F044FD07463046214602F03FFD0446B6
:10057000B9F1000F04BF2F4634464046394602F019
:1005800001FE214602F0FEFD4FF07C5102F02EFDEF
:1005900005463846214602F017FB294602F014FBB7
:1005A000CAE90F052046294663E14EF26075CCF298
:1005B00001352046294602F019FD044630462946F9
:1005C00002F014FD07462046394602F0FDFA40F2DB
:1005D0000008C4F2E1484146054602F065FB814649
:1005E0004046294602F088FB06462046314602F086
:1005F000FDFC05463846314602F0F8FC0646B9F1E6
:10060000000F04BF3E4625464046294602F0BAFD8B
:10061000314602F0B7FD4FF07C5102F0E7FC044692
:10062000CAF83C003046214602F0CEFACAF8400033
:100630002846314642E04EF26077C4F20137284640
:10064000394602F0D3FC04463046394602F0CEFC6F
:1006500006462046314602F0B7FA40F20008C4F2DE
:10066000E1484146054602F01FFB814640462946C7
:1006700002F042FB07462046394602F0B7FC054629
:100680003046394602F0B2FC0746B9F1000F04BF0C
:10069000254637464046294602F074FD394602F0A9
:1006A00071FD4FF07C5102F0A1FC04463846214612
:1006B00002F08AFACAE90F042846394602F084FAA1
:1006C000D6E04EF26077CCF201373046394602F080
:1006D0008DFC04462846394602F088FC0746204631
:1006E000394602F071FA40F20008C4F2E14841468E
:1006F000054602F0D9FA81464046294602F0FCFA46
:1007000006462046314602F071FC05463846314621
:1007100002F06CFC0646B9F1000F04BF3E462546C8
:100720004046294602F02EFD314602F02BFD4FF0E7
:100730007C5102F05BFC04463046214602F044FA4C
:10074000CAF83C002846314602F03EFA43E04EF239
:100750006077C4F201373046394602F047FC05465F
:100760002046394602F042FC2946044602F02CFAA3
:1007700040F20008C4F2E1484146064602F094FA0D
:1007800081464046314602F0B7FA064628463146D1
:1007900002F02CFC07462046314602F027FC0646B4
:1007A000B9F1000F04BF26462F464046394602F0F5
:1007B000E9FC314602F0E6FC4FF07C5102F016FCF9
:1007C00004463846314602F0FFF9214602F0FCF9B2
:1007D000CAF83C003046214602F0F6F9CAF840005B
:1007E0004AE04EF26076C4F201362046314602F00D
:1007F000FDFB04462846314602F0F8FB064620463B
:10080000314602F0E1F940F20008C4F2E148414605
:10081000054602F049FA81464046294602F06CFA44
:1008200005462046294602F0E1FB074630462946A8
:1008300002F0DCFB0546B9F1000F04BF3546274640
:100840004046394602F09EFC294602F09BFC4FF0E0
:100850007C5102F0CBFB0446CAF83C0038462946DE
:1008600002F0B2F9214602F0AFF9CAF8400028467A
:10087000214602F0A9F90446CAF844400AF13C05B1
:1008800031CD02F02FFB0646204602F02BFB04463A
:10089000284602F027FB02463046214601F0D2FDF1
:1008A00001F0B0FD8AF8380001F004FEBDE8F087E1
:1008B00070B540F2B834C2F2000420468C21FFF734
:1008C00083FC40F21005C2F2000504F168002946DD
:1008D00001F06CFD04F14800294601F067FD01F0CC
:1008E00013FED4E90F05646C02F0FCFA06462846B4
:1008F00002F0F8FA0546204602F0F4FA02463046C5
:10090000294601F09FFD70BDF0B581B00022009234
:1009100090F82420012A02D14FF0020CD3E0836822
:100920004C68012280F82420B3B1D1F810E00268AD
:10093000B4EB0E0404EB8404D2F838C004F10F04C5
:100940004FF01F0303FA04F32CEA030323F4401CC3
:100950000DD9C2F838C015E0012C40F08B80026838
:10096000936B0C686FF3150343EAC43309E000236B
:10097000CFF6F0730D6803EB0E53A54043EA0C036A
:100980002B4393634FF0000C03689A68D20706D19B
:100990009A6847F201058C69AA4322439A6091F84C
:1009A00015E0BEF1010F10D18D6900F12804B5F5F5
:1009B000E04F4FF0200514BF4FF0010C1C1D08BF85
:1009C0004FF4806522682A4322600A7D012A0ED1F5
:1009D00000F128022025BEF1000F14BF4FF0010CDA
:1009E0001A1D08BF4FF48055146825431560D1F8CF
:1009F00000E010240EEB4E02BEF1090F88BF1E3A34
:100A000088BF0C241D5907268F689640B54307FA06
:100A100002F215432EF00102102A1D5103D19C68E9
:100A200044F400049C604C68032C08D0022C09D0CC
:100A3000012C14BF03F1200403F1140404E003F1BA
:100A40001C0401E003F11804256840F6FF76C9682C
:100A5000B5432943102A216032D142F20041C4F249
:100A600001018B420DD0816A4FF0010C41F0200151
:100A7000816225E0826A4FF0010C42F0200282621E
:100A800082E7896809021BD49968BEF1100F41F40E
:100A90000001996014D140F20001C2F2000109681E
:100AA0004DF68362C4F21B32A1FB0212910C01EBE2
:100AB000810149000091009911B100990139F9E7CC
:100AC000002180F82410604601B0F0BD704700009E
:100AD000022908D003290AD00068042914BF3C3039
:100AE0004830006870470068403000687047006810
:100AF000443000687047000010B5044690F82400A8
:100B0000012804BF022010BD012084F824002046E3
:100B1000FFF754FC18B1002184F8241010BD42F2F4
:100B2000044C2168A26AC4F2010C43F201039A4307
:100B30000CF57F7302F580529942A26203D0A26A3B
:100B400022F4801207E0DCF8002012F4702FF6D0B7
:100B5000A26A42F48012A262A26AD2055CBF00229D
:100B6000E262002284F824206FF004020A604A68DE
:100B7000520548BF10BD8A6802F4E042B2F5E04F6A
:100B800006D1994209D1DCF8002012F4702F04D06C
:100B90008A6842F400428A6010BD8A6842F40212F8
:100BA0008A6010BDB0B581B00022009290F8242078
:100BB000012A01D1022179E04A680123062A80F83E
:100BC000243005D803686FF0040C03F1340E0AE0FA
:100BD00003680C2A87BF03F12C0E6FF0400C03F161
:100BE000300E6FF0220C02EB8202DEF800506244FD
:100BF0001F230C68934025EA030304FA02F21A4308
:100C0000CEF80020D1F800E002680EEB4E0510246B
:100C1000BEF1090F88BF1E3D88BF0C2452F804C0E6
:100C200007238968AB402CEA0303A94019431151FB
:100C30002EF001014FF0000C10294FF0000133D1CC
:100C4000016842F20042C4F20102914205D0816A79
:100C500041F020018162012126E09268120222D433
:100C60008A68BEF1100F42F400028A601BD140F284
:100C70000001C2F2000109684DF68362C4F21B3222
:100C8000A1FB0212910C01EB810149000091009936
:100C900049B100BF009901390091009900294FF036
:100CA0000001F7D100E0002180F824C0084601B01F
:100CB000B0BD00007047000070B5044600680668CB
:100CC0004568B10727D515F0200124D0A16AC906CF
:100CD00003D4A16A41F40071A162816801F460212A
:100CE000B1F5602F10D1217B71B9416821F020014D
:100CF0004160A06A20F48070A062A06AC00403D49E
:100D0000A06A40F00100A0622046FFF7D3FF2068F0
:100D10006FF012010160700733D515F0800030D0FC
:100D2000A06AC00603D4A06A40F40050A062206804
:100D3000816801F4E041B1F5E04F0FD1416821F045
:100D400080014160A06A20F48050A062A06AC005C2
:100D500010D4A06A40F00100A0620BE04168490590
:100D600008D4816801F46021B1F5602F02D1217BA4
:100D70000029E3D02046FFF7A9FE20686FF00C01A0
:100D80000160F00718BF15F0400000D170BDA06AE7
:100D900040F48030A062204600F092F820686FF0A6
:100DA0000101016070BD0000002804BF01207047F0
:100DB000F0B581B00746044657F8280F30B9002037
:100DC000E06284F82400204600F07CF82046FFF71B
:100DD000C9FAA26AA16A002808BF12F0100205D061
:100DE00041F010010120396001B0F0BD41F2021262
:100DF00091430231A162E169D4E9013241EA03057C
:100E0000511EB1FA81F149091346B2F5807F18BF2E
:100E10000B02267D217B012E45EA410C11D141B107
:100E2000A16A41F02001A162E16A41F00101E162A1
:100E300007E0A1694EF60006CFF6FF7606EB4131DA
:100E40000B432168B2F5807F4E6826F4694643EA79
:100E500006034B608B684FF2FD76CFF6E17603EA2E
:100E6000060343EA0C038B6001D0012A06D12269F4
:100E70000023CFF6F07303EB025200E00022CB6AAE
:100E800023F470031A43CA62896840F6FE62CFF603
:100E90001F721140614506D10021E162A16A012261
:100EA00062F301019FE7A06A40F0100020F0020009
:100EB000A06254F82C0F40F001010120274692E770
:100EC0007047000010B586B0006842F6000140F699
:100ED0000004C4F20101C4F2010488424FF0000191
:100EE000CDE90411CDE9021127D042F20041C4F24C
:100EF0000101884259D141F21800C4F20200016890
:100F000041F400710160016801F4007101910199DF
:100F1000016841F004010160016801F004010191E0
:100F20000199016841F008010160006800F00800C3
:100F3000019001980320029021E041F21800C4F2D0
:100F40000200016841F480610160016801F4806180
:100F500001910199016841F004010160016801F00B
:100F6000040101910199016841F0080101600068E4
:100F700000F00800019001980620029003200390E1
:100F800002A9204600F014F80120029003200390EB
:100F900004F5806002A900F00BF812200021002265
:100FA00000F07AF9122000F073F906B010BD0000CD
:100FB0002DE9F04F82B00E68002E00F0F38041F270
:100FC0000042C4F20102042340F2004E904208BFE6
:100FD00003234FF6FF7CC4F2010E0093002401238B
:100FE000C1F2100C4FF0000A4FF0000941E001255A
:100FF00004F00C030F279F402BEA070705FA03F3C1
:101000003B4342F826304E6840F20C45F202DEF8CF
:10101000082054BF22EA080242EA0802C4F201058D
:10102000CEF808202A68B30254BF22EA080242EA36
:1010300008022A60B303DEF8042054BF22EA080243
:1010400042EA0802F303CEF80420DEF800204FF055
:10105000010354BF22EA080242EA0802CEF8002047
:101060000E680AF1010A36FA0AF204F1040400F0EB
:10107000998003FA0AFB16EA0B08F1D04A68624528
:1010800010DC122A50D8DFE802F0330A41454F4FF6
:101090004F4F4F4F4F4F4F4F4F4F4F484C00D1F88E
:1010A0000C9041E04FF6FF75C1F22105AA420FDC1A
:1010B0000025C1F21105AA421AD00025C1F212057D
:1010C000AA4215D00025C1F22105AA4210D02BE07A
:1010D0000025C1F22205AA420AD00025C1F231053D
:1010E000AA4205D00025C1F23205AA421CD100BF98
:1010F0008A6842B1012A14BFC0F814B0C0F810B019
:101100004FF0080910E04FF004090DE0CA6802F141
:10111000080909E04FF0000906E0CA6802F1040975
:1011200002E0CA6802F10C0922460546B8F5807F44
:1011300024BF203A04352E680F279740BE4309FA92
:1011400002F232432A60CA79D2067FF589AF41F2B2
:101150001803C4F202031A684FEA9A0642F0010229
:101160001A601A6840F6000302F001020192019A27
:10117000AEF57E7252F826B0C4F2010398420FD049
:1011800040F60043C4F2010398423FF430AF41F20D
:101190000003C4F20103009D984208BF022527E71F
:1011A000002525E702B0BDE8F08F000040F2545062
:1011B000C2F200000068704740F2280040F254512B
:1011C000C2F20000C2F2000100780A681044086010
:1011D0007047000080B542F20000C4F202000168CE
:1011E00041F010010160032000F066F80F2000F0CC
:1011F00005F800F02BF8002080BD0000B0B540F2EB
:101200002802C2F2000240F200011278C2F200018C
:101210004FF47A730968B3FBF2F20446B1FBF2F1C2
:10122000084600F041FB0F2C4FF001050CD858B9CF
:101230004FF0FF3021460022002500F02DF840F24B
:101240002C00C2F2000004602846B0BD82B041F21A
:101250001800C4F202000168022241F0010101609D
:10126000016801F0010101910199416841F080514B
:101270004160406800F08050009000980420C4F263
:101280000100016862F31A61016002B0704700005A
:1012900080B501F05FFB80BD70B514460D46064673
:1012A00001F068FB2946224601F048F80146304625
:1012B00001F068FB70BD000080B501F075FB80BDDA
:1012C0002DE9F04182B00446007841F21C06C007C7
:1012D000C4F202064AD0306810F0805808D1306855
:1012E00040F080503060306800F0805001900198EC
:1012F00047F20007C4F200073868C00512D4386806
:1013000040F480703860FFF751FF05463868C0052B
:1013100008D4FFF74BFF401B6428F7D9032002B025
:10132000BDE8F081706810F4407012D0616801F47B
:10133000407188420DD0706840F24042C4F24222AF
:10134000012320F4407113600023C0071360716013
:1013500029D17068616820F440700843B8F1000F2B
:10136000706003D1306820F08050306020688107C1
:1013700007D556F8181CA26821F44041114346F8DD
:10138000181CC00603D4002002B0BDE8F08156F856
:10139000180CE16820F48000084346F8180C00207F
:1013A00002B0BDE8F081FFF701FF054641F2883742
:1013B00070688007CDD4FFF7F9FE401BB8424FF0AC
:1013C0000300F5D9ECE700002DE9F04381B00028D7
:1013D00000F0898042F20008C4F202080446D8F8FE
:1013E00000000D4600F0070088420CD2D8F800003B
:1013F00020F007002843C8F80000D8F8000000F0EB
:101400000700A8426FD1206841F204098107C4F2A5
:10141000020917D5410705D5D9F8001041F4E0615C
:10142000C9F80010010705D5D9F8001041F4605142
:10143000C9F80010D9F80010A26821F0F00111439A
:10144000C9F80010C00745D1D8F8000000F0070027
:10145000A8420CD9D8F8000020F007002843C8F8AB
:101460000000D8F8000000F00700A8423BD1206837
:10147000410707D5D9F80010E26821F4E061114373
:10148000C9F80010000708D5D9F80000216920F438
:10149000605040EAC100C9F8000000F04FF8D9F8E8
:1014A000001043F26E22C1F30311C0F60002515C3A
:1014B00040F2000220FA01F140F22C00C2F20000DA
:1014C0000068C2F200021160FFF798FE002001B030
:1014D000BDE8F0836068022809D0012829D159F8B5
:1014E000041C890307D4012001B0BDE8F08359F83A
:1014F000041C8901F7D5D9F8001021F00301084335
:10150000C9F80000FFF752FE064641F2883700BFD7
:10151000D9F80000616800F00C00B0EB810F93D0A7
:10152000FFF744FE801BB842F2D9032001B0BDE8AA
:10153000F08359F8041C8907D5D5DCE741F2040C87
:10154000C4F2020CDCF8003003F00C00082841F271
:101550000020C0F27A0018BF7047C3F383420AA18B
:101560008A5CD90305D440F60010C0F23D00504318
:101570007047DCF8001008A3C1F34041595C5043A8
:10158000B0FBF1F0704700BF02030405060708092D
:101590000A0B0C0D0E0F1010010200002DE9F04196
:1015A00082B0002800F0C4800446007841F20006B2
:1015B000C007C4F2020643D0706800F00C00042893
:1015C00017D0706800F00C00082802D17068C003C2
:1015D0000FD465682DB1B5F5A02F10D0B5F5803FBB
:1015E00011D0306820F480303060306820F48020E2
:1015F0000CE03068800323D5606808BB98E0306851
:1016000040F480203060306840F480303060FFF774
:10161000CDFD002D054610D03068800310D4FFF7B3
:10162000C5FD401B6428F7D904E100BFFFF7BEFDEC
:10163000401B64284FF0030077D830688003F5D44E
:101640002078800718D5706810F00C0F07D07068EC
:1016500000F00C00082826D17068C00323D430683D
:10166000800702D52069012862D13068616920F0C5
:10167000F80040EAC1003060207800073DD5A0693D
:1016800038B30020C4F242200121C0F88014FFF7D3
:101690008DFD0546706A80072DD4FFF787FD401B3E
:1016A0000228F7D9C6E02069002840F20000C4F201
:1016B000422000F0968001210160FFF777FD05468A
:1016C00030688007D1D4FFF771FD401B0228F7D99D
:1016D000B0E00020C4F242200021C0F88014FFF7DF
:1016E00065FD0546706A800707D5FFF75FFD401B63
:1016F0000228F7D99EE000F06DFE207840071BD449
:10170000E5698DB1706800F00C00082847D1012D03
:101710000ED07068216A00F480328A4208D1616A72
:1017200000F47010884203D1002002B0BDE8F081BF
:10173000012002B0BDE8F081F06910F0805808D1B6
:10174000F06940F08050F061F06900F08050019045
:10175000019847F20007C4F200073868C00510D4AA
:10176000386840F480703860FFF720FD054600BF00
:101770003868C00505D4FFF719FD401B6428F7D968
:1017800058E0E5681DB1052D3CD0012D3ED0306AF2
:1017900020F001003062306A20F0040039E00027B8
:1017A000C4F2422700203866FFF700FD022D0546EF
:1017B0000CD100BF3068800154D5FFF7F7FC401B07
:1017C00002284FF00300F5D9AFE700BF3068800171
:1017D000AAD5FFF7EBFC401B02284FF00300F5D918
:1017E000A3E700210160FFF7E1FC054630688007B0
:1017F0007FF542AFFFF7DAFC401B02284FF00300F1
:10180000F4D992E7306A40F004003062306A40F068
:1018100001003062FFF7CAFC002D054641F288370F
:1018200014D000BF306A800713D4FFF7BFFC401B01
:10183000B842F7D9032002B0BDE8F081FFF7B6FC4B
:10184000401BB8424FF003003FF66FAF306A80078D
:10185000F4D4B8F1000F7FF453AFF06920F080505A
:10186000F0614DE7206AB0F5803F05D17168A2684C
:1018700021F40031114371607168626A21F47411BE
:1018800010430843706001203866FFF78FFC044660
:10189000306880013FF548AFFFF788FC001B022845
:1018A0004FF00300F4D940E780B500F065FE80BD3D
:1018B0007047000070470000B0B590F83C20012A46
:1018C00004BF0220B0BD01F108053CCDD1E900CE36
:1018D00023F47C5322F470521A432EF4F0431A433B
:1018E0002CF4E0431A4324F4C0431A432A43C96941
:1018F00022F48042036811435964002180F83C10AF
:101900000846B0BD10B590F83C20012A4FF0020205
:1019100031D0012380F83C3080F83D200268D2F8B5
:1019200004E0D2F808C00C682EF07003234340F2A4
:10193000FF74C4F20004A242536005DCB2F1804F90
:101940000ED040F2004307E042F60043C4F2010328
:101950009A4205D040F60003C4F200039A4204D133
:1019600049682CF08003194391600121002280F81E
:101970003D1080F83C20104610BD000010B5044614
:1019800041B1082909D0042914BF04F1450004F12C
:10199000430004E004F1420001E004F14400007857
:1019A00001281CBF012010BD022041B1082909D027
:1019B000042914BF84F8450084F8430004E084F847
:1019C000420001E084F844002068042200F0BAFEDE
:1019D000206840F2FF72416CC4F2000241F4004101
:1019E0009042416405DCB0F1804F0ED040F20041DE
:1019F00007E042F60041C4F20101884205D040F6FA
:101A00000001C4F20001884206D1816801F007019B
:101A1000062904BF002010BD016841F001010160EA
:101A2000002010BD002804BF0120704710B50446F7
:101A300090F83D0028B9002084F83C00204600F0D2
:101A40001FF8022084F83D002068211D00F01AFED6
:101A5000012084F8460084F83E0084F83F0084F8B2
:101A6000400084F8410084F8420084F8430084F880
:101A7000440084F8450084F83D00002010BD0000BB
:101A800080B582B0006842F60041C4F2010188428C
:101A900001D002B080BD41F21800C4F2020001681A
:101AA000002241F4006101600068002100F4006040
:101AB000019001981920FFF7EFFB1920FFF7E8FBD1
:101AC00002B080BD90F83D1001291CBF0120704775
:101AD000022180F83D10006840F2FF71C4F200015D
:101AE000884205DCB0F1804F0ED040F2004107E0A3
:101AF00042F60041C4F20101884205D040F60001DF
:101B0000C4F20001884206D1816801F0070106296C
:101B100004BF00207047016841F00101016000200E
:101B20007047000090F83D1001291CBF012070474C
:101B3000022180F83D10006840F2FF72C168C4F2D3
:101B40000002904241F00101C16005DCB0F1804F1C
:101B50000ED040F2004107E042F60041C4F201011C
:101B6000884205D040F60001C4F20001884206D147
:101B7000816801F00701062904BF00207047016851
:101B800041F00101016000207047000010B50446DB
:101B900090F83C0001284FF0020008BF10BD012260
:101BA00084F83C2084F83D0020684FF67773826803
:101BB0009A4382600A684F2A0FDC1F2A22DD202AFE
:101BC00023D0302A21D0402A4DD14B68CA6819460B
:101BD00000F09AFE206840213BE06F2A17DDB2F545
:101BE000005F20D0B2F5805F2AD0702A3BD1D1E9C6
:101BF000012CCB68614600F0B7FD2068816841F098
:101C000077011AE00AB1102A2DD1114621E0502A9D
:101C100018D0602A27D14B68CA68194600F086FEA2
:101C20002068602115E0D1E9012CCB68614600F005
:101C30009BFD2068816841F48041816000200BE0B9
:101C4000002009E04B68CA68194600F05DFE206874
:101C5000502100F095FD0020012184F83D10002165
:101C600084F83C1010BD0120F6E70000704700002A
:101C7000B0B504460068C168026902EA0105A90717
:101C80001DD4680731D4280747D4E8065CD4E80798
:101C900073D128067BD4680606D520686FF0400112
:101CA0000161204600F0BAF9A80658BFB0BD20680F
:101CB0006FF0200101612046FFF7FCFDB0BD6FF021
:101CC00002010161012121778069800703D020464C
:101CD000FFF7CCFF05E0204600F0A4F8204600F016
:101CE0003DF9002020776807CDD520686FF004010A
:101CF000016102212177806910F4407F03D02046E2
:101D0000FFF7B4FF05E0204600F08CF8204600F015
:101D100025F9002020772807B7D520686FF0080143
:101D2000016104212177C069800703D02046FFF7B5
:101D30009DFF05E0204600F075F8204600F00EF902
:101D400000202077E806A2D520686FF0100101611D
:101D500008212177C06910F4407F03D02046FFF7A7
:101D600085FF05E0204600F05DF8204600F0F6F81B
:101D700000202077E8073FF48CAF20686FF0010166
:101D80000161204600F048F928067FF584AF2068FD
:101D90006FF0800101612046FFF78AFD68067FF53C
:101DA00083AF7AE770B586B040F60004C4F2010450
:101DB000006804F5105188424FF00000CDE904009E
:101DC000CDE9020001D006B070BD41F21800C4F2A6
:101DD0000200016802AD41F00801016001680226BD
:101DE00001F0080101910199016841F004010160CD
:101DF0000068294600F00400019001984FF460400B
:101E0000029004F5806003960596FFF7D1F84FF431
:101E1000E060CDE90206204629460596FFF7C8F89E
:101E200006B070BD70470000B0B5044690F83C00A5
:101E3000012804BF0220B0BD0D464FEAB2010120C7
:101E4000032984F83C0037D8DFE801F0020A1222A7
:101E50002068294600F09CFC206850F8181F0EE00E
:101E60002068294600F0C4FC206850F8181F16E0CE
:101E70002068294600F0F0FC206850F81C1F41F053
:101E800008010160016821F00401016029690FE087
:101E90002068294600F012FD206850F81C1F41F40C
:101EA00000610160016821F4806101602969090213
:101EB0000268114301600020002184F83C10B0BD8D
:101EC000002804BF0120704710B5044690F83D007B
:101ED00028B9002084F83C00204600F01FF80220BA
:101EE00084F83D002068211D00F0CCFB012084F81F
:101EF000460084F83E0084F83F0084F8400084F8EF
:101F0000410084F8420084F8430084F8440084F8D7
:101F1000450084F83D00002010BD000080B582B06F
:101F20000068B0F1804F01D002B080BD41F21C00CA
:101F3000C4F202000168002241F001010160006862
:101F4000002100F00100019001981C20FFF7A4F986
:101F50001C20FFF79DF902B080BD00007047000013
:101F6000B0B5044641B1082909D0042914BF04F1D1
:101F7000410004F13F0004E004F13E0001E004F1FF
:101F80004000007801281CBF0120B0BD022041B1F3
:101F9000082909D0042914BF84F8410084F83F00BF
:101FA00004E084F83E0001E084F84000206842F636
:101FB00044450122C4F2010500F0B2FB2068A5F1FE
:101FC0004401884203D1296841F40041296040F26C
:101FD000FF71C4F20001884205DCB0F1804F0ED0E1
:101FE00040F2004107E042F60041C4F2010188429C
:101FF00005D040F60001C4F20001884206D1816894
:1020000001F00701062904BF0020B0BD016841F0BE
:10201000010101600020B0BD704700007047000062
:10202000FEE70000B0B588B040F2644042F20041E3
:102030000024C2F20000C4F201014FF46022012525
:102040000794CDE90544CDE90344CDE90144047387
:102050000475C261C0E9001484600561FEF7A4FE46
:10206000002818BFFEF7F8F940F26440C2F2000001
:1020700001A9CDE90145059503940794ADF81840F1
:102080000494FEF741FC002818BFFEF7E5F908B0FC
:10209000B0BD0000B0B588B040F2944042F60001F7
:1020A0000024C2F20000C4F201014FF460220125B5
:1020B0000794CDE90544CDE90344CDE90144047317
:1020C0000475C261C0E9001484600561FEF76CFE0E
:1020D000002818BFFEF7C0F940F29440C2F2000099
:1020E00001A9CDE90155059503940794ADF8184071
:1020F0000494FEF709FC002818BFFEF7ADF908B0FC
:10210000B0BD000083B041F21800C4F202000168C3
:1021100041F020010160016801F020010291029963
:10212000016841F004010160016801F004010191BE
:102130000199016841F008010160006800F00800A1
:102140000090009803B0704710B596B040F2C440BC
:1021500042F600420021C2F20000C4F201024FF038
:10216000800E1591CDE91311CDE91111CDE90F11B3
:10217000CDE90D11CDE90B11CDE90911CDE907111B
:10218000CDE90511CDE90311CDE901110223402468
:102190004FF4E16C80E81C10C0E90411C0F818E0AD
:1021A000FFF740FC002818BFFEF756F94FF48050A7
:1021B000129040F2C440C2F2000012A9FFF7E6FC00
:1021C000002818BFFEF748F940F2C440C2F20000F0
:1021D000FFF776FE002818BFFEF73EF9702010903A
:1021E00040F2C4400024C2F2000010A91194FFF78D
:1021F00089FB002818BFFEF72FF96020CDE90904FC
:1022000040F2C440C2F2000009A90022CDE90B440B
:10221000CDE90D440F94FFF707FE002818BFFEF725
:102220001BF940F2C440C2F2000009A90422FFF7E2
:10223000FBFD002818BFFEF70FF940F2C440C2F2C0
:10224000000009A90822FFF7EFFD002818BFFEF7DC
:1022500003F97020099040F207700A9040F2C440E0
:10226000C2F2000009A90C22FFF7DEFD002818BF0A
:10227000FEF7F2F800200521CDE901000390CDE939
:1022800004104FF40051089040F2C4400691C2F28D
:10229000000001A9FFF710FB002818BFFEF7DCF8CB
:1022A00040F2C440C2F20000FFF77CFD16B010BD42
:1022B00010B58AB040F20C500024C2F200004FF07A
:1022C000804142F210730994CDE90744CDE90544F9
:1022D000CDE90344CDE90144482280E81600C0E975
:1022E00003348461FFF7ECFD002818BFFEF7B4F853
:1022F00040F20C50C2F2000008A9CDE90844FFF7F3
:1023000001FB002818BFFEF7A7F86020019000200D
:10231000CDE90200059040F20C50C2F2000001A984
:102320000022FFF781FD002818BFFEF795F80AB0DC
:1023300010BD0000FEE70000FEE7000000F007000F
:1023400080F00703042B28BF04234FF0FF3C033821
:102350000CFA03F338BF0020994381400CFA00F0D7
:1023600022EA000008437047704700002DE9F04161
:1023700004460846114600F005FF2169D4E90068CB
:102380000546E06000F020FC074620612846314603
:1023900000F02CFE05463846414600F027FE014677
:1023A000284600F011FCE061BDE8F0810022C0E9A0
:1023B0000022C0E90222C0E90422C0E906220A681C
:1023C00002604A6842608A688260CA68426109693C
:1023D0008161704781B040F20000C2F200000068E5
:1023E00044F6D351C1F26201A0FB0101480A0090FA
:1023F00000BF0098411E00280091F9D101B070473C
:102400007047000070B540F2B830C2F20000D0E969
:102410000F56446C2846314600F04DFC40B930461A
:10242000214600F056FC002804BF052070BD07E0DF
:102430002846214600F04DFC002804BF032070BD53
:10244000062070BD70B5064640F264400D46C2F2EB
:10245000000001211446FEF73BFB40F25041C2F25E
:102460000001086040F29440C2F200000121FEF732
:102470002FFB40F2C441C2F20001096840F254420D
:10248000C2F2000210604E638D63CC63486B40F271
:102490005842C2F200021060886B40F25C42C2F205
:1024A00000021060C86B40F26041C2F20001086097
:1024B00070BD0000B0B540F2B830C2F2000090F834
:1024C000380006281ED8012505FA00F010F0680F24
:1024D00008BFB0BD40F24444C2F2000440F2644080
:1024E000C2F200002146C4E90055A560FEF75AFB80
:1024F00040F29440C2F200002146C4E90055A560B4
:10250000FEF750FBB0BD0000B0B540F20C50C2F277
:102510000000FFF707FB40F2C444C2F2000420466B
:10252000FFF7D0FA20460C21FFF71AFD40F2644570
:10253000C2F200052846FEF7DFFA2868416841F03C
:102540008001416020460021FFF70AFD204604215A
:10255000FFF706FD20460821FFF702FD2046002177
:10256000FFF70CFA20460421FFF708FA204608215D
:10257000FFF704FAB0BD0000B0B501380024B4EB99
:10258000106F1CBF0120B0BD4EF21005CEF2000549
:1025900068604FF0FF300F2100F0F4F90720AC60C5
:1025A00028602046B0BD000080B5FEF705FE80BD66
:1025B00070B594B00AAC20462821FDF705FE012035
:1025C0000A900E904FF4E01000254FF4803102265F
:1025D000139020460995CDE90755CDE90555CDE97C
:1025E0000355CDE90155CDE90B15CDE91161FEF794
:1025F000D5FFC0B90F20CDE905064FF48060CDE9C5
:10260000080505A802210795FEF7DEFE58B902204D
:1026100001904FF40040039001A8FEF751FE0028FE
:1026200004BF14B070BDFDF717FF00007047000035
:1026300080B540F2C440C2F20000FFF719FB80BD34
:10264000B0B540F2240040F2B835C2F20000C2F248
:1026500000050068D5F8881000F0B6FA0021C4F231
:102660003431044600F020FB002840F20C50C2F246
:1026700000001CBF0024CCF23434C5F88840FFF7BA
:10268000F7FAB0BD10B540F2FF7E0368C4F2000E49
:1026900042F6004C7045C4F2010C05DCB0F1804FED
:1026A0000AD040F2004203E0604505D040F6000247
:1026B000C4F20002904203D14A6823F0700313432E
:1026C000704505DCB0F1804F0AD040F2004203E0D3
:1026D000604505D040F60002C4F20002904203D1EA
:1026E000CA6823F44073134323F080024B69D1F886
:1026F00000E08C681A4360450260C462C0F828E0BC
:1027000002D10969CCF83010012141610169C90782
:1027100008BF10BD016921F00101016110BD000079
:1027200080B501F01F014FF0010CD0F820E00CFA49
:1027300001F32EEA03030362036A02FA01F119436B
:10274000016280BD80B501F00F014FF0040CD0F89C
:1027500020E00CFA01F32EEA03030362036A02FA93
:1027600001F11943016280BDD0F808C011432CF477
:102770007F4C41EA032141EA0C018160704700006F
:10278000826822F07002114341F0070181607047B6
:10279000B0B5026A036A42F6004423F00103036203
:1027A000D0F804E0D0F818C08B6822F00202C4F21E
:1027B0000104A04242EA030205D1CB6822F00C02D8
:1027C00023F004031A430B68A04207D1D1E9054561
:1027D0002EF4407E44EA0E0444EA050E2CF0730504
:1027E0002B43C0F804E08361496841630262B0BDD5
:1027F000B0B5026A036A42F6004423F01003036294
:10280000D0F804E0D0F818C08B6822F02002C4F29F
:102810000104A04242EA031207D1CB686FF04005E1
:1028200022F0C00205EA03131A430B68A04207D145
:10283000D1E905452EF4406E4EEA840444EA850E43
:102840002CF4E64545EA0323C0F804E083614968B7
:1028500081630262B0BD0000B0B5026A036A42F64D
:10286000004423F480730362D0F804E0D0F81CC065
:102870008B6822F40072C4F20104A04242EA0322EF
:1028800007D1CB6840F2FF451B0222F44062AB4304
:102890001A430B68A04207D1D1E905452EF4405EEA
:1028A0004EEA041444EA051E2CF073052B43C0F8CD
:1028B00004E0C3614968C1630262B0BDB0B5D0F83D
:1028C00020C0026A42F6004522F480520262426849
:1028D000C3690C68D1F808E0C4F20105A84204D12C
:1028E0004D6922F4804242EA851223F4E64343EA2A
:1028F00004234260C3612CF40055496845EA0E3256
:1029000001640262B0BD0000D0F820C0036A23F069
:1029100001030362836923F0F00343EA02122CF0FF
:102920000A0319438261016270470000D0F820C099
:10293000036A23F010030362836923F4704343EABC
:1029400002322CF0A00343EA011182610162704758
:10295000FEE70000002848BF704700F01F01012279
:1029600002FA01F14EF200124009CEF2000242F8E2
:10297000201070474EF60C50CEF200000068C0F3F5
:10298000022070474EF6145300F00F02CEF20003FF
:1029900009011A4400F16043B0F1FF3FC8BF03F5DD
:1029A00064421170704700004EF60C51CEF20001E7
:1029B0000A684FF6FF031A4060F30A2242F0806073
:1029C00040F0FD7008607047B0B520F00044002171
:1029D000C4F2B421204600F06EF948B90020C4F2D8
:1029E000B420214600F0CEFB0024C4F2C82419E034
:1029F0000021C4F2B421204600F06BF90025CBF68B
:102A0000807510BB0021C4F23431204600F053F928
:102A1000D8B90021CCF2B421204600F0D5F800242A
:102A2000CCF2C824002120F00040C4F2201100F0B4
:102A3000DDFA00F057FA43F28021C0F6000151F8A8
:102A40002000214600F058F905462846B0BD000098
:102A5000FEF7C0FBFFF7ACFDFFF754FBFFF7E2FA10
:102A6000FFF718FBFFF770FBFFF722FCFDF720FFD5
:102A700040F20404C2F200042068FDF7F3FCFBE717
:102A80002DE9F04381B040F2B839C2F20009D9F81B
:102A900088402046FFF798FFD9F818500646294687
:102AA00000F0A4FA8046204600F01EF8D9F8144041
:102AB0000746214600F09AFA0146404600F062FBC4
:102AC000C9F80C002846394600F090FA0546304611
:102AD000214600F08BFA0146284600F075F8C9F847
:102AE000100001B0BDE8F083B0B50021044600F04D
:102AF000F0F830B90021C4F2B421204600F0E9F822
:102B0000A0B90021C4F2B421204600F0E2F828BBAD
:102B10000021C4F23431204600F0CDF8F0B9002095
:102B2000C4F23430214600F02DFB04460025C4F2E7
:102B3000C825002124F00040C4F2201100F056FA0C
:102B400000F0D0F943F28021C0F6000151F82000D6
:102B5000294600F0D1F805462846B0BD0021CCF248
:102B60003431204600F0B5F868B90021CCF2B42128
:102B7000204600F0A0F830B90021C4F234312046DC
:102B800000F022F81AE00021CCF2B421204600F037
:102B9000A0F800284FF00005DED12046002100F00B
:102BA0008AF80028D8D10025C4F2343520462946B9
:102BB00000F00AF80146284600F0E4FA0025044631
:102BC000CCF2C825B5E7000090EA010F48BF81F0BC
:102BD000004100F1DE82421A3CBF801A89184FEA98
:102BE000D052A2EBD1534FF07F4C1CEA410F18BFDB
:102BF0009CEA026F00F03B804FF0004C4CEA002052
:102C00004CEA012121FA03FC10EB0C0C1ED202F15C
:102C1000FF325FEA1C2040EBC25038BF70471CF007
:102C20007F0F4FEA400C18BFBCF17F4F38BF704791
:102C3000C3F12003994008BF20F00100BCF17F4F91
:102C400038BF7047A0F1C04000F097BA4FEA3C008F
:102C5000000A40EBC25028BF1CF0FF0F4FEA400CA7
:102C6000E6D018BFBCF17F4F38BF7047EAE79CEA57
:102C7000026F05D010EA5C0F08BF00F000407047FB
:102C800010B500F034FA00BF64FBBE3E10B500F092
:102C9000F5F80CBF0120002010BD10B500F0EEF8D3
:102CA00014BF0120002010BD10B500F037F98CBF13
:102CB0000120002010BD10B500F030F92CBF01201C
:102CC000002010BD10B500F05DF994BF0120002078
:102CD00010BD10B500F056F934BF0120002010BD22
:102CE000401058BFC0F14040491058BFC1F14041A9
:102CF0008142EFF3008070474FF47F0C1CEAD01242
:102D00001EBF1CEAD11392EA0C0F93EA0C0F00F0DD
:102D1000858090EA010F48BF42F4807240F4000CB5
:102D200041F400002CF07F4120F07F4000B5A2EB81
:102D3000030281420FF2081CACEB504E9EF800E0FB
:102D4000C0F100004FEA4E0E00FB0EFC38BF4900F8
:102D50004FEA2C1C0CFB0EF34FEACE1E0EEB635E0B
:102D60004FEA112C0EFB0CFC4FEAC1214FEA1C5319
:102D700000FB031102F5FA024FEA112C0EFB0CFCCA
:102D80004FEA01314FEADC4C00FB0C1142EB2242CE
:102D9000C14228BF09184CEB03335DF804EB10EB7C
:102DA000410143EBC250B2F57C0F38BF704729D5C3
:102DB00012F0F00F1CBF00F1C04000F0004070475F
:102DC000008182838485868788898B8C8D8E8F9104
:102DD0009293959697999A9C9D9FA0A2A3A5A7A828
:102DE000AAACAEB0B2B3B5B7B9BCBEC0C2C5C7C954
:102DF000CCCED1D4D7D9DCDFE2E6E9ECF0F3F7FAB8
:102E0000FE0000004FEA400C0CF1807CBCF17E4FCC
:102E100028BF7047B0F1C04000F0AFB90CEAD11341
:102E200090EA010F48BF42F48072624538BF6345A3
:102E300007D213F47F0F16D080EA010000F00040A3
:102E4000704710B500F053F9097EFC3E00F005B85C
:102E500080EA010000F00040704780EA010000F0C5
:102E6000004000F08AB912F47F0F04BF0248704797
:102E700080EA010000F081B90000C07F50EA010C37
:102E800000F113801CF5000F58BFBCF5000F01D4F2
:102E90008842704707D710F5000F58BF11F5000F93
:102EA00015D488427047894270471CF5000F04D53D
:102EB000BCF5000FF7D5814270474FF0807C1CEBCA
:102EC000400F38BF1CEB410F01D28142704710B553
:102ED00000F00DF9922449004FF000504FF080515E
:102EE000FFF7FEBE41000B0ED3F19E0208D950F44D
:102EF00000034FEA032323FA02F048BF4042704721
:102F000010B500F0F4F800BF49922480002070470B
:102F10006FF0004282EA20007047000050EA010C86
:102F200000F113801CF5000F58BFBCF5000F01D451
:102F30008842704707D710F5000F58BF11F5000FF2
:102F400015D488427047894270471CF5000F04D59C
:102F5000BCF5000FF7D5814270474FF0807C1CEB29
:102F6000400F38BF1CEB410F01D28142704710B5B2
:102F700000F0BDF8922449004FF080504FF000510E
:102F8000FFF7AEBE50EA010C00F113801CF5000FF4
:102F900058BFBCF5000F01D48842704707D710F521
:102FA000000F58BF11F5000F15D4884270478942B1
:102FB00070471CF5000F04D5BCF5000FF7D5814212
:102FC00070474FF0807C1CEB400F38BF1CEB410F6B
:102FD00001D28142704710B500F089F8922449006F
:102FE0004FF000504FF08051FFF77ABE4FF47F0C46
:102FF0001CEAD0121EBF1CEAD11392EA0C0F93EA0E
:103000000C0F00F0478090EA010F48BF42F4807235
:103010004FF0004C4CEA00204CEA012102EB030285
:10302000A0FB0113A2F50002002918BF43F0010321
:103030005B0028BF4FEA330342EB22425FEA132CC6
:103040004CEBC2502EBFBCEB436FB2F57C0F704708
:103050004FEA036CBCF1004F08BF20F00100B2F54D
:103060007C0F38BF70470BD582F0FF0212F5803F0E
:10307000C8BF704700F1C040D8BF00F000407047A3
:1030800000F5000C5FEA4C0C48BF7047B0F1C0403F
:1030900000F073B80CEAD11390EA010F48BF42F474
:1030A0008072624538BF634504D280EA010000F0B7
:1030B0000040704710B500F01AF800BF8900013ECB
:1030C00000F007B800F009B85FEA410C5FEA1C6C39
:1030D00008D080EA010000F050B85FEA400C5FEAD7
:1030E0001C6CF6D14FF00040A0F5800070470EF147
:1030F000020E2EF0030E5EF8044B244204D44FEA75
:103100004102B2F17F4F11D84FEA4003B3F17F4F34
:103110000CD80ED14FEAD07C0CEB4C0C0CF1020C0D
:10312000B2F17F4F08BF4CEBD17C04E04FF0080CAC
:1031300001E04FEAD17C0CEB4C0324FA03F404F0D9
:103140000704B4F1040C06D20EEB840CBDE8104069
:103150004CF0010C6047DFE80CF0070802024FF06A
:103160000040A0F5800010BD0846420018BFD2F113
:10317000807288BF00F0004010BDFF2141EAD050AE
:10318000C005704790EA010F48BF81F000413FF54C
:1031900022AD421A04D882F00042A0EB0200114492
:1031A0004FEAD052A2EBD1534FF07F4C1CEA410FB3
:1031B00018BF9CEA026F4AD04FF0004C4CEA002046
:1031C0004CEA012121FA03FCB0EB0C0C0FD412F0F5
:1031D000FE0F36D05FEA4C001DD5001240EBC25006
:1031E00038BF70471CF03F0F18BF70470BE05FEA15
:1031F0001C20A2F1010240EBC25038BF70471CF006
:103200007F0F18BF7047C3F12003994014BF401EC1
:1032100020F0010070474FEA1223800808BF704772
:10322000B0FA80FCA2EB0C02CCF1280C60FA0CF096
:1032300093EA122F04BF00EBC25070474FEAC370ED
:103240007047130A5FEADC1008BF7047F6E79CEA94
:10325000026F04D010EA5C0F08BF0020704710B561
:10326000FFF745FF40DFF63E81F000407047000069
:103270000000000000000102030406070809000026
:1032800000000000BCB8323EABB8B23E6A0A063F4E
:1032900063B8323F39665F3FF109863FAB609C3FC0
:1032A00046B7B23FBD0DC93F0C64DF3F2EBAF53FB4
:1032B00010080640ED321140AE5D1C40508827409A
:1032C000D0B232402DDD3D40630749407231544059
:1032D000565B5F400D856A4096AE7540F76B804047
:1032E0008900864001958B405C2991409BBD9640AA
:1032F000BB519C40BDE5A1409E79A7405D0DAD400E
:10330000FAA0B2407334B840C8C7BD40F75AC340B2
:10331000FEEDC840DE80CE409413D44020A6D940B4
:103320008138DF40B5CAE440BB5CEA4093EEEF4031
:103330003A80F540B111FB407B510041031A034133
:1033400072E20541C6AA0841FE720B411B3B0E41C9
:103350001B031141FECA1341C49216416C5A194114
:10336000F5211C415FE91E41A9B02141D3772441D9
:10337000DC3E2741C3052A4189CC2C412C932F41A7
:10338000AD5932410920354142E6374155AC3A4109
:1033900044723D410D384041AFFD42412AC3454191
:1033A0007E884841AA4D4B41AD124E4187D75041CE
:1033B000389C5341BE6056411925594149E95B414A
:1033C0004DAD5E4125716141D03464414DF8664197
:1033D0009CBB6941BC7E6C41AD416F416F04724141
:1033E00000C77441608977418F4B7A418B0D7D41D5
:1033F00056CF7F417648814128A98241C009844146
:103400003D6A8541A0CA8641E82A8841148B8941DA
:1034100026EB8A411B4B8C41F4AA8D41B20A8F41A5
:10342000526A9041D6C991413D2993418688944181
:10343000B1E79541BF469741AFA5984180049A41B5
:1034400032639B41C5C19C4139209E418E7E9F4184
:10345000C2DCA041D73AA241CB98A3419EF6A44139
:103460005054A641E2B1A741510FA941A06CAA4115
:10347000CCC9AB41D526AD41BC83AE4181E0AF4163
:10348000223DB141A099B241FAF5B3413052B54164
:1034900042AEB641300AB841F865B9419CC1BA4163
:1034A0001B1DBC417478BD41A7D3BE41B42EC041A1
:1034B0009B89C1415BE4C241F43EC4416699C54168
:1034C000B0F3C641D34DC841CEA7C941A101CB41FC
:1034D0004B5BCC41CCB4CD41240ECF415367D0419E
:1034E00058C0D1413319D341E571D4416BCAD5419C
:1034F000C722D741F97AD841FFD2D941D92ADB4135
:103500008882DC410ADADD416131DF418B88E041AC
:1035100088DFE1415836E341FA8CE4416FE3E5414D
:10352000B639E741CF8FE841BAE5E941753BEB4158
:103530000291EC4160E6ED418E3BEF418C90F04111
:103540005BE5F141F939F341668EF441A3E2F541BF
:10355000AE36F741888AF84131DEF941A831FB41A6
:10356000EC84FC41FED7FD41DE2AFF41C53E00420E
:1035700002E80042259101422E3A02421DE3024236
:10358000F28B0342AC3404424DDD0442D385054244
:103590003E2E06428ED60642C37E0742DE260842F3
:1035A000DDCE0842C1760942891E0A4236C60A4269
:1035B000C76D0B423C150C4296BC0C42D3630D42C6
:1035C000F40A0E42F9B10E42E1580F42ACFF0F422D
:1035D0005BA61042ED4C114262F31142BA991242BD
:1035E000F43F134211E61342118C1442F331154299
:1035F000B7D715425D7D1642E622174250C81742E2
:103600009B6D1842C9121942D7B71942C75C1A42BA
:1036100099011B424BA61B42DE4A1C4252EF1C4240
:10362000A7931D42DC371E42F2DB1E42E87F1F4299
:10363000BE23204274C720420A6B2142800E2242E0
:10364000D5B122420A5523421EF82342129B24423E
:10365000E53D254297E025422783264297252742CC
:10366000E5C72742116A28421C0C294205AE2942AF
:10367000CD4F2A4272F12A42F5922B4256342C4207
:1036800095D52C42B1762D42AA172E4281B82E42F2
:1036900035592F42C5F92F42339A30427D3A314293
:1036A000A4DA3142A87A3242881A334244BA334209
:1036B000DC59344250F93442A1983542CC37364275
:1036C000D4D63642B7753742751438420FB33842F4
:1036D00084513942D3EF3942FE8D3A42032C3B42AA
:1036E000E3C93B429E673C4233053D42A2A23D42B4
:1036F000EB3F3E420FDD3E420C7A3F42E316404232
:1037000094B340421E50414281EC4142BE88424245
:10371000D4244342C3C043428B5C44422CF844420D
:10372000A6934542F82E464222CA464225654742A4
:1037300000004842B39A48423E354942A1CF49422F
:10374000DC694A42EE034B42D79D4B4298374C42CC
:1037500030D14C42A06A4D42E6034E42039D4E4298
:10376000F7354F42C2CE4F4263675042DAFF5042B4
:10377000289851424C30524246C852421660534239
:10378000BCF75342378F544288265542AEBD55424E
:10379000AA5456427BEB5642218257429C1858420B
:1037A000ECAE5842104559420ADB5942D7705A4292
:1037B00079065B42F09B5B423A315C4259C65C42FF
:1037C0004B5B5D4212F05D42AC845E4219195F4270
:1037D0005AAD5F426F41604257D560421169614204
:1037E0009FFC6142009062423323634239B66342D8
:1037F00012496442BDDB64423A6E65428A00664209
:10380000AB9266429F24674264B66742FC476842B7
:1038100064D968429F6A6942AAFB6942888C6A42FD
:10382000361D6B42B5AD6B42053E6C4226CE6C42F6
:10383000185E6D42DAED6D426D7D6E42D10C6F42C5
:10384000049C6F42082B7042DCB970427F48714281
:10385000F3D671423665724249F372422C8173424B
:10386000DD0E74425E9C7442AF297542CEB675423D
:10387000BC43764279D07642055D77425FE9774274
:103880008875784280017942458D7942D9187A420B
:103890003BA47A426B2F7B4268BA7B4234457C4220
:1038A000CDCF7C42345A7D4268E47D42696E7E42CF
:1038B00037F87E42D3817F429E058042394A80425A
:1038C000BA8E804221D380426F178142A35B81422E
:1038D000BD9F8142BDE38142A4278242706B824238
:1038E00023AF8242BBF28242393683429D798342C2
:1038F000E6BC8342160084422B43844225868442E0
:1039000006C98442CB0B8542764E8542079185429B
:103910007DD38542D8158642185886423E9A864203
:1039200048DC8642381E87420D608742C6A1874226
:1039300065E38742E9248842516688429EA788420F
:10394000D0E88842E6298942E16A8942C1AB8942CE
:1039500085EC89422E2D8A42BB6D8A422CAE8A426A
:1039600082EE8A42BC2E8B42DA6E8B42DDAE8B42F7
:10397000C3EE8B428E2E8C423C6E8C42CFAD8C427D
:1039800046ED8C42A02C8D42DE6B8D4200AB8D4209
:1039900006EA8D42EF288E42BC678E426CA68E42AC
:1039A00000E58E4278238F42D3618F4211A08F426F
:1039B00033DE8F42381C9042205A9042EB9790425F
:1039C00099D590422B139142A0509142F78D91428C
:1039D00032CB91424F0892424F45924232829242FC
:1039E000F8BE9242A1FB92422C3893429A749342C1
:1039F000EAB093421DED9342322994422A659442E3
:103A000004A19442C0DC94425F189542E053954271
:103A1000438F954288CA9542B0059642B940964276
:103A2000A57B964272B6964221F19642B32B9742FD
:103A3000266697427AA09742B1DA9742C914984213
:103A4000C34E98429E8898425BC29842FAFB9842C5
:103A50007A359942DB6E99421EA8994242E1994219
:103A6000471A9A422E539A42F58B9A429EC49A4222
:103A700028FD9A4293359B42E06D9B420DA69B42E6
:103A80001BDE9B4209169C42D94D9C428A859C4272
:103A90001BBD9C428DF49C42DF2B9D4213639D42D3
:103AA000279A9D421BD19D42F0079E42A53E9E4211
:103AB0003B759E42B1AB9E4207E29E423E189F423A
:103AC000554E9F424C849F4223BA9F42DBEF9F4258
:103AD0007225A042EA5AA0424190A04279C5A04274
:103AE00090FAA042872FA1425E64A1421599A1429B
:103AF000ACCDA1422202A2427836A242AD6AA242D5
:103B0000C29EA242B7D2A2428B06A3423F3AA34230
:103B1000D26DA34244A1A34296D4A342C707A442B4
:103B2000D73AA442C66DA44295A0A44243D3A4426E
:103B3000D005A5423C38A542876AA542B09CA54263
:103B4000B9CEA542A100A6426832A6420D64A642A3
:103B50009195A642F4C6A64236F8A6425629A74237
:103B6000555AA742338BA742EFBBA74289ECA74225
:103B7000031DA8425A4DA842907DA842A4ADA84278
:103B800097DDA842680DA942173DA942A46CA9423D
:103B9000109CA9425ACBA94282FAA9428729AA427B
:103BA0006B58AA422D87AA42CDB5AA424BE4AA423D
:103BB000A612AB42E040AB42F76EAB42EC9CAB428C
:103BC000BFCAAB4270F8AB42FE25AC426A53AC426E
:103BD000B380AC42DAADAC42DFDAAC42C107AD42F1
:103BE0008034AD421D61AD42978DAD42EFB9AD421B
:103BF00024E6AD423612AE42263EAE42F269AE42F5
:103C00009C95AE4223C1AE4287ECAE42C917AF428B
:103C1000E742AF42E26DAF42BA98AF4270C3AF42E3
:103C200002EEAF427118B042BD42B042E56CB04204
:103C3000EB96B042CDC0B0428CEAB0422714B142FC
:103C4000A03DB142F466B1422690B14234B9B142CE
:103C50001EE2B142E50AB2428933B242095CB24285
:103C60006584B2429DACB242B2D4B242A4FCB2422C
:103C70007124B3421B4CB342A173B342039BB342C2
:103C800041C2B3425CE9B3425210B4422537B44258
:103C9000D35DB4425E84B442C4AAB44207D1B442F4
:103CA00025F7B4421F1DB542F542B542A768B5429B
:103CB000358EB5429EB3B542E4D8B54204FEB54256
:103CC0000123B642D947B6428D6CB6421C91B6422A
:103CD00087B5B642CDD9B642EFFDB642ED21B74227
:103CE000C645B7427A69B742098DB74274B0B74248
:103CF000BBD3B742DCF6B742D919B842B13CB8429F
:103D0000655FB842F381B8425DA4B842A2C6B8422A
:103D1000C2E8B842BD0AB942932CB942444EB942F6
:103D2000D06FB9423791B94279B2B94296D3B9420C
:103D30008EF4B9426115BA420F36BA429756BA426A
:103D4000FB76BA423997BA4251B7BA4245D7BA421E
:103D500013F7BA42BC16BB424036BB429E55BB422B
:103D6000D674BB42EA93BB42D8B2BB42A0D1BB429D
:103D700043F0BB42C10EBC42182DBC424B4BBC426F
:103D80005769BC423F87BC4200A5BC429CC2BC42B2
:103D900012E0BC4262FDBC428D1ABD429237BD4268
:103DA0007154BD422B71BD42BE8DBD422CAABD4295
:103DB00074C6BD4296E2BD4292FEBD42681ABE4242
:103DC0001836BE42A251BE42066DBE424588BE4272
:103DD0005DA3BE424FBEBE421BD9BE42C1F3BE422E
:103DE000410EBF429A28BF42CE42BF42DB5CBF4277
:103DF000C276BF428390BF421EAABF4292C3BF4257
:103E0000E0DCBF4208F6BF42090FC042E527C042CE
:103E10009940C0422859C0429071C042D189C042E5
:103E2000ECA1C042E1B9C042AFD1C04257E9C042A3
:103E3000D800C1423318C142672FC1427546C14202
:103E40005C5DC1421C74C142B68AC14229A1C14213
:103E500075B7C1429BCDC1429AE3C14272F9C142DA
:103E6000240FC242AF24C242133AC242514FC2424F
:103E70006764C2425779C242208EC242C2A2C24285
:103E80003DB7C24292CBC242BFDFC242C6F3C2427A
:103E9000A607C3425E1BC342F02EC3425B42C3422D
:103EA0009F55C342BC68C342B27BC342808EC342AB
:103EB00028A1C342A9B3C34203C6C34235D8C342F3
:103EC00041EAC34225FCC342E20DC442781FC4420A
:103ED000E730C4422F42C4425053C4424964C442F2
:103EE0001B75C442C685C4424A96C442A7A6C442B2
:103EF000DCB6C442EAC6C442D1D6C44290E6C4424B
:103F000028F6C4429905C542E214C5420524C542BB
:103F1000FF32C542D341C5427F50C542035FC5420F
:103F2000606DC542967BC542A589C5428C97C54246
:103F30004BA5C542E3B2C54254C0C5429DCDC54262
:103F4000BEDAC542B8E7C5428BF4C5423601C64267
:103F5000BA0DC642161AC6424A26C6425732C64251
:103F60003C3EC642FA49C6429055C642FF60C64230
:103F7000466CC6426577C6425D82C6422D8DC642FA
:103F8000D697C64256A2C642B0ACC642E1B6C642B9
:103F9000EBC0C642CDCAC64288D4C6421ADEC6426B
:103FA00085E7C642C9F0C642E4F9C642D802C74214
:103FB000A50BC7424914C742C61CC7421B25C742AE
:103FC000482DC7424D35C7422B3DC742E144C74249
:103FD0006F4CC742D653C742145BC7422B62C742DD
:103FE0001A69C742E16FC7428076C742F87CC74270
:103FF0004883C7426F89C7426F8FC7424895C742FF
:10400000F89AC74280A0C742E1A5C7421AABC7428F
:104010002BB0C74214B5C742D5B9C7426EBEC7421E
:10402000E0C2C74229C7C7424BCBC74245CFC742B0
:1040300017D3C742C1D6C74243DAC7429DDDC74244
:10404000CFE0C742DAE3C742BCE6C74277E9C742DE
:104050000AECC74274EEC742B7F0C742D2F2C74279
:10406000C5F4C74291F6C74234F8C742AFF9C74218
:1040700002FBC7422EFCC74231FDC7420DFEC742BC
:10408000C1FEC7424CFFC742B0FFC742ECFFC74268
:104090000000C842B84000080000002030000000C6
:1040A00028010008E840000830000020280B00002C
:1040B000440100080000000000127A000000A04047
:1040C00001000000010000000000803F000000002F
:1040D00000000000000000000000000000000040A0
:0840E0000100000010000000C7
:04000005080000ED02
:00000001FF
