:020000040800F2
:100000008006002001010008090100080B0100081A
:100010000D0100080F010008110100080000000098
:1000200000000000000000000000000013010008B4
:100030001501000800000000170100081901000860
:100040001B0100081B0100081B0100081B01000820
:100050001B0100081B0100081B0100081B01000810
:100060001B0100081B0100081B0100081B01000800
:100070001B0100081B0100081B0100081B010008F0
:100080001B0100081B0100081B0100081B010008E0
:100090001B0100081B0100081B0100081B010008D0
:1000A0001B0100081B0100081B0100081B010008C0
:1000B0001B0100081B0100081B0100081B010008B0
:1000C0001B0100081B0100081B0100081B010008A0
:1000D0001B010008D52500081B0100081B010008B2
:1000E0001B0100081B0100081B010008DFF80CD0F1
:1000F00000F00AFD0048004769490008800600201A
:100100000648804706480047FEE7FEE7FEE7FEE7B1
:10011000FEE7FEE7FEE7FEE7FEE7FEE7CD1F00088D
:10012000ED000008F0B480EA0102D40F4200B2EB07
:10013000410F02D20246084611464A0042D0C30D82
:10014000DDB2C1F3C752AD1A202D35DAC1F3160165
:1001500041F4000204B15242C5F1200602FA06F150
:100160002A411044B3EBD05F23D0C4B1012DA0EBE2
:10017000C35009DCF0BC4FF0004202EAC352DBB2CC
:1001800000F5000000F0D9BB400000F1807000EBEA
:10019000C350A0F1807040EAD170490009E04908DD
:1001A00041EAC071A0EBC35000F50000400800EB2D
:1001B000C350F0BC00F0B8BB6142012202EB410128
:1001C000001BF6E7F0BC704781F00041AAE780F021
:1001D0000040A7E780EA010210B502F000434000AA
:1001E00022D04A001FD0010E01EB1261C0F356006D
:1001F000C2F3560240F4000042F40002A0FB0220C9
:1002000000047F39140400D0401C50EA124001D48D
:100210004000491EC2B20C0604EBD010401C40083E
:10022000802A02D003E0002010BD20F00100002948
:1002300000DA0020184310BD30B480EA010202F059
:10024000004530F0004221F0004013D090B1C30DC2
:10025000D40DC2F31601C0F31600E41A41F40001F4
:1002600040F400027D34914201D3641C00E0490057
:10027000002C02DA30BC002070474FF4000000234D
:10028000914201D3891A034340084FEA4101F7D153
:1002900051B1914202D14FF0004105E002D24FF03E
:1002A000010101E06FF0010103EBC450284430BCB0
:1002B00000F03ABB2DE9FE4F804681EA0300C00FF3
:1002C0000C46009021F0004123F00045B8EB0200FD
:1002D000A94105D24046214690461C460B4602469F
:1002E00023F00040104347D0270DC7F30A00C3F3A3
:1002F0000A510290401A019040286BDAC3F31300B0
:1003000040F4801B0098924620B10023D2EB030AF0
:1003100063EB0B0B01985946C0F14002504600F0C8
:1003200084FA06460D4650465946019A00F09CFA5A
:1003300010EB08006141002487EA115284EAE77358
:100340001A4340D0009A62B3019A012A4FEA075239
:1003500015DC001B61EB02014FF0004202EA07527C
:10036000CDE90042001C41F5801132462B4600F0D9
:1003700021FB03B0BDE8F08F40462146F9E7001BA2
:1003800061EB0201001C41F5801300185B4120184D
:10039000A2F5001747EB030140EAD570B6196D418D
:1003A00011E06D084FEA360645EAC0754FEA07527C
:1003B000001B61EB0201001C41F5801149084FEA66
:1003C00030000019514132462B4603B0BDE8F04FD2
:1003D00000F0E1BA0098012240000023D0EB0202B5
:1003E00063EBE073009821464FEAE074B8EB00003D
:1003F00061EB0401E9E783F000435BE781F0004132
:1004000058E72DE9FE4F81EA030404F0004421F08F
:10041000004100944FF0000B23F0004350EA010428
:100420005ED052EA03045BD0C3F30A54C1F30A5509
:100430002C44A4F2F3340194A0FB0254C1F3130141
:1004400041F48011C3F3130343F4801301FB02440E
:1004500000FB034E840A970A44EA815447EA835713
:10046000A4FB076802958D0A05FB07854FEA932CCC
:1004700004FB0C542705029D4FEA065847EA16373D
:10048000B5EB08056EEB070C870E920E47EA811755
:1004900042EA8312A7FB0201B6EB0B0164EB0004F6
:1004A0002B0D43EA0C335E1844EB1C50DA465146E0
:1004B000E7FB0201C5F313044FEA0B3343EA14537D
:1004C0004FEA0432019C43EA0603A4F10C040294AF
:1004D000009CCDE900B400F06DFA03B0BDE8F08FE8
:1004E00000200146F9E72DE9F04D81EA030404F00C
:1004F000004B21F0004514464FF0000A23F0004164
:1005000050EA050220D054EA01021DD0C5F30A5773
:100510000246C5F31303C1F31300C1F30A5640F4B6
:10052000801543F48013A7EB0608101BD64608F28B
:10053000FD3873EB050002D308F1010801E09218C1
:100540005B41B8F1000F03DA00200146BDE8F08DF1
:1005500000204FF48011064684460EE0171B73EB13
:10056000050705D3121B63EB050306434CEA010C98
:1005700049084FEA300092185B4150EA0107EDD17B
:1005800052EA030012D082EA040083EA050108431C
:1005900005D0101BAB4106D20122002306E0002249
:1005A0004FF0004302E06FF0010253101AEB060017
:1005B0004CEB085110EB0A0041EB0B01BDE8F04D8C
:1005C00000F0E9B9C10F80EAE0700844CA07962339
:1005D000002100F0B2B996230022114600F0ADB917
:1005E0000EB5C10F80EAE0700844CA07002140F24E
:1005F00033438DE80E000A460B4600F0DBF903B0EA
:1006000000BD0EB540F2334102910021CDE9001149
:100610000A460B4600F0CEF903B000BD20F00040C2
:10062000C10DC0F3160040F400007F2901DA00205C
:100630007047962903DCC1F19601C840704796398E
:100640008840704770B5C1F30A5201F0004500249C
:10065000C1F3130140F2FF3341F480119A4201DAF1
:10066000002070BD40F233439A42A2F2334203DCD1
:10067000524200F0E9F800E090402C43F1D04042B3
:1006800070BDC1F30A5210B5C1F3130140F2FF333C
:1006900041F480119A4201DA002010BD40F2334348
:1006A0009A42A2F2334203DC524200F0CDF810BD70
:1006B000904010BD00F0004230F000400AD0C10D63
:1006C00001F56071C0F3160042EA0151C20840070B
:1006D00011437047002001467047000030B5041EEA
:1006E00071F1000404DB4FF00044404264EB01016F
:1006F000141E73F1000405DB1C464FF00043524208
:1007000063EB04038B4208BF824230BD30B5041E48
:1007100071F1000404DB4FF00044404264EB01013E
:10072000141E73F1000405DB1C464FF000435242D7
:1007300063EB0403994208BF904230BD01F00043CF
:1007400030B421F0004150EA010206D00A0DA2F5B2
:100750006072C1F31301002A02DC30BC0020704734
:10076000440F44EAC104C100E01830BC00EBC250A1
:1007700000F0DAB8002801DBC0F10040002901DBFD
:10078000C1F1004181427047002801DBC0F1004007
:10079000002901DBC1F100418842704730B50B46AA
:1007A000014600202022012409E021FA02F59D42A1
:1007B00005D303FA02F5491B04FA02F52844151E75
:1007C000A2F10102F1DC30BD2DE9F05F0546002009
:1007D00092469B4688460646814640241BE02846B2
:1007E00041464746224600F02FF853465A46C01A63
:1007F000914110D311461846224600F016F82D1AE2
:1008000067EB01084F4622460120002100F00DF859
:1008100017EB00094E41201EA4F10104DFDC48461D
:1008200031462A464346BDE8F09F202A04DB203AA1
:1008300000FA02F1002070479140C2F1200320FA33
:1008400003F3194390407047202A04DB203A21FA31
:1008500002F00021704721FA02F3D040C2F12002D9
:100860009140084319467047202A06DBCB17203AEF
:1008700041FA02F043EAE07306E041FA02F3D040A5
:10088000C2F1200291400843194670470FB400237B
:1008900000B589B00CA900910B996FF00042CB60B4
:1008A0001E4B06931E4B07930423CDE901321D4ACC
:1008B000089202466B46002000F0BEF909B05DF8D0
:1008C00014FB70B586B006464FF0FF300091CDE9BD
:1008D0000101002015460C4604903246694604A8E2
:1008E000FFF7D4FF03460498211825B108B10A4642
:1008F00000E022462A6000280DD0002B02DD00987F
:10090000884208D0081B0094CDE9010432466946AC
:1009100004A8FFF7BBFF06B070BD0000710E000811
:100920008F0E00082D0B00080029A8BF7047401C3F
:10093000490008BF20F00100704710B4B0FA80FCF5
:1009400000FA0CF050EA010404BF10BC704749B132
:10095000CCF1200421FA04F411FA0CF118BF0121A2
:1009600021430843A3EB0C01CB1D4FEA00614FEA82
:10097000102042BF002010BC704700EBC350104451
:100980000029A4BF10BC7047401C490008BF20F0DC
:10099000010010BC704710B5141E73F1000408DA92
:1009A000401C41F1000192185B411A4301D120F033
:1009B000010010BD2DE9F04D92469B4611B1B1FAF0
:1009C00081F202E0B0FA80F220329046FFF72DFF6C
:1009D00004460F4640EA0A0041EA0B0153465A46D4
:1009E000084313D0114653EA010019D0C8F1400260
:1009F0005046FFF729FF05460E46504659464246E7
:100A0000FFF713FF084305D0012004E020463946D4
:100A1000BDE8F08D0020054346EAE0762C433743DD
:100A20000A986305E40AA0EB08000022FD0A44EAE4
:100A300047540A3002D500200146E9E701051019A4
:100A40006941DDE9084500196941BDE8F04DA2E7BB
:100A50002DE9FE4FC3F30A5701F000450024C1F30E
:100A60000A56C3F31303C1F3130143F4801312EBCB
:100A7000020AA64641F48011009543EB030CA7F14E
:100A8000010B16E0B0EB0A0061EB0C01071E71F1DF
:100A9000000707DA4FF00008D0EB080085F00045AA
:100AA00068EB0101171A73EB0107EBD3761E0018F0
:100AB00049415E45F6DA50EA010209D0CDE900E588
:100AC000002213460296FFF775FF03B0BDE8F08FD2
:100AD00020460099F9E7C1F30A52C1F3130140F22D
:100AE000FF3341F480119A4202DA00200146704738
:100AF00040F233439A42A2F2334202DC5242FFF701
:100B0000A3BEFFF792BE0000064C074D06E0E0686A
:100B100040F0010394E8070098471034AC42F6D344
:100B2000FFF7E8FAB8560008D8560008C0B24FF4EC
:100B3000F05100F0D5B900002DE9FF4F087881B0E1
:100B40009946FF2805D0491C2D2804D000240023F5
:100B500008E000230BE00124F9E703EB830300EB3B
:100B60004303491C0878FF28F7D104B15B420020F9
:100B70000090147801462D2C01D02B2C04D1521C4E
:100B80002D2C12D00024009400251678FF2E0ED0B4
:100B90000A24A0FB04C801FB0481002700FB071105
:100BA000521C16EB0C006941EFE70124EBE7994476
:100BB00050EA01020ED00024AA4D2646DFF8A88292
:100BC00000F0A2F982468B46B9F1000009DAC9F1BA
:100BD00000071BE001980021C0E9001105B0BDE845
:100BE000F08F074612E0F80707D022462B46304622
:100BF0004146FFF706FC0646884622462B4610462D
:100C00001946FFF7FEFB04460D467F10002FEAD180
:100C1000B9F1000F324643465046594602DAFFF713
:100C200062FC01E0FFF7EDFB009A0AB181F00041A0
:100C3000019AC2E90001D1E72DE9FF4F1F468DB0AF
:100C4000D7E901464FF0FF382E2045464FF0000906
:100C50000B90B9696D1C0E988847396A824688479F
:100C60000028F6D1BAF1FF3F0AD024F4D064002E58
:100C700011DDBAF12B0F08D0BAF12D0F0BD102E024
:100C8000404611B0ABE744F48064B9696D1C0E981E
:100C900088478246761E6946600501D52D2000E012
:100CA0002B208DF8000001F1010B0DF1200809E067
:100CB000B9696D1C0E98884782460F9844F40074F9
:100CC000761E0560002E02DDBAF1300FF0D00B99D0
:100CD0008A453ED144F0800406E00F99681CA9F1D2
:100CE000010944F400740860B9696D1C761E0E9801
:100CF000884782463028F0D02BE00B998A4505D1F1
:100D0000200603D444F08004761E18E0504601F01B
:100D100015FF08B30DF11301761E44F400748B45E2
:100D200008D2AAF130000BF8010B200607D5A9F173
:100D3000010003E0200602D409F101008146A0056C
:100D400002D50F99681C0860B9696D1C0E98884718
:100D50008246002ED1DC53E0002E51DDBAF1650F42
:100D600002D0BAF1450F4BD1A00549D5B9696D1C28
:100D700024F44074761E0E9888478246002E0CDDBF
:100D80002B2804D0BAF12D0F07D144F48074B9692F
:100D90006D1C0E9888478246761EE00501D52D21F0
:100DA00000E02B2108F8011BCDF82C8021E00DF18B
:100DB0002901761E44F4007488450CD2AAF1300053
:100DC00010F0FF0088F8000002D10B99884509D97E
:100DD00008F1010806E0E00501D5244801E042F2EF
:100DE0000F708146B9696D1C0E98884782460F982E
:100DF0000560002E04DD504601F0A0FE0028D6D18B
:100E0000F9690E988847FF208BF8000088F80000E9
:100E10000020069007904B466A4608A906A8FFF7EF
:100E20008BFEA00502D46FF001002AE714F0240F16
:100E30000AD0E00714D1DDE906123868031D3B60D3
:100E40000068C0E900120BE0DDE90601FFF776FC5F
:100E50000146E00704D13868021D3A60006801606D
:100E600028460EE7000024400000F03FF1D8FFFFC5
:100E7000426842B1016811F8013B23B1521EC0E93A
:100E80000012184670470121C160881E70474268F1
:100E90005AB1C368016843B983688B4205D0491EC3
:100EA000521CC0E90012002070474FF0FF3070471D
:100EB00070B521F0004303430CD0C1F30A55002460
:100EC000D5EB040564EB0403D617AD1AB34102DB7E
:100ED0000020014670BD201841EB025170BD00009A
:100EE0007F2801D9002208E0064A02EB5002C00721
:100EF000127800D1120902F00F0201209040084040
:100F000070470000785600080EB540F23342029256
:100F10000022CDE900221346FFF74CFD03B000BDCF
:100F200021B1826842F00102826003E0826822F00F
:100F3000010282607047000010B5044612488442E6
:100F400008D10121401500F053FF0021601500F089
:100F50004FFF17E00D48844208D10121001500F031
:100F600047FF0021201500F043FF0BE008488442B2
:100F700008D10121C80300F03BFF00214FF40040DD
:100F800000F036FF10BD00000024014000280140A1
:100F9000003C0140014600208A6802F004020AB1C8
:100FA000012000E0002070470146C86C80B2704705
:100FB0000246002013680B400BB1012000E0002026
:100FC0007047014600208A6802F008020AB1012039
:100FD00000E000207047000030B5024600200023EA
:100FE00050680F4C20400D790C6844EA05242043DA
:100FF000506090680B4C2040D1E902542C434D794D
:1010000044EA450420439060D06A20F470000C7CD0
:10101000641EE4B2234340EA0350D06230BD0000B6
:10102000FFFEF0FFFDF7F1FFF0B504460D4600208E
:101030000021092D11DDE068A5F10A0606EB46073F
:10104000072606FA07F18843A5F10A0606EB4606CD
:1010500003FA06F10843E0600CE0206905EB450760
:10106000072606FA07F1884305EB450603FA06F161
:1010700008432061072A0FDA606B561E06EB8607CD
:101080001F2606FA07F18843561E06EB860605FA68
:1010900006F10843606322E00D2A0FDA206BD61FA9
:1010A00006EB86071F2606FA07F18843D61F06EBD4
:1010B000860605FA06F10843206310E0E06AA2F113
:1010C0000D0606EB86071F2606FA07F18843A2F1F4
:1010D0000D0606EB860605FA06F10843E062F0BD50
:1010E000816841F008018160704721B1826842F453
:1010F000A002826003E0826822F4A002826070474E
:10110000816841F004018160704700002DE9FF47CC
:10111000002037490860374908603749086082462F
:101120002DE03649087802F0D3F8044630480168CB
:101130002046FEF7F7FF2E4908603149087802F093
:10114000C7F804462B4801682046FEF7EBFF294903
:1011500008602C4800682C4988420BD0294908783F
:1011600002F0B6F80446244801682046FEF7DAFF8C
:1011700021490860012002F0FFFF0AF1010ABAF5D7
:101180007A7FCEDB21491A480068FFF755F81849E5
:1011900008601E4917480068FFF74EF815490860B7
:1011A000184800681849884206D018491248006853
:1011B000FFF742F8104908600F480068FFF77AFA15
:1011C00004460D460B480068FFF774FA06460F46C2
:1011D00007480068FFF76EFA804642460B460CA0AF
:1011E000CDE90067CDE9024501F00CFBBDE8FF87C2
:1011F000B0000020B4000020B800002098000020BB
:101200009C000020A0000020C7CFFFFF00007A4410
:101210006F66667365745F69613A252E34662C6F5C
:1012200066667365745F69623A252E34662C6F6654
:10123000667365745F69633A252E34662E0D0A0065
:1012400008B501211D2000F0C3FD0121144800F064
:10125000B9F84FF40050ADF8000010208DF80300ED
:1012600001208DF8020069460E4800F01FF84FF487
:1012700000510C4800F0EEF84FF40070ADF800009B
:1012800010208DF8030001208DF802006946064801
:1012900000F00CF84FF40071034800F0DBF808BDD3
:1012A0000002300000100140000C01402DE9F04127
:1012B000024600250026002000230024002791F884
:1012C00003C00CF00F0591F803C00CF0100CBCF13A
:1012D000000F03D091F802C04CEA050591F800C058
:1012E000BCF1000F31D0146800202BE04FF0010C4E
:1012F0000CFA00F3B1F800C00CEA03069E4220D1BC
:1013000083004FF00F0C0CFA03F7BC4305FA03FC03
:101310004CEA040491F803C0BCF1280F06D14FF049
:10132000010C0CFA00FCC2F814C00AE091F803C0EA
:10133000BCF1480F05D14FF0010C0CFA00FCC2F8CB
:1013400010C0401C0828D1D31460B1F800C0BCF113
:10135000FF0F34DD546800202EE000F1080C4FF040
:10136000010808FA0CF3B1F800C00CEA03069E422B
:1013700021D183004FF00F0C0CFA03F7BC4305FAA0
:1013800003FC4CEA040491F803C0BCF1280F05D11A
:1013900000F1080C08FA0CF8C2F8148091F803C0A8
:1013A000BCF1480F07D100F1080C4FF0010808FA12
:1013B0000CF8C2F81080401C0828CED35460BDE859
:1013C000F0810000F0B50A4600230024002100252A
:1013D00000F00046B6F1004F02D11D4EF16901E068
:1013E0001B4E7168C0F3034583B200F44016B6F596
:1013F000401F08D121F07061154E766826F07066A6
:10140000134F7E6012E000F48016B6F5801F06D1FF
:10141000032606FA05F4A14341F0706106E0460D8B
:10142000360103FA06F6B14341F0706122B1460D70
:10143000360103FA06F6314300F00046B6F1004FDC
:1014400002D1034EF16101E0014E7160F0BD000078
:1014500000000140416170470161704721B102887D
:1014600042F00102028004E002884FF6FE731A4047
:101470000280704710B504460B48844209D101210F
:10148000480500F095FC00214FF4001000F090FC9E
:1014900008E00121880500F08BFC00214FF480005A
:1014A00000F086FC10BD00000054004021B102880D
:1014B00042F40072028004E002884FF6FF531A40A3
:1014C000028070472DE9F04385B004460D460026A2
:1014D000B1460427DFF8CC80A6884FF6C0700640DE
:1014E000684600F095FCDDF808802F48B8FBF0F066
:1014F0001FFA80F946EA0906A68020884FF6FE7199
:101500000840208000262949286888420CD828688D
:101510004000B8FBF0F087B2042F00DA04273E4306
:1015200009F10100208427E0E8884BF6FF7188422A
:1015300006D1286800EB4000B8FBF0F087B209E064
:10154000286800EBC00101EB0010B8FBF0F087B297
:1015500047F48047C7F30B0008B947F0010747F489
:10156000004006434FF4967009FB00F04FF47A7187
:1015700090FBF1F0401C2084A683208840F00100FD
:10158000208026884FF6F5300640A88869890843F0
:1015900006432680A88929890843208105B0BDE833
:1015A000F083000000127A0040420F00A086010084
:1015B00000B585B00121082000F00AFC0121480592
:1015C00000F0E6FBC020ADF810001C208DF81300E1
:1015D00003208DF8120004A91348FFF767FE134893
:1015E000FFF748FF0020ADF804004BF6FF70ADF8A0
:1015F00006000020ADF808004FF48060ADF80A0046
:101600000001ADF80C000A48009069460748FFF752
:1016100059FF01210548FFF721FF01210348FFF78A
:1016200045FF05B000BD0000000C01400054004023
:10163000801A06002DE9F04104464FF6FF75208818
:1016400040F48070208005E02800A5F1010501D15B
:10165000BDE8F081A08A00F001000028F4D06C20E1
:1016600020824FF6FF7504E02800A5F1010500D1A6
:10167000EEE7A08A00F002000228F5D1268B0C20AC
:10168000208200BFA08A00F004000428FAD120883C
:1016900040F4006020804FF6FF75208840F4807091
:1016A000208004E02800A5F1010500D1D0E7A08A40
:1016B00000F001000028F5D04FF6FF756D20208264
:1016C00004E02800A5F1010500D1C1E7A08A00F0DF
:1016D00002000228F5D172B6268B20884FF6FF3122
:1016E0000840208062B600BFA08A00F004000428F1
:1016F000FAD172B601212046FFF7D8FE208AC7B280
:1017000062B6208A00F0FF0800BF208800F4007055
:10171000B0F5007FF9D0208840F4806020802088D8
:101720004FF2FF7108402080701C86B208EB072042
:1017300080B28DE72DE9FF4F87B00D4616469946DA
:10174000234806602348C0F8009023491498086095
:101750002846FEF7AFFF074688460798FEF7AAFF20
:1017600002460B46CDE9020100201C49FEF7BBFEF4
:101770003A464346CDE90401FEF7B5FE8246FEF740
:10178000DDFF04461648046084F0004015490860F7
:10179000154804600068FEF78DFF0746884611482B
:1017A0000068FEF787FFCDE904010D480068FEF7E9
:1017B00081FF82460B46CDE90278DDE904015246FD
:1017C000CDE9000109A001F01DF80BB0BDE8F08FD4
:1017D000980000209C000020A00000200000F03FA6
:1017E000A4000020A8000020AC0000206761696E02
:1017F0005F613A252E32662C6761696E5F623A2519
:101800002E32662C6761696E5F633A252E32662E32
:101810000D0A000010B50548026805480168054832
:10182000006802F00BFCFFF771FC10BDA000002067
:101830009C0000209800002009480A490860002008
:101840004860886006480849086000204860886051
:10185000064807490860002048608860704700001B
:10186000CDCC4C3D5C0200206802002017B7D13877
:10187000740200202DE9F84F044689464FF0E0201D
:101880008569A068A8420DD9A168481BFEF7A3FE90
:1018900080462549FEF7D0FC07462449FEF79AFC0E
:1018A00006460FE06FF07F41491BA2688818FEF7DB
:1018B00092FE80461C49FEF7BFFC07461B49FEF717
:1018C00089FC0646A5603046FEF7F4FE07464FF059
:1018D0003332174BFEF71AFF04D2C4F8049048467F
:1018E000BDE8F88F31462068FEF71CFC07463946F4
:1018F0002068FEF7A1FC824651464FF07E50FEF76D
:1019000063FC80464946FEF765FC07465046616821
:10191000FEF760FC39460090FEF704FC8346C4F8ED
:1019200004B05846DCE7000000001041BD378635A2
:101930003333D33F10B50020184908800120488078
:10194000082088800020164908800120488008204F
:101950008880022013490880012048800820888060
:10196000FFF726FE4FF480500F4908600FA000F0EB
:1019700049FF0A2002F000FC02F0E6FE0E49086072
:1019800000200E4908600E490860052002F0F4FBB3
:1019900002F092FC0B49086010BD00001C00002002
:1019A000220000202800002030000020415335365E
:1019B00030300D0A00000000380000203400002004
:1019C000400000203C00002010B517A000F01AFFD6
:1019D0001848016818480068FEF7D6FE03D215487B
:1019E00000681549086013480068144908611148E7
:1019F0000068134908611348007820B90D48006851
:101A00001149086103E0114800680F490861104856
:101A10000068104908614FF400710F48FFF71CFD82
:101A20000EA000F0EFFE10BD4D4F543A20496E69F4
:101A3000740D0A008000002084000020CC010020EA
:101A4000F00100206C00002014020020940000200F
:101A50009000002038020020000C01404D4F543A05
:101A600020456E61626C65206472697665722E0D28
:101A70000A00000070B504460D4600212046FEF71E
:101A800079FE03D0114804601148056001F09EFD05
:101A900002F012FC0F490860322002F06DFB03F0E7
:101AA000F9FA0D490860052002F066FB03F0DAFA46
:101AB0000A4908600A480078022803D108460068ED
:101AC00008490860C82002F057FB70BD7400002070
:101AD000780000203C0000204C0000204400002042
:101AE0006D000020BC00002070B5002100230F22F3
:101AF000C47804B3154C246804F4E064C4F5E064CD
:101B0000210AC1F10403CA40447804FA03F184783D
:101B10001440214309010E4C0678A155047804F0C5
:101B20001F050124AC4005786D11AD0005F1E025DD
:101B3000C5F8004109E0047804F01F050124AC4019
:101B4000044D0678761145F8264070BD0CED00E096
:101B500000E400E080E100E04FF07C5016490860AE
:101B6000002048608860C86048618861C861086278
:101B7000124813490860002048608860C8604861C6
:101B80008861C86108624FF07C500E4908600020EF
:101B900048608860C86048618861C86108624FF029
:101BA0007C5009490860002048608860C86048612E
:101BB0008861C86108627047140200200000A041DB
:101BC00038020020CC010020F00100202DE9F04F68
:101BD00085B0044689464FF0E0208569206AA84216
:101BE0000DD9216A481BFEF7F6FC5F490290FEF70B
:101BF00023FB5E490390FEF7EDFA06460FE06FF017
:101C00007F41491B226A8818FEF7E5FC564902907D
:101C1000FEF712FB55490390FEF7DCFA06462562F3
:101C200000213046FEF7A6FD09D03046FEF742FD02
:101C300000224F4BCDE90201FEF768FD00D24D4E68
:101C400049462068FEF7C6FA049048466169FEF7E7
:101C500069FA029031466068FEF7BCFA4FF07C5199
:101C60000090FEF7B7FA01900299FEF7B3FA0390DD
:101C7000E169FEF757FA0746206980F000403946CF
:101C80000390FEF781FD03D2206980F0004007E059
:101C900038462169FEF778FD01D2206900E0384618
:101CA000074648466169FEF78FFA0290A168FEF781
:101CB00091FA31460390FEF7BFFA834639460498FD
:101CC000FEF730FA59460390FEF72CFA8046206959
:101CD00080F0004041460390FEF756FD03D2206994
:101CE00080F0004007E040462169FEF74DFD01D23B
:101CF000206900E0404680460021E068FEF744FD90
:101D000028D24046A169FEF75FFA31460390FEF7FC
:101D100093FA82465046E168FEF736FD09D2314615
:101D2000E068FEF757FA0390A169FEF7FBF98046D9
:101D300010E0E06880F0004051460390FEF724FD7B
:101D400008D23146E068FEF745FA0390A169FEF734
:101D50003EFA8046E761C4F81880C4F81490404603
:101D600005B0BDE8F08F000000001041BD3786359A
:101D70000000E03F6F12833A01460020034A50689A
:101D800020F44040084350607047000000100240BB
:101D900029B1064AD2690243044BDA6104E0034ADE
:101DA000D2698243014BDA617047000000100240A3
:101DB00029B1064A12690243044B1A6104E0034A3E
:101DC00012698243014B1A61704700000010024003
:101DD00029B1064A92690243044B9A6104E0034A1E
:101DE00092698243014B9A617047000000100240E3
:101DF00029B1064AD2680243044BDA6004E0034A80
:101E0000D2688243014BDA60704700000010024044
:101E100030B500210022002400232D4D6D6805F00F
:101E20000C0121B1042905D0082923D105E0294D51
:101E3000056022E0274D05601FE0254D6D6805F423
:101E40007012234D6D6805F48034022505EB924233
:101E50001CB9214D554305600BE01D4D6D6805F41F
:101E600000351DB11C4D5543056002E0194D554329
:101E7000056002E0174D056000BF00BF144D6D689E
:101E800005F0F0010909154D6B5C0568DD40456002
:101E90000F4D6D6805F4E061090A104D6B5C4568F3
:101EA000DD4085600A4D6D6805F46051C90A0B4D2F
:101EB0006B5C4568DD40C560054D6D6805F44041CB
:101EC000890B074D6B5CC568B5FBF3F5056130BD4B
:101ED0000010024000127A0000093D0000000020BE
:101EE0001000002010B500F001F810BD0CB5002066
:101EF000019000903348006840F480303149086018
:101F000000BF3048006800F4003000900198401C89
:101F10000190009818B90198B0F5A06FF1D1294847
:101F2000006800F4003010B10120009001E00020B2
:101F300000900098012843D12348006840F0100029
:101F4000214908600846006820F003000860084640
:101F5000006840F0020008601A484068194948606B
:101F60000846406848600846406840F48060486021
:101F70000846406820F47C1048600846406840F4F9
:101F8000E81048600846006840F08070086000BFB4
:101F90000C48006800F000700028F9D0094840683B
:101FA00020F00300074948600846406840F00200FE
:101FB000486000BF0348406800F00C000828F9D1D1
:101FC0000CBD0000001002400020024010B5134874
:101FD000006840F001001149086008464068104957
:101FE00008400E494860084600680E4908400B4901
:101FF00008600846006820F48020086008464068B1
:1020000020F4FE0048604FF41F008860FFF76AFF6D
:102010004FF000600449086010BD0000001002404D
:102020000000FFF8FFFFF6FE08ED00E000B589B004
:1020300001210420FFF7CCFE01210846FFF7A8FE8E
:102040000720ADF8200018208DF8230003208DF81C
:10205000220008A92448FFF729F94FF0804000F03A
:102060005DF80020ADF8140040F29F50ADF8180064
:102070002020ADF816000020ADF81A0005A94FF099
:10208000804000F055FA6020ADF804000120ADF862
:1020900006000020ADF80A00ADF80C0001A94FF0D1
:1020A000804000F02FF901A94FF0804000F080F946
:1020B00001A94FF0804000F0DBF90821C80600F0CC
:1020C0006DF90821C80600F0C5F90821C80600F01E
:1020D0001FFA0121880700F009F80121880700F0A4
:1020E00011F809B000BD00000008014021B10288CC
:1020F00042F08002028004E002884FF67F731A40AB
:102100000280704721B1028842F00102028004E09F
:1021100002884FF6FE731A400280704710B50446DD
:102120006848844208D10121C014FFF761FE0021F4
:10213000E014FFF75DFEC4E0B4F1804F08D1012147
:102140000846FFF735FE00210120FFF731FEB8E019
:102150005D48844208D101210220FFF729FE0021B9
:102160000220FFF725FEACE05848844208D1012147
:102170000420FFF71DFE00210420FFF719FEA0E058
:102180005348844208D101210820FFF711FE0021A5
:102190000820FFF70DFE94E04E48844208D101214B
:1021A0001020FFF705FE00211020FFF701FE88E058
:1021B0004948844208D101212020FFF7F9FD002180
:1021C0002020FFF7F5FD7CE04448844208D101213E
:1021D0004014FFF70DFE00216014FFF709FE70E0C8
:1021E0003F48844209D10121C804FFF701FE0021C4
:1021F0004FF40020FFF7FCFD63E03A48844209D128
:1022000001210805FFF7F4FD00214FF48010FFF7CE
:10221000EFFD56E03448844209D101214805FFF71B
:10222000E7FD00214FF40010FFF7E2FD49E02F48E1
:10223000844208D101214020FFF7BAFD002140204F
:10224000FFF7B6FD3DE02A48844208D101218020F5
:10225000FFF7AEFD00218020FFF7AAFD31E0254801
:10226000844208D101218015FFF7A2FD0021A015AD
:10227000FFF79EFD25E02048844209D10121080492
:10228000FFF7B6FD00214FF48030FFF7B1FD18E0F5
:102290001A48844209D101214804FFF7A9FD002111
:1022A0004FF40030FFF7A4FD0BE01548844208D13D
:1022B00001218804FFF79CFD00214FF48020FFF7E7
:1022C00097FD10BD002C01400004004000080040B4
:1022D000000C004000100040001400400034014099
:1022E000004C0140005001400054014000180040E3
:1022F000001C00400020004000400140004401401C
:102300000048014070B5002400220023058C4FF6E0
:10231000FE7635400584028C8388048B4FF68F75DA
:102320002C40B51E2C400D882C43751E2A400D896B
:102330002A434D882A43144DA8420BD0134DA8427E
:1023400008D0134DA84205D0124DA84202D0124D1C
:10235000A84213D14FF6F7752A404D892A434FF60C
:10236000FB752A408D882A434FF6FF652B404FF6B8
:10237000FF552B408D892B43CD892B4383800483CC
:10238000CD888586028470BD002C01400034014058
:102390000040014000440140004801400A4600213D
:1023A000018B4FF6F773194011430183704700000A
:1023B00070B5002400220023058C4FF6EF763540DF
:1023C0000584028C8388048B48F6FF752C404FF6F9
:1023D000FF452C400D884FF6FF7606EA05252C4375
:1023E0004FF6DF752A400D8906EA05152A434D8808
:1023F00006EA05152A43154DA84202D0144DA842FD
:102400001DD14FF67F752A404D894FF6FF7606EABB
:1024100005152A434FF6BF752A408D8806EA051533
:102420002A434FF6FF352B404FF2FF752B408D8925
:1024300006EA85052B43CD8906EA85052B43838073
:102440000483CD880587028470BD0000002C014004
:10245000003401400A460021018B4FF2FF731940FE
:102460004FF6FF7303EA022319430183704700000C
:1024700070B5002400220023058C4FF6FF6635401E
:102480000584028C8388848B4FF68F752C404FF621
:10249000FC752C400D882C434FF6FF552A400D89C2
:1024A0004FF6FF7606EA05252A434D8806EA0525FC
:1024B0002A43154DA84202D0144DA8421DD14FF217
:1024C000FF752A404D894FF6FF7606EA05252A4317
:1024D0004FF6FF352A408D8806EA05252A434EF639
:1024E000FF752B404DF6FF752B408D8906EA0515CB
:1024F0002B43CD8906EA05152B4383808483CD8841
:102500008587028470BD0000002C0140003401402A
:102510000A460021818B4FF6F773194011438183DE
:102520007047818670470187704781877047000038
:10253000002202881D4B98420ED01D4B98420BD0B2
:10254000B0F1804F08D01B4B984205D01A4B9842EF
:1025500002D01A4B984204D14FF68F731A404B8821
:102560001A43174B984207D0164B984204D04FF6A7
:10257000FF431A40CB881A4302808B8883850B88DF
:1025800003850A4B98420BD0094B984208D00E4B5A
:10259000984205D00D4B984202D00D4B984201D184
:1025A0000B7A03860123838270470000002C0140D0
:1025B000003401400004004000080040000C0040CE
:1025C0000010004000140040004001400044014061
:1025D0000048014010B540F22551204800F050F865
:1025E00000283AD01D4800F007F9C4B21C48008802
:1025F00000F40040F8B91A48008800F4804090B117
:102600000A2C03D000201649088026E014480088D0
:1026100040F400401249088000200988C1F30D01F0
:10262000104A505419E00D2C06D10D48008840F492
:1026300080400B49088010E009480088C0F30D0075
:1026400008490C5406480088401C05490880084683
:102650000088FF2801DD0020088010BD00380140FF
:1026600018000020CC00002021B1828942F40052E1
:10267000828104E082894DF6FF731A40828170479F
:1026800070B50246002400230025002040F66A169B
:10269000B14200D100BFC1F3421501F01F03012672
:1026A00006FA03F3012D02D19689334006E0022D8C
:1026B00002D1168A334001E0968A33400C1201267B
:1026C00006FA04F41688344013B10CB1012000E07E
:1026D000002070BDF0B50346002400260025002030
:1026E00040F66A17B94200D100BF1846C1F3421440
:1026F00001F01F06012707FA06F5012C01D10C3065
:1027000004E0022C01D1103000E014301AB1076847
:102710002F43076002E00768AF430760F0BD000089
:102720002DE9F04786B005460E460024A24600BFBC
:10273000A1460027B08900B100BF2F462C8A4CF675
:10274000FF700440F08804432C82AC894EF6F310ED
:102750000440B08831890843718908430443AC813F
:10276000AC8A4FF6FF400440B0890443AC8201A814
:10277000FFF74EFB1F48874202D1DDF810A001E0B1
:10278000DDF80CA0A88900F4004040B10AEBCA00B3
:1027900000EB0A1031684900B0FBF1F807E00AEBE2
:1027A000CA0000EB0A1031688900B0FBF1F8642020
:1027B000B8FBF0F004012009642101FB1089A8890D
:1027C00000F4004040B1322000EBC900B0FBF1F052
:1027D00000F00700044308E0322000EB09106421F8
:1027E000B0FBF1F000F00F0004432C8106B0BDE80F
:1027F000F08700000038014001468888C0F30800D7
:10280000704700000FB4054B10B503A9044A0298A5
:1028100000F0C6F910BC5DF814FB00009D420008F2
:1028200014000020490050EAC12018BF04204A0DBE
:1028300018BF40F0010040F2FF72B2EB515F08BFD9
:1028400040F00200012808BF052070472DE9F04143
:102850004F1E00EBC7010446D1E9000115461E4694
:1028600037F006020DD02A463346FDF7CAFD7F1E1B
:1028700004EBC703D3E90023FDF71CFD37F0060284
:10288000F1D1022F25D0042F13D0062F18BFBDE899
:10289000F0812A463346FDF7B4FDD4E90A23FDF75B
:1028A00009FD2A463346FDF7ACFDD4E90823FDF7C0
:1028B00001FD2A463346FDF7A4FDD4E90623FDF7C2
:1028C000F9FC2A463346FDF79CFDD4E90423FDF7C5
:1028D000F1FC2A463346FDF794FDD4E90223FDF7C7
:1028E000E9FC2A463346FDF78CFDD4E90023BDE818
:1028F000F041FDF7DFBC0122FEF7DABAFDF7DABCE2
:102900000022134610461146FDF7EDBD024A002095
:102910001107FEF7CDBA000001FDFFFF0148006876
:1029200070470000C800002002E008C8121F08C15C
:10293000002AFAD170477047002001E001C1121F40
:10294000002AFBD170470000014908607047000071
:10295000C80000202DE9F04706463046FDF7AAFEE4
:102960000746134A134BFDF7A5FC0446FDF7E6FEA8
:1029700081464846FDF79EFE07460F4A0F4BFDF77E
:10298000C5FE08D24846FDF795FE07460A4A0B4B9E
:10299000FDF731FD02E04846FDF78CFE0446FDF7E9
:1029A000CDFE8146484600F0B5FCBDE8F08700004A
:1029B000F4D64354FB21F93FEA2E4454FB2119403D
:1029C00070B504460D462846FDF7FCFD0646214637
:1029D000FDF700FC70BD00002DE9FF5FDDE902207E
:1029E000010DDDF838B0024318D044F61050A1F2C2
:1029F000FF3141430D140F98012820D0A5EB0B00A7
:102A0000401C5FEA000A4FF00004474EDFF81C91BB
:102A1000A046504616D5CAF1000728E00F980124B9
:102A200043A2012808D0002100980F9BC0E9002193
:102A3000C0E90243BDE8FF9F6FEA0B01F4E7CBF169
:102A40000000DEE7074612E0F80707D022463346CB
:102A500040464946FDF7D5FC804689462246334626
:102A600010461946FDF7CDFC04460E467F10002F98
:102A7000EAD1DDE90201BAF1000F42464B4602DA23
:102A8000FDF7BFFC01E0FDF72EFD04460E460022D7
:102A9000284BFDF73BFE03D84FF0FF30014607E01F
:102AA0000022254B20463146FDF704FCFEF713F8C3
:102AB000102409E0002C0ADB0A220023FDF784FE23
:102AC000019B30321A55641E50EA0102F2D1641C97
:102AD000019AC4F1110314440F9A012A03D0012270
:102AE00008430DD10AE0084304D000204FF0110B39
:102AF0000F9080E7A3EB0B056D1E0DE05B4504DD39
:102B00004FF0000205F1010504E003DA4FF0000286
:102B1000A5F10105002AECD000980F99C0E9023117
:102B2000C0E9004586E70000000024400000F03FB7
:102B3000300000000000F0430000E03F30380A2879
:102B400001D2012070470020704700002DE9F047B6
:102B500006463046FDF7AEFD07460F4A0F4B01F023
:102B600053FB0446FDF7EAFD814600214846FDF788
:102B70000BFE03D84846FDF79DFD07E04846FDF7EC
:102B800099FD0746044A054BFDF794FB0446FDF703
:102B9000D5FDBDE8F0870000EA2E4454FB21194022
:102BA0002DE9FF4F95B09B468946064600250FE26A
:102BB000252877D100242746F84A0121059400E012
:102BC000044316F8013F203B01FA03F01042F7D10D
:102BD00030782A2811D06FF02F033078A0F130021E
:102BE000092A16D8059A44F0020402EB820203EB8C
:102BF00042021044761C0590EFE759F8042B059229
:102C0000002A03DA504244F40054059044F00204D0
:102C1000761C30782E2816D116F8010F44F00404E3
:102C20002A280DD06FF02F023078A0F13003092B45
:102C300009D807EB870302EB4303C718761CF3E7B9
:102C400059F8047B761C30786C280FD006DC4C28B1
:102C500017D068280DD06A2814D104E0742810D049
:102C60007A280FD10DE044F400140AE044F48014F3
:102C700001E044F440147278824202D104F58014D9
:102C8000761C761C307866280BD013DC582877D059
:102C900009DC002875D04528F6D04628F4D047280E
:102CA0001AD19DE118E0632835D0642879D06528D1
:102CB00012D195E1702873D008DC6728F1D069281B
:102CC0006FD06E280DD06F2806D1B5E073282CD0B8
:102CD000752875D0782874D05A46179990476D1C7E
:102CE00075E1C4F30250022809D003280DD0D9F8A9
:102CF000001004280DD00D6009F1040967E1D9F82E
:102D00000010EA17C1E90052F6E7D9F800100D806B
:102D1000F2E70D70F0E719F8041B8DF800100020A1
:102D20008DF80100EA46012003E059F804AB4FF0AA
:102D3000FF3061074FF0000102D40DE008F10101FE
:102D40008846B9420FDA8045F8DB1AF808100029E6
:102D5000F4D108E008F1010188468142FADB1AF853
:102D600008100029F6D105985B46A0EB080721461C
:102D70003846179A00F094FA284400EB080507E05B
:102D80004DE029E10DE01AF8010B5A4617999047DA
:102D9000B8F10108F7D25B4621463846179A13E18D
:102DA00042E00A220092C4F302524FF0000A022AC3
:102DB00008D059F804CB032A4FEAEC710AD00DE091
:102DC00029E02AE009F1070121F00702F2E802C137
:102DD000914609E00FFA8CFC4FEAEC71042A03D10A
:102DE0004FFA8CFC4FEAEC71002907DA0A46002101
:102DF000DCF1000C61EB02012D2202E0220504D57A
:102E00002B228DF80420012203E0E20701D02022CA
:102E1000F7E7904659E00A2102E010220DE0102168
:102E20004FF0000A00910BE010224FF0000A44F02E
:102E300004040827009203E008224FF0000A0092E1
:102E4000C4F30252022A05D059F804CB0021032A08
:102E500008D009E009F1070121F00702F2E802C1F8
:102E6000914605E01FFA8CFC042A01D10CF0FF0CFE
:102E70004FF00008220728D5702806D0009B83F069
:102E8000100353EA0A0305D00EE040228DF8042017
:102E9000012208E05CEA010206D030228DF804200D
:102EA0008DF8050002229046009B83F0080353EA48
:102EB0000A030AD15CEA010201D1620705D530227A
:102EC0008DF804204FF001087F1E582804D034A04C
:102ED00003900EA802900DE036A0F9E75346604635
:102EE000009AFDF771FC84460398825C0298401EAC
:102EF000029002705CEA0100F0D1029806A9081A5B
:102F000000F1200A600702D524F4803400E0012794
:102F1000574502DDA7EB0A0000E0002000EB0A01A4
:102F2000009005984144401A0590E00306D45B46A2
:102F30002146179A059800F0B3F90544002706E0EA
:102F400001A85A46C05D179990476D1C7F1C4745E4
:102F5000F6DBE0030CD55B462146179A059800F096
:102F60009FF9054404E030205A46179990476D1C9C
:102F70000099481E00900029F5DC08E002980299AB
:102F80005A460078491C0291179990476D1CBAF176
:102F90000001AAF1010AF1DC65E100000928010045
:102FA00030313233343536373839616263646566BF
:102FB0000000000030313233343536373839414281
:102FC000434445460000000000F058F90544761CD3
:102FD000307800287FF4ECAD19B02846BDE8F08FBA
:102FE000620700D4062709F1070222F0070CFCE86B
:102FF0000223E14603F000485FEA080C02D00FF21A
:10300000702C0DE05FEA045C02D50FF2682C07E03B
:103010005FEAC47C02D00FF2602C01E0AFF2700CCA
:103020004FF0FF3823F00043CDF850C065280CD096
:1030300006DC452809D046281DD047283DD13DE073
:10304000662818D067287ED138E00021112F01DBD7
:10305000112000E0781CCDE9000106A90EA8FFF7B9
:10306000BBFCDDE90F010E9A03910021009207F1EC
:10307000010A04914DE04FF000400097CDE90110A6
:1030800006A90EA8FFF7A8FCDDE90F0203920E9B2C
:1030900011990022DDF80CA00093049211B9791C5B
:1030A00000EB010AB7EB0A0004D4C0F1FF3007F1CE
:1030B000010A0490AAEB0700019044E0012F00DA16
:1030C00001270021112F01DD112000E03846CDE954
:1030D000000106A90EA8FFF77FFCDDE90F010E9A9B
:1030E0000391002104910092BA4621070CD4039960
:1030F000514500DA8A46BAF1010F05DD009AAAF1BE
:103100000101515C302908D0B84202DA10F1040FF5
:1031100006DA0121CDE9011015E0AAF10101E9E784
:10312000002805DC049901440491AAEB000102E0A7
:10313000411C514500DD8A460499401A401C01900B
:103140004FF000400290200704D40198504501DB65
:10315000CDF8048000208DF84F0002980DF14F0744
:10316000B0F1004F25D02B200E9002984FF00208AE
:1031700000280CDA404202902D200E9007E00A2130
:103180000298FDF70BFB3031029007F8011DB8F1F2
:103190000001A8F10108F2DC02980028EFD1791EA5
:1031A0000E980870307800F0200040F0450007F8D5
:1031B000020D12A8C01B00F107081498007800B196
:1031C000012000EB0A01019801EBE07105984144F0
:1031D000401A401E0590E00306D45B462146179A2C
:1031E000059800F05DF805441498007818B15A4627
:1031F000179990476D1CE00324D55B462146179A2A
:10320000059800F04DF805441CE00498002807DB01
:10321000DDE90301884203DD0098405C179901E075
:10322000179930205A469047049805F10105401C33
:1032300004900198401E019004D12E205A461799FF
:1032400090476D1CBAF10001AAF1010ADDDC05E02E
:1032500017F8010B5A46179990476D1CB8F10001F9
:10326000A8F10108F4DC5B462146179A0598ABE605
:103270002D0000002B000000200000002DE9F0418F
:10328000044600251E461746880404D405E0394646
:103290002020B0476D1C641EF9D52846BDE8F0819A
:1032A0002DE9F041044600251E469046C80301D58D
:1032B000302700E02027880404D505E04146384641
:1032C000B0476D1C641EF9D52846BDE8F0810000AA
:1032D0002DE9F84F8246504600F066FB00900098BA
:1032E000FDF779F98346FDF7E5F980464FF0663240
:1032F000064BFDF786F806460022054BFDF7F3F86E
:103300000446FDF71BFABDE8F88F000066660A4028
:103310000000B0402DE9FF5F83465846FDF7CAF92B
:103320000446954A954BFDF7D9F944D25846FDF726
:10333000C1F9934A934BCDE90201FDF762F880464B
:1033400000221346FDF7E2F912D85846FDF7B2F90C
:1033500080468B4A8B4BFDF754F800228A4BCDE90F
:103360000001FCF7A7FFCDE90201FDF76BF911E0C1
:103370005846FDF79FF9824A824BCDE90001FDF7DF
:1033800040F80022804BCDE90201FDF734F8804679
:10339000FDF758F97D4951F820A05046FDF720F976
:1033A00006467B4A7B4BFDF72CF80446FDF7C6F931
:1033B00004B0BDE8F09F5846FDF77CF90446764A14
:1033C000764BFDF78BF944D25846FDF773F96C4AFA
:1033D0006C4BCDE90201FDF714F88046002213463C
:1033E000FDF794F912D85846FDF764F9644A654B25
:1033F000CDE90001FDF705F80022634BCDE902019C
:10340000FCF758FF8046FDF71DF911E05846FDF71F
:1034100051F95B4A5B4BCDE90001FCF7F2FF00225A
:10342000594BCDE90201FCF7E6FF8046FDF70AF9AA
:10343000C0F5C770554951F820A05046FDF7D0F8A7
:103440000646534A534BFCF7DCFF0446FDF776F97A
:10345000AEE75846FDF72EF90446514A514BFDF7A9
:103460003DF944D25846FDF725F9454A454BCDE98B
:103470000201FCF7C6FF804600221346FDF746F91D
:1034800012D85846FDF716F93D4A3E4BCDE90001EA
:10349000FCF7B7FF804600223B4BFCF70BFFCDE962
:1034A0000201FDF7CFF811E05846FDF703F9344A61
:1034B000344BCDE90001FCF7A4FF80460022324BDB
:1034C000FCF799FFCDE90201FDF7BCF8A0F5C77044
:1034D0002E4951F820A05046FDF782F806462C4AA6
:1034E000314BFCF78EFF0446FDF728F960E758469C
:1034F000FDF7E0F88046224A224BFCF782FF0022CB
:103500001346CDE90201FDF701F912D85846FDF73F
:10351000D1F81B4A1B4BCDE90001FCF772FF804636
:103520000022194BFCF7C6FECDE90201FDF78AF82F
:1035300011E05846FDF7BEF88046114A114BFCF7E2
:1035400060FF0022104BCDE90001FCF754FFCDE9EC
:103550000201FDF777F8C0F547700C4951F820A03B
:103560005046FDF73DF80646094A0F4BFCF749FF68
:103570000446FDF7E3F81BE7F4D64354FB21F93F7B
:103580009CA223B9FCAB5F400000E03FB4520008AE
:103590002D431CEBE2361A3FEA2E4454FB2109402E
:1035A000320D337F7CD91240E2361ABF70B5044623
:1035B00025462E460448A0EB660635462946204699
:1035C000FCF708FE70BD0000865A375F2DE9F04F0A
:1035D00087B09AA0FFF716F99E48006800287DD1B1
:1035E000002421E02046FCF7FBFF9B4A9B4BCDE9E2
:1035F0000001FCF706FF06460022994BFCF773FF1B
:10360000984A994BCDE90201FCF754FE8146FDF73B
:1036100095F88046424600219448006801F0DEFAA1
:10362000022000F0A9FD641CB4F5FA7FDADD00F099
:1036300043FE05904FF4FA7421E02046FCF7D0FFDA
:103640008146854A854BFCF7DCFE0022844BCDE9A0
:103650000001FCF748FF0646824A834BFCF72AFE2E
:10366000CDE90201FDF76AF88046424600217F4815
:10367000006801F0B3FA022000F07EFD641E002C09
:10368000DBDA00F019FE049000221146104601F02A
:10369000A5FAC82000F070FD0598FDF70BF8064666
:1036A00032460B4672A0FFF7ADF80498FDF702F81A
:1036B000064632460B4673A0FFF7A4F8DDE9041076
:1036C000FCF782FD8146FCF7F5FF21F0004106463C
:1036D000FDF734F80546DDE9041000E067E0FDF78A
:1036E00049F808D02846FCF7E5FF06466A4A6B4BC6
:1036F000FCF7F4FF0BD26AA0FFF784F84FF40071D7
:103700007248FDF7A7FE002007B0BDE8F08FDDE9A5
:103710000410FDF72FF807D26DA0FFF773F84FF0F4
:10372000FF304C49086005E071A0FFF76BF80120FD
:103730004849086075A0FFF765F878480068FCF70D
:1037400041FF29460390FCF745FD8346FCF7B2FF95
:103750000646414A414BFCF74EFE21F000418146AE
:1037600000226F4BFCF7D2FF1DD26EA0FFF74AF884
:103770002846FCF79FFF81464A460B4636483749A4
:10378000FCF7B1FE0022664BCDE90201FCF792FD89
:103790000646FCF757FF614908600846016867A0C4
:1037A000FFF730F806E067A0FFF72CF802E067A00B
:1037B000FFF728F800216B480068FCF7DBFF38D1E1
:1037C000694A00212948006801F008FA4FF42F7077
:1037D00000F0D2FC00F070FD81461E480068FCF746
:1037E000F1FE82464946FCF7F5FC07464B48016866
:1037F0003846FFF7E5F80646FFF7A8F9594908608B
:10380000142000F0B9FC59A0FEF7FCFF55480068F1
:10381000FCF750FF064632460B465AA0FEF7F2FF71
:1038200000221146104601F0D9F9C82000F0A4FC8E
:1038300002E056A0FEF7E6FF012065E74D4F543A3F
:1038400020416C69676E2073656E736F722E0D0A6E
:103850000000000078000020EA2E4454FB211940AB
:1038600000407F40320D337F7CD91240840000201D
:103870006D69645F616E676C653D252E34660D0A67
:1038800000000000656E645F616E676C653D252E0B
:1038900034660D0A000000007B14AE47E17A843FD5
:1038A0004D4F543A204661696C656420746F206EF8
:1038B0006F74696365206D6F76656D656E74206CDD
:1038C0006F6F703232322E0D0A000000000C014082
:1038D0004D4F543A2073656E736F725F6469726501
:1038E0006374696F6E3D3D4343570D0A000000004D
:1038F0004D4F543A2073656E736F725F64697265E1
:103900006374696F6E3D3D43570D0A004D4F543A45
:1039100020505020636865636B3A200088000020C7
:103920000000E03F6661696C202D20657374696D4D
:10393000617465642070703A0000000025640D0A0F
:10394000000000004F4B210D0A0000004D4F543A7B
:1039500020536B6970206469722063616C69622E08
:103960000D0A000074000020E4CB96404D4F543AFD
:10397000205A65726F20656C65632E20616E676CDE
:10398000653A0000252E34660D0A00004D4F543A6A
:1039900020536B6970206F66667365742063616C79
:1039A00069622E0D0A00000010B5044602230122B0
:1039B00021460948FDF738FB01210748FDF795FB33
:1039C00000BF02210448FDF7F3FA0028F9D00248AD
:1039D000FDF7EAFA10BD0000002401402DE9FC5F6C
:1039E00006464FF0E020846950480068844215D2B2
:1039F0004E490968081BFCF7EEFD4D490090FCF7A5
:103A00001BFC0190FCF756FE82464A4A4A4BFCF7E3
:103A1000F8FC0746FCF792FE054617E06FF07F4181
:103A2000091B424A12688818FCF7D5FD40490090EE
:103A3000FCF702FC0190FCF73DFE07463D4A3E4B79
:103A4000FCF7DFFC8246FCF779FE05463748046048
:103A500000212846FCF78EFE08D02846FCF72AFEF7
:103A600007460022354BFCF751FE00D2344D294663
:103A700034480068FCF7AEFB0190FCF71BFE0746DC
:103A80008846314801683046FCF79EFB0190FCF700
:103A900011FE21F0004182463A464346FCF736FECD
:103AA0002FD2294801683046FCF78EFB0021019097
:103AB000FCF760FE02D24FF0FF300CE022480168B4
:103AC0003046FCF781FB00210190FCF75DFE01D23E
:103AD000012000E000208346FCF774FD824619486F
:103AE00001685046FCF776FB80462946FCF772FBDE
:103AF0000746154801683846FCF714FB1249086070
:103B000001E0114806601148D0F8009010480168A3
:103B10000D480068FEF754FF07463A460021484624
:103B200001F05CF84846BDE8FC9F00008C000020D6
:103B3000000010418DEDB5A0F7C6B03E0000E03F9B
:103B40006F12833A90000020440000208000002083
:103B5000880000202DE9F84F04460D4621F0004072
:103B600000917349814211DC7249884201DC06D11F
:103B70002CB120462946BDE8F84FFEF7BCBE6E4882
:103B8000002DCCBF6D496E49BDE8F88F6D4981426B
:103B900011DD6D498142D8BF4FF0FF366DDD204603
:103BA0002946FEF73FFE042808BFFEF7AFFE204679
:103BB0002946BDE8F88F6549654F25F000458142EB
:103BC00033DD6449814219DD002632464FF08043DF
:103BD00020462946FCF76EFB80468A460122204695
:103BE0002946FDF765F900223B46FCF704FC4246F6
:103BF0005346FCF778FC04460D463EE001260022C1
:103C0000BA463B4620462946FCF754FB80460F4601
:103C10000022534620462946FCF7EDFB42463B4630
:103C2000FCF761FC04460D4627E04B4981421BDD51
:103C3000DFF828A102260022534620462946FCF739
:103C4000E0FB00223B46FCF735FB80460F46002296
:103C5000534620462946FCF7CEFB42463B46FCF73E
:103C600042FC04460D4608E0032622462B4600206F
:103C70003B49FCF738FC04460D4622462B461046CD
:103C80001946FCF7BEFB8B46824602460B46FCF704
:103C9000B8FB07460246334888460B46062178445F
:103CA000FEF7D4FD52465B46FCF7ABFB82462E483E
:103CB0008B463A46434605217844FEF7C7FD3A460F
:103CC0004346FCF79EFB02460B46002E50465946E3
:103CD0000CDAFCF7EFFA22462B46FCF792FB01B018
:103CE00022462B46BDE8F04FFCF788BBFCF7E2FA12
:103CF00022462B46FCF785FB1C4A7A4402EBC6039E
:103D0000D3E90023FCF777FB22462B46FCF773FB35
:103D1000174A7A4402EBC603D3E90023FCF76EFB93
:103D2000009A002AB8BF81F00041BDE8F88F00007A
:103D3000000010440000F07F182D4454FB21F93F8F
:103D4000FB21F9BF0000DC3F0000203E0000F33FF4
:103D50000000F03F0000E63F008003400000F83F15
:103D60000000F0BF9E1900005C190000FA18000066
:103D7000C21800002DE9F04D9446CCF1000423F068
:103D800000464CEA0404524F46EAD4749A468846E8
:103D900021F00042BC4206D8454240EA050442EA0E
:103DA000D474BC4204D9BDE8F04D6246FEF7A6BD0E
:103DB000AAF14055A5F17F6555EA0C040BD0022409
:103DC00004EAAA74434DDFF810E144EAD87452EAD9
:103DD000000B04D00CE0BDE8F04DFFF7BBBE002C9B
:103DE00014BF012CBDE8F08D022C30D0032C32D052
:103DF00056EA0C0B0AD0BE4220D1BA4209D126F0B5
:103E0000804622F080423346114617E000291ADB33
:103E100025E0DFF8C8B0FB44002C04BFDBE900015B
:103E2000BDE8F08D012C02BFDBE9000181F000410B
:103E3000BDE8F08D022C0AD0032C0CD0BA4212D16E
:103E4000B8F1000F0BDA23482549BDE8F08D28466C
:103E50002449BDE8F08D28467146BDE8F08D1D4827
:103E60002149BDE8F08D921B12153C2AC4BF1948A8
:103E70001D490EDCBAF1000FBEBF12F13C0F00204D
:103E8000014606DB6246FCF72EFB21F00041FFF7FE
:103E900061FE002C08BFBDE8F08D012C04BF81F04D
:103EA0000041BDE8F08D114A114B022C07D0FCF700
:103EB000A2FA2A46BDE8F04D0A4BFCF79CBAFCF783
:103EC0009AFA2A46BDE8F04D064BFCF797BA000077
:103ED0000000F07F182D4454FB2109C05618000043
:103EE000FB21F9BFFB210940FB21F93F075C14339B
:103EF00026A6A13C30B583B00446FEF70FFD05466B
:103F00000020CDE90000024621466846FCF7D9FCB6
:103F10002846FEF719FDDDE9000103B030BD0000C1
:103F200070B53148008800F4004000285BD02F486D
:103F30000078492840D004DC412807D048284ED1D9
:103F40000FE0502825D0542849D10EE028480068B9
:103F5000FCF7B0FB044622460B4626A0FEF752FCB7
:103F60003DE027A0FEF74EFC39E02048401CFFF75B
:103F7000C1FF0446FCF7E2FB2549086008460068DB
:103F8000FCF798FB044622460B4622A0FEF73AFCBB
:103F900025E01648401CFFF7ADFF0446FCF7CEFBBA
:103FA0001F4908600868FCF785FB044622460B465B
:103FB0001CA0FEF727FC12E00C48401CFFF79AFFFC
:103FC0000446FCF7BBFB164948604868FCF772FBE7
:103FD000044622460B4616A0FEF714FC00BF00BFA5
:103FE00000200149088070BD18000020CC0000208E
:103FF00044000020413D252E34660D0A00000000DB
:1040000048656C6C6F20576F726C64210D0A00005C
:10401000BC000020543D252E34660D0A000000002F
:1040200014020020503D252E3466210D0A000000A8
:10403000493D252E3466210D0A00000070B586B07A
:1040400005460C46164601214FF40370FDF7C0FEED
:104050004FF40040FDF790FE072D0CDC0120A84036
:1040600080B2ADF8000000208DF8030069463E489C
:10407000FDF71CF90DE0A5F108000121814088B28F
:10408000ADF8000000208DF8030069463748FDF7C1
:104090000DF9072C0CDC0120A04080B2ADF8000027
:1040A00000208DF8030069462F48FDF7FFF80DE06A
:1040B000A4F108000121814088B2ADF80000002081
:1040C0008DF8030069462948FDF7F0F82848864234
:1040D0001CD0072C0CDC0120A04080B2ADF8000001
:1040E00000208DF8030069461F48FDF7DFF80DE05A
:1040F000A4F108000121814088B2ADF80000002041
:104100008DF8030069461948FDF7D0F81948FCF707
:1041100013FF002001908DF808008DF809004FF47E
:10412000602003900020049001208DF8140001A964
:104130001048FCF751FF01210E48FCF7F1FE0D4835
:10414000FCF7CEFF00BF0B48FCF73BFF0028FAD17D
:104150000848FCF7D5FF00BF0648FCF71BFF002806
:10416000FAD106B070BD000000080140000C01400B
:10417000C7CFFFFF00240140014642F228324A43E4
:104180004FF0E0235A6100229A611A46126942F008
:1041900001021A6100BF4FF0E022106900F0010235
:1041A0001AB100F48032002AF5D04FF0E0221269F3
:1041B00022F001024FF0E0231A6100229A61704759
:1041C0002DE9F0410C480068FCF7FCF906460B4865
:1041D00001680B480068FBF7A5FF07463146FBF76F
:1041E000F9FF0546074801682846FBF7EDFF04463E
:1041F000FEF7ACFCBDE8F0818800002070000020D4
:10420000440000207400002070B514461D460E4680
:10421000002814BF01210021314321F00041C1F1E8
:104220007F6101F1E041C90F16D1002C14BF0121BB
:104230000021294321F00041C1F17F6101F1E041FA
:10424000C90F09D11449B1EB460F08BF00281CD093
:10425000690008BF002C18D03146FCF7F9FB024674
:1042600040F2FF7030EA11500DD0F017B0EBE17F53
:1042700009D0084665F31E0084460B462046614679
:10428000FCF7BCF80246104670BD0120FEF75CFB4F
:10429000BDE87040FEF734BB0000E0FF00BF054AF8
:1042A000128802F04002002AF9D0C2B2014B1B1D55
:1042B0001A807047003801402DE9F04F87B000F0B8
:1042C00043FA044648480068A4EB000947480068E0
:1042D000FCF786F90746464A464BFCF792F8054636
:1042E0000E464846FCF77CF921F0004182462A46FA
:1042F0003346FCF70BFA19D23F480068FCF7DAF9AD
:1043000082468B46B9F1000F02DD3C493C4801E092
:104310003A493C480F463A46034650465946FBF751
:10432000C9FF0546FCF70AFA334908602E480460C5
:1043300031480068FCF7BEF90546334A334BFCF7B9
:10434000E5F910D800202C49086031480068FCF7D6
:10435000B1F907462C4A2D4BFCF74DF80546FCF702
:10436000EDF92B49086024480068FCF7A3F90546DD
:10437000254A284BFCF7B2F910D800201E490860E6
:1043800023480068FCF796F905461F4A1F4BFBF7C8
:1043900091FF0746FCF7D2F91D49086013480068F1
:1043A000FCF710F902902046FCF70CF901900299F5
:1043B000FBF742FF0390FCF77DF905460F4A114BCE
:1043C000FCF71FF8CDE904010B480068FCF772F90F
:1043D0000746DDE90423FBF76DFF8246FCF7AEF9E3
:1043E00007B0BDE8F08F000038000020300000204A
:1043F0009A9999999999E93F34000020EA2E4454FA
:10440000FB2119C0FB211940D1954A702F8BB84070
:104410003C0000202F8BB8C02DE9F14F8AB04FF03F
:104420007E50059002A800F039F902A807C806AB33
:1044300007C300210898FCF79DF91DD1069C079839
:10444000FCF738F90746454A454BFBF7DAFF824649
:104450008B460698FCF72EF90746404A414BFBF77E
:10446000D0FF52465B46CDE90201FBF723FF05462C
:10447000FCF764F9814634E0DDE90601FBF752FE02
:1044800007460899FBF74EFE06463749FBF7A2FEA2
:10449000804641460698FBF797FE05464146079839
:1044A000FBF792FE04902C460498FCF703F90646AD
:1044B0002A4A2B4BFBF7A5FFCDE902012846FCF762
:1044C000F9F80646254A274BFBF79BFFCDE900018B
:1044D000DDE90223FBF7EEFE8246FCF72FF9814669
:1044E00000BF00210A98FCF745F91FD00A98FEF793
:1044F00011FF82462146FBF76DFE07460A98FEF73C
:1045000029FA82464946FBF765FE80463946FBF7A5
:104510005BFE06460021FCF737F901D2012001E0DD
:104520004FF0FF300546FCF74DF8059049464846E8
:10453000FBF750FE074621462046FBF74BFE804620
:104540003946FBF7EFFD0646FFF730F805460599BB
:10455000FBF740FE0BB0BDE8F08F000047409045F0
:10456000A779F23FA779E23FABAAAA3E2DE9F04F27
:104570008FB00646894604A800F090F804A807C842
:104580000BAB07C300210D98FCF7F4F81DD10B9C71
:104590000C98FCF78FF807463C4A3D4BFBF731FF80
:1045A000CDE904010B98FCF785F80746374A394BEB
:1045B000FBF727FFCDE90201DDE90423FBF77AFED3
:1045C0008246FCF7BBF8054635E0DDE90B01FBF759
:1045D000A9FD80460D99FBF7A5FD07462E49FBF77F
:1045E000F9FD834659460B98FBF7EEFD8246594686
:1045F0000C98FBF7E9FD069054460698FCF75AF82C
:104600000746224A224BFBF7FCFECDE90201504649
:10461000FCF750F807461D4A1E4BFBF7F2FECDE9AA
:104620000001DDE90223FBF745FECDE90401FCF7BB
:1046300085F8054600BF4846FEF78CF90A904846C3
:10464000FEF768FE099028460999FBF7C3FD074667
:1046500020460A99FBF7BEFD80463946FBF762FD0E
:10466000079020460999FBF7B5FD074628460A99A9
:10467000FBF7B0FD80463946FBF7A6FD0890DDE963
:104680000701C6E900010FB0BDE8F08F4740904533
:10469000A779F23FA779E23FABAAAA3EFEB504464E
:1046A0001F490878FEF714FE06461E48016830468A
:1046B000FBF78AFD05461C4801682846FBF78AFD82
:1046C00000901A490878FEF703FE0646184801686C
:1046D0003046FBF779FD0546164801682846FBF78A
:1046E00079FD0190144800681449884201D10020E6
:1046F0000FE011490878FEF7EBFD06461048016807
:104700003046FBF761FD05460E4801682846FBF779
:1047100061FD02909DE8070084E80700FEBD0000EF
:1047200098000020B0000020A40000209C00002081
:10473000B4000020A8000020A0000020C7CFFFFF89
:10474000B8000020AC00002010B50348FCF772FF51
:104750000446204610BD0000005400402DE9FC5FD7
:104760004FF0E02084692A480068844215D2284925
:104770000968081BFBF72FFF26490090FBF75CFD3B
:104780000190FBF797FF8246234A244BFBF739FE43
:104790000746FBF7D3FF054617E06FF07F41091B83
:1047A0001B4A12688818FBF716FF1A490090FBF79E
:1047B00043FD0190FBF77EFF0746174A174BFBF7B7
:1047C00020FE8246FBF7BAFF054600212846FBF78C
:1047D000D1FF08D02846FBF76DFF07460022104B9B
:1047E000FBF794FF00D20F4DFFF766FD06460E481B
:1047F00001683046FBF7E8FC07462946FBF71CFD3D
:10480000814609480660024804604846BDE8FC9FAE
:1048100040000020000010418DEDB5A0F7C6B03E6D
:104820000000E03F6F12833A3C0000201CB53A487C
:104830000078042803D038480078032800D11CBD34
:1048400000F010FC35490860FFF7BAFC34490860F5
:104850003448007820B1012803D002284DD11DE052
:104860004FE02F480068FFF7D7FD2F494860084602
:1048700041682E48FCF7FEFF2B4948600846416816
:104880002B480068FBF7A0FC044621462948FDF7A9
:104890009DF9294948600020086032E020480168FD
:1048A0006846FFF763FE2048DDE9001206C00838BD
:1048B00041681E48FCF7DEFF1B4948600846016856
:1048C0001E48FCF7D7FF1849086008464168184899
:1048D0000068FBF779FC044621461648FDF776F997
:1048E000154948601048006880F00044214614488B
:1048F000FDF76CF91049086003E012A0FDF782FF94
:1049000000BF00BF0C4A11685068054A126800F0E9
:1049100065F900BF93E700006D000020440000200F
:10492000480000206C000020640000205C02002091
:1049300050000020CC0100205C0000206802002014
:10494000F00100204D4F543A206E6F20746F727149
:10495000756520636F6E74726F6C2073656C656330
:10496000746564210000000008B5FCF769FC4FF491
:10497000E13000F0D3FBFDF759FB4FF47A70FFF7FD
:10498000FBFBFCF7D7FF3648042303223549009090
:104990003548FCF7CFFEFCF73DFFFCF74DFFFDF778
:1049A000DBF83248324908600720324908604FF08E
:1049B0008040314908603148314908603148324906
:1049C00008602848314908600020314908700120FA
:1049D00030490870304831490860002048602E484E
:1049E0002F490860002048602E482F4908604FF08A
:1049F0007E50486023482D4908601A482A49C860FB
:104A00002B482C49086000202B490860FCF7DCFF8C
:104A100000210846FDF72EF828A0FDF7F3FE00F070
:104A20004FFB1CE000F058FB28490968084427495F
:104A30000860084600682649884208DB00202349B0
:104A400008602448C06880F400502249C8601A48B1
:104A5000006800F041F8FFF7E9FEFFF761FAE1E7CF
:104A6000C7CFFFFF000048426F12833A0000404169
:104A70007C00002088000020840000200000C0404E
:104A8000800000200000A041900000209400002041
:104A90006C0000206D0000209A99193FF001002061
:104AA000CC010020CDCCCC3D1402002038020020E7
:104AB00017B7D13874020020BC0000204D6F746F0E
:104AC000722072656164792E0D0A0000C400002016
:104AD00020A107000010014070B5044600F0DAFA8A
:104AE0003449086034480078052860D2DFE800F0D7
:104AF00003320C4B55003148007810B930484460FF
:104B000001E03048046052E02F4804602F480168FB
:104B10002D480068FBF758FB054629462C48FDF751
:104B200055F82C490860234801682A480068FBF7BB
:104B30004BFB054629462848FDF748F821490860FF
:104B40001E48007828B9084600681D4948600020C2
:104B500008602CE01F480460164801681D48006882
:104B6000FBF732FB054629461B48FDF72FF8154990
:104B700008601248007828B9084600681049486063
:104B80000020086013E013480460006800F016FB82
:104B90000B4948600020086009E00B480460006889
:104BA000FEF71CFF064948600020086000BF00BFF8
:104BB00070BD00004C0000206D0000206C00002043
:104BC0005C0000205000002058000020440000201D
:104BD0003802002054000020140200202DE9F74F75
:104BE00096B082468B46F74801685046FBF7CCFDED
:104BF00002D2F448D0F800A0F248006880F00040EB
:104C000051461390FBF7C0FD03D2EE48006880F0D8
:104C1000004AEC4801685846FBF7B6FD02D2E94865
:104C2000D0F800B0E748006880F000405946139083
:104C3000FBF7AAFD03D2E348006880F0004B002197
:104C40005846FBF797FD38D051465046FBF7C2FA5D
:104C5000594611905846FBF7BDFA10901199FBF791
:104C600061FA1290FEF7A2FC1390D74801681398DE
:104C7000FBF7E2FA80465846FBF71CFDCDE90A0136
:104C80005046FBF717FDCDE90801DDE90A23FFF7E0
:104C900071F8CDE90E011898FBF70CFDCDE90C0178
:104CA000DDE90E23FBF706FBCDE91001FBF746FD1E
:104CB0001390FDF74BFF189016E0C348016850466B
:104CC000FBF7BAFA80461898FBF7F4FCBF4AC04BD2
:104CD000CDE90E01FBF7EEFACDE91001FBF72EFD51
:104CE0001390FDF733FF18904046FBF7E3FCB94AF9
:104CF000B94BCDE91201FBF709FD01D2DFF8DC82E7
:104D00004046FBF7D7FCB34AB54BCDE91201FBF7A0
:104D1000E5FC01D2DFF8CC821898FBF7CBFCB24A55
:104D2000B24BCDE90E01FBF7DEFB0022B04BCDE923
:104D30001001FBF7BFFACDE91201FBF7A2FC074611
:104D40004046FBF7B7FCCDE910011898FBF7B2FC21
:104D5000CDE906013846FBF754FCA34AA34BCDE945
:104D60000201FBF74EFBCDE90401DDE90623FBF769
:104D700042FBCDE90801FBF7E1FC0A90FEF7CAFA15
:104D80000B90FBF797FC9B4A9B4BCDE90C01FBF783
:104D900038FBCDE90E01DDE91023FBF732FBCDE94D
:104DA0001201FBF7CBFC81464046FBF783FCCDE9C3
:104DB00010013846FBF725FC00228D4BCDE90001A0
:104DC000FBF719FB884A894BCDE90201FBF719FB78
:104DD000CDE906011898FBF76DFCCDE90401DDE98A
:104DE0000623FBF708FBCDE90801FBF7A7FC0A90B7
:104DF000FEF790FA0B90FBF75DFC7E4A7E4BCDE907
:104E00000C01FBF7FEFACDE90E01DDE91023FBF7FB
:104E1000F8FACDE91201FBF791FC149049464FF0E6
:104E20007E50FBF7D1F913901499FBF7CDF915904B
:104E3000072F7DD2DFE807F0E20424446486A60051
:104E40004FF080411598FBF7F7F9139048461499F5
:104E5000FBF768F912901399FBF764F904464FF0D9
:104E600080411598FBF7E8F913901499FBF75AF96C
:104E700005464FF080411598FBF7DEF90646C1E084
:104E80004FF080411598FBF7D7F949461390FBF78F
:104E900049F904464FF080411598FBF7CDF913907E
:104EA00048461499FBF73EF912901399FBF73AF92B
:104EB00005464FF080411598FBF7BEF90646A1E084
:104EC0004FF080411598FBF7B7F904464FF0804149
:104ED0001598FBF7B1F9139048461499FBF722F99E
:104EE00012901399FBF71EF905464FF08041159873
:104EF000FBF7A2F913901499FBF714F9064681E029
:104F00004FF080411598FBF797F904464FF0804128
:104F10001598FBF791F949461390FBF703F90546FD
:104F20004FF080411598FBF787F91390484600E051
:104F300064E01499FBF7F6F812901399FBF7F2F876
:104F400006465FE04FF080411598FBF775F9139026
:104F50001499FBF7E7F804464FF080411598FBF7EA
:104F60006BF905464FF080411598FBF765F91390F2
:104F700048461499FBF7D6F812901399FBF7D2F82C
:104F800006463FE04FF080411598FBF755F9139026
:104F900048461499FBF7C6F812901399FBF7C2F82C
:104FA00004464FF080411598FBF746F905464FF04F
:104FB00080411598FBF740F949461390FBF7B2F88A
:104FC00006461FE0800000207C000020F4D64354F9
:104FD000FB21F93F105839B4C876E23F46B6133F7B
:104FE000C876E2BF46B613BF40AF2D3852C1F03F7E
:104FF0000000F03F6B6058E87AB6FB3F00240025C4
:10500000002600BF00BF16492046FBF7E3F81290C8
:10501000FBF704FB80B2014613904FF08040FDF790
:1050200080FA0F492846FBF7D5F81290FBF7F6FAFD
:1050300080B2014613904FF08040FDF774FA0849A2
:105040003046FBF7C7F81290FBF7E8FA80B201464A
:1050500013904FF08040FDF768FA19B0BDE8F08F6B
:105060000000B44470B5FFF727F90546074800680B
:10507000FBF7A8FA06462946FBF7ACF804460448B5
:1050800001682046FBF7A0F870BD00007800002002
:105090007000002070B5FFF761FB064631460648F8
:1050A000FCF7E8FB044605480068FBF78BFA054669
:1050B0002146FBF78FF870BD7402002078000020B5
:1050C00004484FF0E0214861002088610120086118
:1050D00070470000FEFFFF004FF0E02291690D4A8B
:1050E0001268914206DA0B4A1268521A092392FB9F
:1050F000F3F008E06FF07F42521A064B1B681A4427
:10510000092392FBF3F0044A904200DD0020014A9B
:1051100011607047C000002020A1070010B586B0C4
:105120000446012144F20400FCF752FE4FF40070E3
:10513000ADF8140003208DF8160018208DF8170024
:1051400005A91C48FCF7B2F84FF48060ADF81400D4
:1051500004208DF8170005A91648FCF7A7F82520AC
:105160008DF8000003208DF801008DF80200012069
:105170008DF803006846FCF7B7FC01940020ADF8F9
:105180000800ADF80A00ADF80C00ADF810000C20D6
:10519000ADF80E0001A90848FDF7C2FA012240F25D
:1051A00025510548FDF796FA01210348FDF75CFA01
:1051B00006B010BD00080140003801402DE9F14F54
:1051C00082B04FF0E020846931480068844215D2F3
:1051D0002F490968081BFBF7FEF92E490190FBF7E0
:1051E0002BF88346FBF766FA81462B4A2B4BFBF7DD
:1051F00008F90646FBF7A2FA054617E06FF07F4173
:10520000091B234A12688818FBF7E5F92149019028
:10521000FBF712F88346FBF74DFA06461E4A1F4B72
:10522000FBF7EFF88146FBF789FA0546184804605A
:1052300000212846FBF79EFA08D02846FBF73AFAE9
:1052400006460022164BFBF761FA00D2154D29469F
:105250000298FAF7BFFF0746134801683846FAF785
:1052600061FF0646FDF772FC0F4908600F48D0F851
:1052700000800F4801680C480068FDF7A1FB064656
:10528000324600214046FFF7A9FC4046BDE8FE8FAC
:105290008C000020000010418DEDB5A0F7C6B03E97
:1052A0000000E03F6F12833A44000020800000209D
:1052B00088000020000000004F0000009E00000059
:1052C000ED0000003C0100008B010000D90100004E
:1052D0002802000077020000C6020000150300004B
:1052E00063030000B2030000000400004F0400004C
:1052F0009D040000EC0400003A0500008805000051
:10530000D60500002406000072060000C00600005A
:105310000E0700005B070000A9070000F607000069
:105320004308000090080000DD0800002A09000082
:1053300077090000C30900000F0A00005C0A0000A2
:10534000A80A0000F40A00003F0B00008B0B0000CD
:10535000D60B0000210C00006C0C0000B70C000004
:10536000010D00004C0D0000960D0000E00D000046
:10537000290E0000730E0000BC0E0000050F000097
:105380004E0F0000960F0000DF0F000027100000F6
:105390006E100000B6100000FD1000004411000067
:1053A0008B110000D1110000171200005D120000E7
:1053B000A2120000E81200002D130000711300007B
:1053C000B6130000F91300003D1400008114000022
:1053D000C414000006150000491500008B150000DC
:1053E000CC1500000E1600004F1600008F160000AE
:1053F000CF1600000F1700004F1700008E17000097
:10540000CD1700000B180000491800008718000095
:10541000C4180000011900003D19000079190000AE
:10542000B5190000F01900002B1A0000661A0000E0
:105430009F1A0000D91A0000121B00004B1B00002D
:10544000831B0000BB1B0000F21B0000291C000096
:10545000601C0000961C0000CB1C0000001D00001A
:10546000351D0000691D00009D1D0000D01D0000BD
:10547000031E0000351E0000671E0000981E00007D
:10548000C91E0000FA1E0000291F0000591F00005D
:10549000881F0000B61F0000E41F0000112000005C
:1054A0003E2000006A20000096200000C12000007D
:1054B000EC200000162100004021000069210000BE
:1054C00092210000BA210000E12100000822000022
:1054D0002F220000552200007A2200009F220000A7
:1054E000C3220000E72200000A2300002D23000051
:1054F0004F2300007023000091230000B22300001E
:10550000D1230000F12300000F2400002D2400000F
:105510004B2400006824000084240000A024000024
:10552000BB240000D5240000EF2400000925000062
:10553000222500003A2500005225000069250000C0
:105540007F25000095250000AA250000BF2500004A
:10555000D3250000E6250000F92500000B260000F9
:105560001D2600002E2600003E2600004E260000CC
:105570005D2600006C2600007A26000087260000C9
:1055800094260000A0260000AB260000B6260000EE
:10559000C0260000CA260000D3260000DB2600003B
:1055A000E3260000EA260000F1260000F7260000AE
:1055B000FC26000001270000052700000827000046
:1055C0000B2700000D2700000F2700001027000008
:1055D00010270000000000004FBB610567ACDD3FF5
:1055E000182D4454FB21E93F9BF681D20B73EF3F0A
:1055F000182D4454FB21F93FE2652F227F2B7A3C82
:10560000075C143326A6813CBDCBF07A8807703C3A
:10561000075C143326A6913CC4EB98999999C9BFAD
:10562000711623FEC671BCBF6D9A74AFF2B0B3BFE2
:105630009AFDDE522DDEADBF2F6C6A2C44B4A2BFA2
:105640000D5555555555D53FFF8300922449C23F0E
:105650006E204CC5CD45B73F513DD0A0660DB13F42
:10566000EB0D76244B7BA93F11DA22E33AAD903F54
:105670000000000000000000DDDDDDDDDCBBBBDD87
:10568000DDDDDDDDDDDDDDDD9888888888888888E2
:105690007777777777888888855555566666666602
:1056A00066666666666888888333333222222222E1
:1056B000222222222228888DD856000800000020AD
:1056C000CC00000028290008A4570008CC000020C6
:1056D000B40500003829000800000000010203049E
:1056E000010203040607080902040608000000007E
:1056F00000000000000000000000000000000000AA
:105700000000000000000000000000000000000099
:105710000000000000000000000000000000000089
:105720000000000000000000000000000000000079
:105730000000000000000000000000000000000069
:105740000000000000000000000000000000000059
:105750000000000000000000000000000000000049
:105760000000000000000000000000000000000039
:105770000000000000000000000000000000000029
:105780000000000000000000000000000000000019
:105790000000000000000000000000000000000009
:0457A0000000000005
:04000005080000ED02
:00000001FF
