:020000040800F2
:1000000060050020ED010008572300089321000837
:10001000552300083F090008152D000800000000C6
:100020000000000000000000000000005B2300084A
:100030004109000800000000592300085D23000862
:10004000070200080702000807020008070200086C
:10005000070200080702000807020008070200085C
:10006000070200080702000807020008070200084C
:10007000070200080702000807020008070200083C
:10008000070200080000000007020008070200083D
:10009000070200080702000807020008070200081C
:1000A000070200080702000807020008070200080C
:1000B00007020008070200080702000807020008FC
:1000C00007020008070200080702000807020008EC
:1000D00007020008070200080702000807020008DC
:1000E00007020008070200080702000807020008CC
:1000F00007020008070200080702000800000000CD
:1001000000000000070200080000000007020008CD
:100110000702000800000000D923000807020008B9
:10012000070200080702000807020008070200088B
:10013000070200080000000000000000070200089D
:10014000070200080702000800000000000000008D
:10015000000000000000000000000000000000009F
:10016000000000000000000000000000070200087E
:10017000070200080000000000000000000000006E
:10018000000000000702000800000000000000005E
:10019000000000000000000000000000000000005F
:1001A000000000000000000007020008070200082D
:1001B000070200080702000807020008000000000C
:1001C000000000000702000800000000000000001E
:1001D0000702000807020008DFF80CD000F060FBFF
:1001E00000480047AD4200086005002006488047EF
:1001F00006480047FEE7FEE7FEE7FEE7FEE7FEE70C
:10020000FEE7FEE7FEE7FEE7C9230008D901000884
:100210002DE9F05F0546002092469B46884606463B
:10022000814640241BE0284641464746224600F0CE
:100230009FF953465A46C01A914110D311461846A9
:10024000224600F086F92D1A67EB01084F46224638
:100250000120002100F07DF917EB00094E41201E1E
:10026000A4F10104DFDC484631462A464346BDE896
:10027000F09FD2B201E000F8012B491EFBD270477B
:100280000022F6E710B513460A4604461946FFF762
:10029000F0FF204610BD2DE9FE4F804681EA0300A5
:1002A000C00F0C46009021F0004123F00045B8EB50
:1002B0000200A94105D24046214690461C460B4605
:1002C000024623F00040104347D0270DC7F30A0031
:1002D000C3F30A510290401A019040286BDAC3F32D
:1002E000130040F4801B0098924620B10023D2EB0B
:1002F000030A63EB0B0B01985946C0F140025046CC
:1003000000F027F906460D4650465946019A00F07E
:100310003FF910EB08006141002487EA115284EA9A
:10032000E7731A4340D0009A62B3019A012A4FEA58
:10033000075215DC001B61EB02014FF0004202EA9C
:100340000752CDE90042001C41F5801132462B4690
:1003500000F076F903B0BDE8F08F40462146F9E79A
:10036000001B61EB0201001C41F5801300185B418A
:100370002018A2F5001747EB030140EAD570B61923
:100380006D4111E06D084FEA360645EAC0754FEA47
:100390000752001B61EB0201001C41F58011490866
:1003A0004FEA30000019514132462B4603B0BDE8F8
:1003B000F04F00F036B90098012240000023D0EB46
:1003C000020263EBE073009821464FEAE074B8EB59
:1003D000000061EB0401E9E783F000435BE781F093
:1003E000004158E72DE9FE4F81EA030404F0004480
:1003F00021F0004100944FF0000B23F0004350EA3D
:1004000001045ED052EA03045BD0C3F30A54C1F383
:100410000A552C44A4F2F3340194A0FB0254C1F316
:10042000130141F48011C3F3130343F4801301FB60
:10043000024400FB034E840A970A44EA815447EAC7
:100440008357A4FB076802958D0A05FB07854FEAD1
:10045000932C04FB0C542705029D4FEA065847EAEB
:100460001637B5EB08056EEB070C870E920E47EAC0
:10047000811742EA8312A7FB0201B6EB0B0164EB82
:1004800000042B0D43EA0C335E1844EB1C50DA4693
:100490005146E7FB0201C5F313044FEA0B3343EA6D
:1004A00014534FEA0432019C43EA0603A4F10C04FE
:1004B0000294009CCDE900B400F0C2F803B0BDE89E
:1004C000F08F00200146F9E700F0004230F00040D4
:1004D0000AD0C10D01F56071C0F3160042EA015166
:1004E000C20840071143704700200146704701F0E1
:1004F000004330B421F0004150EA010206D00A0D59
:10050000A2F56072C1F31301002A02DC30BC0020A6
:100510007047440F44EAC104C100E01830BC00EB4E
:10052000C25000F047B830B50B46014600202022EB
:10053000012409E021FA02F59D4205D303FA02F5F0
:10054000491B04FA02F52844151EA2F10102F1DC50
:1005500030BD202A04DB203A00FA02F10020704767
:100560009140C2F1200320FA03F3194390407047F1
:10057000202A04DB203A21FA02F00021704721FAF8
:1005800002F3D040C2F1200291400843194670475F
:10059000202A06DBCB17203A41FA02F043EAE07347
:1005A00006E041FA02F3D040C2F120029140084334
:1005B000194670470029A8BF7047401C490008BF72
:1005C00020F00100704710B4B0FA80FC00FA0CF083
:1005D00050EA010404BF10BC704749B1CCF12004BB
:1005E00021FA04F411FA0CF118BF01212143084348
:1005F000A3EB0C01CB1D4FEA00614FEA102042BF74
:10060000002010BC704700EBC35010440029A4BF69
:1006100010BC7047401C490008BF20F0010010BC0E
:10062000704710B5141E73F1000408DA401C41F144
:10063000000192185B411A4301D120F0010010BD66
:100640002DE9F04D92469B4611B1B1FA81F202E0DC
:10065000B0FA80F220329046FFF77BFF04460F4647
:1006600040EA0A0041EA0B0153465A46084313D0B8
:10067000114653EA010019D0C8F140025046FFF775
:1006800077FF05460E46504659464246FFF761FF42
:10069000084305D0012004E020463946BDE8F08D2E
:1006A0000020054346EAE0762C4337430A98630569
:1006B000E40AA0EB08000022FD0A44EA47540A308D
:1006C00002D500200146E9E7010510196941DDE97D
:1006D000084500196941BDE8F04DA2E72DE9F04D4C
:1006E00081EA030404F0004B21F0004514464FF06A
:1006F000000A23F0004150EA050220D054EA01022A
:100700001DD0C5F30A570246C5F31303C1F3130006
:10071000C1F30A5640F4801543F48013A7EB060892
:10072000101BD64608F2FD3873EB050002D308F122
:10073000010801E092185B41B8F1000F03DA0020D4
:100740000146BDE8F08D00204FF480110646844636
:100750000EE0171B73EB050705D3121B63EB0503B4
:1007600006434CEA010C49084FEA300092185B41FD
:1007700050EA0107EDD152EA030012D082EA0400E8
:1007800083EA0501084305D0101BAB4106D20122C4
:10079000002306E000224FF0004302E06FF0010268
:1007A00053101AEB06004CEB085110EB0A0041EB1A
:1007B0000B01BDE8F04DFFF734BF2DE9FE4FC3F349
:1007C0000A5701F000450024C1F30A56C3F313038E
:1007D000C1F3130143F4801312EB020AA64641F45D
:1007E0008011009543EB030CA7F1010B16E0B0EB71
:1007F0000A0061EB0C01071E71F1000707DA4FF0E8
:100800000008D0EB080085F0004568EB0101171ADD
:1008100073EB0107EBD3761E001849415E45F6DA0B
:1008200050EA010209D0CDE900E500221346029604
:10083000FFF706FF03B0BDE8F08F20460099F9E707
:10084000C1F30A52C1F3130140F2FF3341F48011A6
:100850009A4202DA00200146704740F233439A423E
:10086000A2F2334202DC5242FFF782BEFFF771BEB2
:1008700030B5041E71F1000404DB4FF00044404227
:1008800064EB0101141E73F1000405DB1C464FF0FC
:100890000043524263EB0403994208BF904230BDCB
:1008A000064C074D06E0E06840F0010394E80700BD
:1008B00098471034AC42F6D3FFF792FC304700085B
:1008C000504700080EB5C10F80EAE0700844CA071F
:1008D000002140F233438DE80E000A460B46FFF735
:1008E000AFFE03B000BD0EB540F2334102910021CE
:1008F000CDE900110A460B46FFF7A2FE03B000BD8A
:1009000070B5C1F30A5201F000450024C1F3130190
:1009100040F2FF3341F480119A4201DA002070BDA9
:1009200040F233439A42A2F2334203DC5242FFF7D1
:100930001FFE00E090402C43F1D0404270BDFEE726
:10094000704772B6FEE700002DE9F04FDFF8209205
:10095000002301260324A9F1040B85B00F2709F118
:10096000040AABF1040EFAE006FA03F52A407CD043
:1009700091F804C00CF0030CBCF1010F02D0BCF1E3
:10098000020F26D1D0F808C0CDF800C04FEA430CC2
:1009900004FA0CF8CDF810C0DDF800C02CEA080C01
:1009A000CDF800C0D1F80C80DDF810C008FA0CF8C2
:1009B000DDF800C048EA0C08C0F80880D0F804C090
:1009C0002CEA050C0D79C5F300159D4045EA0C0590
:1009D00045600D79ED43AD070ED0C5684FEA430879
:1009E00004FA08FC25EA0C05D1F808C00CFA08FC4A
:1009F0004CEA050CC0F80CC00D7905F00305022D7A
:100A000016D1DD0800EB850CCDF808C0DCF820809D
:100A10005D074FEAD56C07FA0CF528EA05080D6961
:100A200005FA0CF5DDF808C045EA0805CCF82050B9
:100A300005684FEA430CCDF808C004FA0CFC25EA1F
:100A40000C0591F804C00CF00308DDF808C008FAA2
:100A50000CF848EA0508C0F800804D6815F4403FDE
:100A60007CD0444DD5F860C000E077E04CF0010C3C
:100A7000C5F860C02D6E23F0030C05F0010500954C
:100A80003D4D65440295AD684FEA837C4FEA1C7882
:100A900007FA08FC25EA0C05B0F1904F06D0DFF804
:100AA000DCC0604505D14FF0010C20E04FF0000C98
:100AB0001DE0DFF8CCC0604502D14FF0020C16E01B
:100AC000DFF8C0C0604502D14FF0030C0FE0DFF843
:100AD000B8C0604502D14FF0040C08E0DFF8ACC0AC
:100AE000604502D14FF0050C01E04FF0060C0CFA06
:100AF00008FC4CEA050C029DC5F808C0D9F8005066
:100B0000CC46D1F8048095435FEAC82800D5154348
:100B1000CCF80050DAF80050D446D1F80480954360
:100B20005FEA882800D51543CCF80050DBF8005068
:100B3000DC46D1F8048095435FEA883800D5154338
:100B4000CCF80050DEF80050F446D1F8048095430C
:100B50005FEAC83800D51543CCF800505B1C0A6822
:100B600032FA03F57FF400AF05B0BDE8F08F000066
:100B70000804014000100240000001400004004849
:100B800000080048000C004800100048001400480D
:100B90000148806870470000180000200248816802
:100BA00042681144816070471800002010B500248D
:100BB000032000F073F80F2000F008F808B10124BA
:100BC00001E000F025F8204610BD000070B50E4E83
:100BD00005460024706898B14FF47A71B1FBF0F0CB
:100BE0000A490968B1FBF0F000F05EFD40B9102D34
:100BF00006D200222946501E00F030F8356000E091
:100C00000124204670BD00001800002024000020B0
:100C10000A4882B0016E41F001010166016E01F0E7
:100C200001010091816D41F080518165806D00F07E
:100C30008050009002B000F0A1B800000010024007
:100C4000002809DB00F01F020121914040098000CB
:100C500000F1E020C0F8001170470000F0B40E4B26
:100C60001B680C46C3F30223C3F10705042D00D90A
:100C70000425191D072901D2002300E0DB1E0126EF
:100C800006FA05F1491E214099409E40761E164005
:100C90003143F0BC02F068B80CED00E0064900F00A
:100CA000070208684FF6FF03184040EA0220034A93
:100CB00010430860704700000CED00E00000FA05EA
:100CC0002B492C4B0A6832214A432B4940B1B0F5DD
:100CD000007F086829D020F4C06040F480602CE0D8
:100CE0000868C0F34120022804D051F8800F20F496
:100CF000807022E0D1F8800020F48070C1F880007C
:100D0000086820F4C06040F400700860B2FBF3F0A3
:100D1000401C00E0401E4A69520501D50028F9D167
:100D2000486940050AD503207047C0F341200228D6
:100D300006D051F8800F40F48070086000207047A2
:100D4000D1F8800040F48070C1F88000086820F479
:100D5000C06040F400700860B2FBF3F0401C00E09B
:100D6000401E4A695205DBD50028F9D1D8E70000BA
:100D70002400002040420F000070004002488168BB
:100D800041F4804181607047007000402DE9F843D4
:100D90000446006800269D4D00035ED5A86D00271F
:100DA000C00008D4A86D40F08050A865A86D012748
:100DB00000F080500090DFF85892D9F8001041F40C
:100DC0008071C9F80010FFF7E3FE804606E000BF1F
:100DD000FFF7DEFEA0EB080002282BD8D9F80000B0
:100DE000C005F5D5D5F8900010F4407014D0216CF2
:100DF000814211D0D5F89000D5F8901020F44070C1
:100E000041F48031C5F89010D5F8901021F480316C
:100E1000C5F89010C5F89000C00711D0FFF7B8FED4
:100E2000804641F2883907E0FFF7B2FEA0EB0801E7
:100E3000494501D903260BE0D5F890008007F3D58A
:100E4000D5F89000216C20F440700843C5F890005C
:100E50001FB1A86D20F08050A8652078C00707D08A
:100E6000D5F88800616820F003000843C5F88800C1
:100E70002078800707D5D5F88800A16820F00C00FD
:100E80000843C5F888002078400707D5D5F88800C2
:100E9000E16820F030000843C5F88800207800079A
:100EA00007D5D5F88800216920F0C0000843C5F8AF
:100EB00088002078800607D5D5F88800616920F47D
:100EC00040600843C5F888002078400607D5D5F86B
:100ED0008800A16920F440500843C5F888002078B4
:100EE000000607D5D5F88800E16920F440400843A2
:100EF000C5F888002088C00507D5D5F88800216A84
:100F000020F440300843C5F888002088800507D5C4
:100F1000D5F88800616A20F440200843C5F88800AD
:100F2000208840050FD5D5F88800A16A20F440102C
:100F30000843C5F88800A06AB0F5801F03D1E868AF
:100F400040F48010E860208800050FD5D5F88800AF
:100F5000E16A20F440000843C5F88800E06AB0F573
:100F6000800F03D1E86840F48010E8602088C00456
:100F70000FD5D5F88800216B20F040700843C5F8E4
:100F80008800206BB0F1807F03D1E86840F48010C6
:100F9000E86020884FF0006180040ED5D5F8880005
:100FA000626B20F040601043C5F88800606B884297
:100FB00003D1E86840F48010E860208840040ED532
:100FC000D5F88800A26B20F040601043C5F8880077
:100FD000A06B884203D1E86840F48010E860208864
:100FE00000040FD5D5F88800E16B20F0405008438D
:100FF000C5F88800E06BB0F1805F03D1E86840F489
:101000008030E8603046BDE8F88300000010024000
:10101000007000402DE9F0470E4605004FF0000734
:1010200025D0DFF8AC81D8F8000000F00F00B04206
:101030000CD2D8F8001021F00F013143C8F800108D
:10104000D8F8000000F00F00B04210D12968614CC0
:10105000C80741F2883A5AD06868DFF87C910328C3
:1010600008D0022820682DD0400500282CDB012064
:10107000BDE8F08720688001F9D5E06800F0030240
:10108000E068C0F30310401C032A19D0534A00BF84
:10109000B2FBF0F0E268C2F306225043E268C2F30A
:1010A0004162521C5200B0FBF2F0484517D9A068CB
:1010B00010F0F00F0CD0880711D5A86840B10EE0F1
:1010C000474AE5E78003D0E700F0B6F8484506D97F
:1010D000A06820F0F00040F08000A0608027A068A9
:1010E000696820F003000843A060FFF751FD8146C6
:1010F00006E000BFFFF74CFDA0EB090151453AD8CF
:10110000A068696800F00C00B0EB810FF2D128688C
:10111000810714D5400703D5A06840F4E060A060C3
:101120002878000705D5A06820F4605040F4E060FE
:10113000A060A068A96820F0F000084304E0802FB8
:1011400003D1A06820F0F000A060D8F8001040465D
:1011500001F00F01B14216D9016821F00F013143AE
:101160000160FFF715FD074607E000BFFFF710FD20
:10117000C11B514501D903207AE7D8F8000000F0DF
:101180000F00B042F2D12878400705D5A068E96881
:1011900020F4E0600843A0602878000706D5A06826
:1011A000296920F4605040EAC100A06000F044F8D2
:1011B000A1680C4AC1F30311515C01F01F01C84042
:1011C0000949086009480068BDE8F047FFF7FEBC20
:1011D000002002400010024000B4C4040024F400C7
:1011E00000127A00F84500082400002018000020B2
:1011F0000548064900688968054AC1F30221515C27
:1012000001F01F01C8407047240000200010024078
:10121000084600080548064900688968054AC1F380
:10122000C221515C01F01F01C8407047240000201A
:101230000010024008460008184910B58868C0F33D
:1012400081021748012A0BD08A684310C2F3810239
:10125000022A06D08A68C2F38102032A03D0002042
:1012600010BD184610BDCA6802F00304CA68C2F374
:101270000312521C032C02D0B0FBF2F001E0B3FBCE
:10128000F2F0CA68C968C2F306225043C1F3416153
:10129000491C4900B0FBF1F010BD000000100240F5
:1012A0000024F4002DE9F84304007AD02078F84DAA
:1012B000C00747D0A868E96800F00C0001F00301FE
:1012C0000C2802D0082817D001E0032914D0606848
:1012D000B0F5803F17D0B0F5A02F286817D020F4C4
:1012E00080302860286820F4802028606068E0B1A1
:1012F000FFF74EFC064614E02868800322D560689C
:101300000028D2D01EE0286840F48030EDE740F499
:1013100080202860F7E700BFFFF73AFC801B6428B5
:1013200070D828688003F7D50CE0FFF731FC06463B
:1013300005E000BFFFF72CFC801B6428F0D828686C
:101340008003F7D4207880074CD5A868E96800F0BE
:101350000C0001F003010C2802D004280DD001E09C
:1013600002290AD0E068002828682BD040F4807059
:101370002860FFF70DFC064619E02868400502D5F5
:10138000E068002891D06868217C20F0FE4040EAA7
:1013900001606860BF480068FFF718FC002800D1B2
:1013A00020E072E1FFF7F4FB801B0228B8D8286820
:1013B0004005F7D56868217C20F0FE4040EA0160D6
:1013C00068600FE020F480702860FFF7E1FB0646BC
:1013D00005E000BFFFF7DCFB801B0228A0D82868CF
:1013E0004005F7D42078000729D560690028D5F892
:1013F000940013D040F00100C5F89400FFF7C8FB3B
:10140000064606E090E000BFFFF7C2FB801B022803
:1014100086D8D5F894008007F6D510E020F00100BA
:10142000C5F89400FFF7B4FB064604E0FFF7B0FBF5
:10143000801B022878D8D5F894008007F6D420784D
:10144000400761D5A86D0026C00008D4A86D40F003
:101450008050A865A86D012600F0805000908E484D
:101460000168C90511D40168804641F480710160AA
:10147000FFF78EFB074604E0FFF78AFBC01B02283C
:1014800052D8D8F80000C005F6D5A068012815D0BC
:101490000528D5F8900016D020F00100C5F890007E
:1014A000D5F8900020F00400C5F89000A06841F243
:1014B0008838B8B1FFF76CFB07460EE0D5F890000E
:1014C00040F00100F0E740F00400C5F89000F5E7B7
:1014D000FFF75EFBC11B414526D8D5F89000800779
:1014E000F6D50CE0FFF754FB074604E0FFF750FB8E
:1014F000C11B414518D8D5F890008007F6D41EB11D
:10150000A86D20F08050A8652078800629D5A069B4
:101510000028D5F8980013D040F00100C5F89800D5
:10152000FFF736FB064606E075E000BFFFF730FB2D
:10153000801B02286FD8D5F898008007F6D510E0F8
:1015400020F00100C5F89800FFF722FB064604E0F2
:10155000FFF71EFB801B02285DD8D5F89800800796
:10156000F6D4E069F0B3A968C1F3810103295DD025
:101570000228286820F08070286003D0FFF708FB5D
:1015800004464BE0FFF704FB064604E0FFF700FBD0
:10159000801B02283FD828688001F7D4F4E90801AD
:1015A0006FF00F0202EB01110843218A520449082F
:1015B00002EB4151A26841EA02210843217D4FF02C
:1015C0007E42490802EB41610843217B40EAC16049
:1015D000E968324A11400843E860286840F08070AA
:1015E000286000E05EE0E86840F08070E860FFF7A7
:1015F000CFFA044605E000BFFFF7CAFA001B022835
:1016000009D828688001F7D54CE000BFFFF7C0FA81
:10161000001B022802D90320BDE8F8832868800156
:10162000F4D4E8681E490840E8603BE00128F3D0A4
:10163000E868226A00F00301914226D1616A00F055
:10164000F0020901103991421FD1A26A00F4FE4153
:10165000B1EB022F19D194F82C2000F07841B1EBB6
:10166000C26F12D1218E00F4C00249084905A1F5CC
:101670000011914209D194F8341000F0C06049087B
:101680004906A1F1007181420CD00120C4E700009D
:101690000010024018000020007000400C809F01E4
:1016A000FCFFEEFE0020B7E710B5401EB0F1807FD2
:1016B00001D3012010BD4FF0E02460610F216017BD
:1016C00001F052FB0020A06107202061002010BD26
:1016D000704770477047000030B590F83C20012AF1
:1016E00042D0012280F83C20CA688B6822F4407204
:1016F0001A434B6822F480621A430B6822F400629A
:101700001A430B6922F480521A434B6922F40052A7
:101710001A430B6B22F480421A430B8B22F4702283
:1017200042EA0342CB6922F080521A430F4D03680C
:101730000024AB4202D00E4DAB4210D10D8D22F4ED
:10174000700242EA05520D6A22F080722A434D6A05
:1017500022F000722A43C96A22F000520A435A64F6
:1017600080F83C40002030BD022030BD002C0140FC
:10177000003401407047704770470000F0B590F8A2
:101780003C20012A3AD0012580F83C50022280F802
:101790003D2003685A689C68194E1A4FB34201D025
:1017A000BB4204D122F4700C4A6842EA0C02DFF812
:1017B00058C002EA0C02D1F800C04CEA020CC3F88F
:1017C00004C00268B2420DD0B2F1804F0AD00F4B74
:1017D0009A4207D00E4B9A4204D0BA4202D00D4B27
:1017E0009A4204D1896824F080031943916080F8FB
:1017F0003D50002180F83C100846F0BD0220F0BDAD
:10180000002C0140003401408FFFFFFD0004004028
:10181000000800400040014010B50446022249B1D2
:1018200004290ED0082913D094F84700012816D0B7
:10183000012010BD94F844000128F9D184F8442017
:101840000FE094F845000128F2D184F8452008E023
:1018500094F846000128EBD184F8462001E084F892
:1018600047200422206800F028FE2068416C41F4E3
:10187000004141641049206888420ED0B0F1804F89
:101880000BD00E49884208D00D49884205D00D4939
:10189000884202D00C49884207D181680B4A114026
:1018A000062906D0B1F5803F03D0016841F001015F
:1018B0000160002010BD0000002C01400004004029
:1018C00000080040003401400040014007000100D2
:1018D000704710B5040003D094F83D0010B107E044
:1018E000012010BD002084F83C00204600F022F8C2
:1018F000022084F83D00211D206800F073FD0120C6
:1019000084F8480084F83E0084F83F0084F84000E2
:1019100084F8410084F8420084F8430084F84400CD
:1019200084F8450084F8460084F8470084F83D00B8
:10193000002010BD08B500680B49884212D10B4841
:10194000816D41F010018165806D002200F0100072
:10195000009011463620FFF781F9BDE80840362097
:10196000FFF76EB908BD00000010004000100240F3
:1019700090F83D10012901D001207047022180F824
:101980003D100168CA6842F00102CA60006810494F
:1019900088420ED0B0F1804F0BD00E49884208D05B
:1019A0000D49884205D00D49884202D00C49884231
:1019B00007D181680B4A1140062906D0B1F5803F56
:1019C00003D0016841F00101016000207047000070
:1019D000002C014000040040000800400034014099
:1019E000004001400700010070472DE9F041044626
:1019F0000068C66805694FF00007A90713D5B1074D
:101A000011D5F91E016101202077206880698007C7
:101A1000204602D0FFF7E8FF04E000F001F920467D
:101A200000F0D6F92777680716D5700714D5216816
:101A30006FF004000861022020772068806910F4AC
:101A4000407F204602D0FFF7CFFF04E000F0E8F827
:101A5000204600F0BDF92777280715D5300713D5A4
:101A600021686FF008000861042020772068C069B1
:101A70008007204602D0FFF7B7FF04E000F0D0F85F
:101A8000204600F0A5F92777E80616D5F00614D50C
:101A900021686FF010000861082020772068C06975
:101AA00010F4407F204602D0FFF79EFF04E000F0D4
:101AB000B7F8204600F08CF92777E80708D0F00740
:101AC00006D021686FF001000861204600F000FA9E
:101AD000280601D4A80408D5300606D521686FF47D
:101AE000025008612046FFF7F4FDE80508D53006EE
:101AF00006D521686FF4807008612046FFF7E8FD85
:101B0000680608D5700606D521686FF040000861A8
:101B1000204600F005FAA80608D5B00606D52168CB
:101B20006FF0200008612046FFF7D4FDE80208D5D9
:101B3000F00206D521686FF4801008612046FFF797
:101B40001AFEA80208D5B00206D521686FF400106D
:101B500008612046FFF70EFE680208D5700206D520
:101B600021686FF4800008612046FFF705FE280217
:101B70000AD5300208D521686FF4000008612046BC
:101B8000BDE8F041FFF7A4BEBDE8F081F0B587B035
:101B9000044614216846FEF773FB1E4920688842FC
:101BA00036D11D48C16C41F00201C164C16C01F025
:101BB00002010591C16C41F00101C164C06C0225B4
:101BC00000F0010005904FF4C04000900024CDE9E2
:101BD00001540626114FCDE9034669463846FEF703
:101BE000B3FEA8030090CDE901540420CDE90340E1
:101BF00069463846FEF7A8FE4FF4E0600090CDE954
:101C00000154CDE9034669464FF09040FEF79CFE33
:101C100007B0F0BD002C0140001002400004004855
:101C2000704770B5044690F83C0000260D46012828
:101C30000BD0012084F83C000C2A4AD007DC82B18A
:101C4000042A20D0082A06D131E0022070BD102AD3
:101C500053D0142A63D00126002084F83C0030467B
:101C600070BD206800F036FC2068816941F00801F1
:101C700081612068816921F00401816120688169A6
:101C80002A69114311E0206800F072FC2068816924
:101C900041F4006181612068816921F48061816182
:101CA000206881692A6941EA02218161D4E72068BC
:101CB00000F0A6FC2068C16941F00801C1612068FC
:101CC000C16921F00401C1612068C1692A69114319
:101CD00011E0206800F0DCFC2068C16941F400617B
:101CE000C1612068C16921F48061C1612068C16956
:101CF0002A6941EA0221C161AEE7206800F010FDC7
:101D00002068016D41F0080101652068016D21F036
:101D1000040101652068016D2A69114311E0206802
:101D200000F036FD2068016D41F400610165206816
:101D3000016D21F4806101652068016D2A6941EA25
:101D40000221016588E710B5040003D094F83D0036
:101D500010B107E0012010BD002084F83C002046AF
:101D600000F022F8022084F83D00211D206800F0D8
:101D700039FB012084F8480084F83E0084F83F00D5
:101D800084F8400084F8410084F8420084F843005D
:101D900084F8440084F8450084F8460084F847003D
:101DA00084F83D00002010BD08B50068064988424F
:101DB00008D10648016E41F400610166006E00F42E
:101DC0000060009008BD0000002C0140001002409F
:101DD0007047000030B50446022269B1042912D0D0
:101DE000082917D00C291CD0102921D094F84300C1
:101DF000012824D0012030BD94F83E000128F9D1FB
:101E000084F83E201DE094F83F000128F2D184F8C8
:101E10003F2016E094F840000128EBD184F84020E0
:101E20000FE094F841000128E4D184F8412008E053
:101E300094F842000128DDD184F8422001E084F8C2
:101E400043200122206800F02BFB194B2068194920
:101E5000194A984209D0884207D0904205D0174DC0
:101E6000A84202D0164DA84203D1456C45F4004566
:101E70004564206898420CD0B0F1804F09D0114BD6
:101E8000984206D0104B984203D0884201D090422D
:101E900007D181680D4A1140062906D0B1F5803F6F
:101EA00003D0016841F001010160002030BD000055
:101EB000002C01400034014000400140004401403A
:101EC00000480140000400400008004007000100F5
:101ED00010B500680C49884214D10C4CDFED0C0A97
:101EE0009FED0C0A94ED001A02F01EF92068FEF72F
:101EF000EBFA9FED091B53EC112BFEF76DFAFEF781
:101F0000F6FA206010BD0000001000400000002024
:101F100000000000CDCC4C3E9A9999999999C93FFF
:101F2000704790F88410012918D0012180F884109E
:101F30002421C0F8881001680A680B6823F00103A7
:101F40000B6022F0005100224266036819602021D4
:101F5000C0F8881080F8842010467047022070472F
:101F600070B5044690F8840001281DD0012084F843
:101F700084002420C4F8880020680568026822F0E4
:101F8000010202602068826822F060620A43826077
:101F9000204600F035FC206805602020C4F8880049
:101FA000002084F8840070BD022070BD70B5044626
:101FB00090F8840001281DD0012084F8840024209A
:101FC000C4F8880020680568026822F001020260F7
:101FD0002068826822F060420A438260204600F056
:101FE0000FFC206805602020C4F88800002084F8D9
:101FF000840070BD022070BD10B5040003D0D4F879
:10200000880010B107E0012010BD002084F8840092
:10201000204600F027F82420C4F8880020680168D2
:1020200021F001010160A06A10B1204600F00AFC15
:10203000204600F0EBFC0128E6D02068416821F43E
:10204000904141602068816821F02A018160206808
:10205000016841F0010101602046BDE8104000F038
:1020600055BC000010B598B00446142111A8FEF725
:1020700007F944216846FEF703F9174920688842AA
:1020800027D104200024009003946846FEF77EFECA
:1020900008B1FEF756FC1148816D41F4802181653D
:1020A000816D01F480211691C16C41F00201C1647F
:1020B000C06C11A900F0020016904FF4406011901E
:1020C0000220CDE912040720CDE914400448FEF7B0
:1020D0003BFC18B010BD000000480040001002405A
:1020E000000400482DE9F8430446D0F888009846DB
:1020F00016460D46202802D00220BDE8F883A5B17F
:102100009EB10020C4F890002120C4F88800183443
:10211000FEF73EFDA6878146E68754F8100C20277F
:10212000183CB0F5805F02D003E00120E5E72069AC
:1021300010B12E46002510E000260EE0802120463A
:1021400000F09EFDC0B9DEB116F8010B216888626F
:10215000B4F85600401EA4F85600B4F856004B469A
:102160004FF00002CDF800800028E7D14FF0400189
:10217000204600F085FD40B1C4F888700320BCE71C
:1021800035F8020BC0F30800E0E7C4F888700020BF
:10219000B3E7FEE70D4808B5C16C41F02001C1640A
:1021A000C16C01F020010091C16C41F00201C164D9
:1021B000C16C01F002010091C16C41F00101C164E8
:1021C000C06C00F00100009008BD0000001002404B
:1021D00010B598B00024149415941C210DA81694E1
:1021E000FEF74EF834216846FEF74AF82C482B4992
:1021F00001601021416020218160F921C0E90314B0
:1022000044618461FFF79FFD08B1FEF79AFB1494C7
:10221000159414A922481694FFF7B0FA08B1FEF7F6
:1022200090FB6020CDE90D040F941094119412944A
:1022300000220DA91A481394FFF7F3FC08B1FEF72A
:1022400080FB04220DA91648FFF7EBFC08B1FEF74E
:1022500078FB08220DA91248FFF7E3FC08B1FEF74E
:1022600070FB00944FF40050CDE904400394000348
:10227000CDE9084001940294069407940A940B94C3
:10228000694607480C94FFF727FA08B1FEF759FB97
:102290000348FFF77BFC18B010BD0000002C014084
:1022A000300000203EB500240F48009401940D49F1
:1022B0000294016040F2A361C0E90114C721846166
:1022C000C160FFF706FB08B1FEF73BFB00946946CF
:1022D00005480294FFF752FA002801D0FEF731FBBF
:1022E0003EBD0000001000407C000020184810B5E2
:1022F000164901604FF4E1314160002181600C22F8
:10230000C160C0E904128161C16101624162816200
:10231000FFF772FE08B1FEF714FB00210C48FFF72F
:1023200045FE08B1FEF70DFB00210948FFF718FE36
:1023300008B1FEF706FB0648FFF7F3FD002803D0BF
:10234000BDE81040FEF7FDBA10BD00000048004097
:10235000C8000020FEE7FEE770477047FEF71EBC8E
:1023600000B593B038216846FDF78AFF14210EA806
:10237000FDF786FF0020FEF7A3FC0220C1010391B8
:10238000402104910421CDE9080100905521CDE9B7
:102390000A1007900C900D906846FEF783FF08B175
:1023A00072B6FEE70F200E9003200F9000201090D1
:1023B0001190129004210EA8FEF72CFE002801D0E7
:1023C00072B6FEE713B000BD0248016841F4700127
:1023D0000160704788ED00E00148FFF706BB000090
:1023E0007C0000202DE9F0430268264B264D274E45
:1023F000274C4FF08049984207D0484505D0A84265
:1024000003D0B04201D0A04203D122F070074A6845
:102410003A43204FDFF880C0DFF8808098420DD02B
:1024200048450BD0A84209D0B04207D0A04205D001
:10243000B84203D0604501D0404503D122F4407535
:10244000CA682A434D6922F080022A4302608A68E2
:10245000C2620A688262984207D0A04205D0B842A0
:1024600003D0604501D0404501D1096901630121D4
:1024700041610169C90703D0016921F001010161CE
:10248000BDE8F083002C014000040040000800403B
:102490000034014000400140004401400048014038
:1024A00010B501F01F030121046A99408C430462B6
:1024B000016A9A401143016210BD10B501F00F038B
:1024C0000421046A99408C430462016A9A401143D2
:1024D000016210BD2DE9F043056A026A22F0010293
:1024E0000262436882691C4C25F0020522400C6898
:1024F00022F0030214438A68194E2A43174D194FDC
:10250000DFF864C0DFF86490A84207D0B04205D07D
:10251000B84203D0604501D0484506D122F00808F2
:10252000CA6842EA080222F00402A84207D0B04278
:1025300005D0B84203D0604501D0484505D14D696A
:1025400023F440731D438B692B43436084614968C6
:1025500041630262BDE8F0838FFFFEFF002C014063
:102560000034014000400140004401400048014067
:10257000F0B5056A026A22F01002026242688369BD
:10258000194C1B4E23400C6823F4407343EA042487
:1025900025F020038D6843EA0513144DA84201D0AD
:1025A000B04206D1CF6823F0800343EA071323F03B
:1025B0004003A8420AD0B04208D00E4DA84205D030
:1025C0000D4DA84202D00D4DA84207D14D6922F40D
:1025D000406242EA85028D6942EA85024260846176
:1025E000496881630362F0BDFF8FFFFE002C01404C
:1025F00000340140004001400044014000480140D7
:10260000F0B5056A026A22F4807202624368C26908
:10261000194C1B4E22400C6822F00302144325F48F
:1026200000728D6842EA0522144DA84201D0B042E2
:1026300006D1CF6822F4006242EA072222F48062C7
:10264000A8420AD0B04208D00E4DA84205D00E4D87
:10265000A84202D00D4DA84207D14D6923F4405342
:1026600043EA05138D6943EA05134360C461496871
:10267000C1630262F0BD00008FFFFEFF002C01402D
:102680000034014000400140004401400048014046
:10269000F0B5056A026A22F4805202624268C36998
:1026A000194C1B4E23400C6823F4407343EA042466
:1026B00025F400538D6843EA0533144DA84201D038
:1026C000B04206D1CF6823F4004343EA073323F432
:1026D0008043A8420AD0B04208D00E4DA84205D08F
:1026E0000D4DA84202D00D4DA84207D14D6922F4EC
:1026F000404242EA85128D6942EA85124260C46115
:10270000496801640362F0BDFF8FFFFE002C0140A9
:1027100000340140004001400044014000480140B5
:1027200030B5056A026A22F4803202624268036DA3
:10273000114C23400C681C4325F400330D8943EAF7
:1027400005430E4DA8420BD00D4DA84208D00D4DAB
:10275000A84205D00C4DA84202D00C4DA84204D18D
:102760004D6922F4803242EA0522426004654968DC
:102770008164036230BD00008FFFFEFF002C01402A
:102780000034014000400140004401400048014045
:1027900030B5046A026A22F4801202624268036D54
:1027A000114D24F400142B400D6843EA05230D89D4
:1027B00044EA05540D4DA8420BD00D4DA84208D057
:1027C0000C4DA84205D00C4DA84202D00B4DA8429A
:1027D00004D14D6922F4802242EA852242600365D9
:1027E0004968C164046230BDFF8FFFFE002C0140C8
:1027F00000340140004001400044014000480140D5
:1028000030B5416EB9B1026891689268C1F3426116
:102810000B4B520F9C5CE50003F10804A25CB5FB76
:10282000F2F2A0F86A205A5C615CD200B2FBF1F1CE
:10283000A0F8681030BD0121A0F86A10F8E7000088
:10284000E845000890F82810090706D501684A688D
:10285000836B22F400421A434A6090F82810C9079B
:1028600006D001684A68C36A22F400321A434A60FB
:1028700090F82810890706D501684A68036B22F48E
:1028800080321A434A6090F82810490706D501683B
:102890004A68436B22F480221A434A6090F8281059
:1028A000C90606D501688A68C36B22F480521A43B0
:1028B0008A6090F82810890606D501688A68036C3A
:1028C00022F400521A438A6090F82810490611D564
:1028D00001684A68436C22F480121A434A60416CD2
:1028E000B1F5801F06D101684A68836C22F4C002EA
:1028F0001A434A6090F82810090606D501684A680C
:10290000C06C22F4002202434A6070472DE9F8436C
:1029100000260446C0F89060FEF73AF98046206829
:1029200000684FF0200500076FF07E4713D543463F
:10293000002229042046009700F0A2F958B121682E
:1029400051E8000F20F0800041E80002002AF6D193
:10295000C4F8885021E020680068400722D543462B
:1029600000224FF480012046009700F089F9C8B199
:10297000216851E8000F20F4907041E80002002A1D
:10298000F6D12068083050E8001F21F0010140E82E
:102990000012002AF5D1C4F88C5084F8846003201A
:1029A000BDE8F883C4F88850C4F88C5044F86C6FC4
:1029B000666026760020F3E710B5026852E8001F33
:1029C00021F4907142E80013002BF6D10E4B0268FF
:1029D000083252E8001F194042E80014002CF6D1DA
:1029E000C16E012908D1016851E8002F22F01002C0
:1029F00041E80023002BF6D12021C0F88C100021E3
:102A0000C166416710BD0000FEFFFFEF2DE9F041F8
:102A10000446016880682269E36910436269002501
:102A20001A431043DFF82CC20A688B4B1A4002434A
:102A30000A6020684168E26821F440511143416016
:102A40002168A069614501D0226A10438A68834BDE
:102A50001A4002438A602068C16A626A21F00F014D
:102A60001143C1627E4923687E488B420DD1D0F864
:102A7000880010F0030006D0012855D0022842D06B
:102A800003283FD152E001203DE077498B420BD132
:102A9000D0F8880010F00C0035D0042833D0082876
:102AA00040D00C282ED141E070498B420BD1D0F898
:102AB000880010F0300026D0102835D0202831D0E2
:102AC00030281FD132E06A498B420BD1D0F8880000
:102AD00010F0C00017D0402826D0802822D0C0286F
:102AE00010D123E063450DD1D0F8880010F4406088
:102AF00009D0B0F5806F17D0B0F5006F12D0B0F5E7
:102B0000406F13D010205B495B4F00264FF400420A
:102B100063453BD160B1022813D004280BD00828AC
:102B200072D10DE00220EEE70420ECE70820EAE78E
:102B3000FEF75EFB01E0FEF77FFB010001D17CE0C8
:102B40001146606A37F810206768B1FBF2F007EBB6
:102B50004703834270D8B0EB073F6DD80023084687
:102B60001946FDF755FB090241EA10610202780897
:102B7000101871413A460023FDF74AFB3F4AA0F581
:102B80004071914258D82168C86056E0E3694FF619
:102B9000EF7893422CD109284ED2DFE800F00508E7
:102BA000114D0D4D4D4D1000FEF722FB01E0FEF7DB
:102BB00031FB010004D140E0FEF73EFBF9E711468E
:102BC000606A37F81000B1FBF0F04100606801EB7B
:102BD0005001B1FBF0F0A0F1100141452CD84FF6A7
:102BE000F0710140C0F3420001432068C16024E05D
:102BF000092821D2DFE800F0050912200E2020204C
:102C00001100FEF7F5FA02E016E0FEF703FB010003
:102C100004D112E0FEF710FBF9E71146606A37F8BD
:102C20001000B1FBF0F1606801EB5001B1FBF0F076
:102C3000A0F1100141450AD901250120A4F86A003C
:102C400024F8680F2846E6602661BDE8F08180B26E
:102C500099E7000000800040F369FFCFFFF4FF1107
:102C6000003801400010024000440040004800408D
:102C7000004C00400024F400D0450008FFFC0F0089
:102C80002DE9F047994617460D4604464FF00008D7
:102C9000089E33E0701C31D0FDF77AFFA0EB0900ED
:102CA000B04218D8BEB120680168490726D5802DEA
:102CB00024D0402D22D0C169C94309070DD408256D
:102CC00005622046FFF778FEC4F8905084F88480AF
:102CD0000120BDE8F0870320FBE7C069C043000581
:102CE0000CD421684FF4006008622046FFF764FEB0
:102CF0002020C4F8900084F88480ECE72068C06944
:102D000035EA000004D00020B842C3D00020E0E73C
:102D10000120F9E7FEE700000FB4054B10B503A949
:102D2000044A029800F068FE10BC5DF814FB000035
:102D3000954200082800002003B401984100009843
:102D400050EAC12018BF04204A0D18BF40F001000E
:102D500040F2FF72B2EB515F08BF40F00200012861
:102D600008BF052002B070470907090E002804DBE0
:102D700000F1E02080F80014704700F00F0000F12F
:102D8000E02080F8141D704710B52F499FED2C1BD3
:102D90002DED020B84B0059820F000408842D8BF8A
:102DA0009DED040B2DDD2949884209D1049840B9D5
:102DB0004FF0010000F058FD00F026FD06B010BDF8
:102DC00005DB9DED040B00F013FD06B010BD684659
:102DD0009DED040B00F024F910F0030004BF9DEDFD
:102DE000021B9DED000B0CD001280ED09DED021BA7
:102DF0009DED000B022817D0012000F061FC06B009
:102E000010BD00F029FB06B010BD9DED021B9DED2D
:102E1000000B012000F054FC51EC100B81F000413C
:102E200006B041EC100B10BD00F016FB51EC100B7E
:102E300081F0004106B041EC100B10BD0000000015
:102E40000000000000000000FB21E93F0000F07FCF
:102E500010B52DED040B86B09DED060B10EE100A9B
:102E600010EE901A8DED000B002818BF01200843CA
:102E700020F00040C0F17F6000F1E040C00F21D1A0
:102E80009DED080B10EE101A10EE900A8DED000B60
:102E9000002918BF0121084320F00040C0F17F60E5
:102EA00000F1E040C00F0DD129490798B1EB400F68
:102EB00004BF0698002842D00998400004BF089833
:102EC00000283CD09DED080B53EC102B9DED060B1C
:102ED00051EC100BFDF771FCCDE902019DED020BE9
:102EE00040F2FF7110EE900A8DED000B31EA1050A8
:102EF00021D00798039900F0004001F0004188427A
:102F000019D09DED080B8DED040B9DED020B8DEDA1
:102F1000000B10EE900A059961F31E0005909DEDDF
:102F2000041B9DED020B51EC110B53EC102BFDF724
:102F300056FACDE902019DED020B0AB010BD012049
:102F400000F092FC0AB0BDE8104000F05DBC00004B
:102F50000000E0FF0000000010B52F499FED2C1B82
:102F60002DED020B84B0059820F000408842DCBFB4
:102F700000209DED040B32DD2849884209D10498D8
:102F800040B94FF0010000F06FFC00F03DFC06B0CE
:102F900010BD05DB9DED040B00F02AFC06B010BD52
:102FA00068469DED040B00F03BF810F0030011D0D3
:102FB000012818D09DED021B9DED000B02281AD0B0
:102FC00000F04AFA51EC100B81F0004106B041ECE0
:102FD000100B10BD9DED021B9DED000B012000F0BC
:102FE0006FFB06B010BD9DED021B9DED000B00F0C8
:102FF00033FA06B010BD012000F062FB51EC100B5B
:1030000081F0004106B041EC100B10BD0000000043
:103010000000000000000000FB21E93F0000F07FFD
:103020002DE9F14F04462DED020B2DED088B8AB0F2
:103030009FEDE70B80ED020B139EE74826F000455D
:1030400085420ADC9DED120B002084ED000B0AB0D6
:10305000BDEC088B03B0BDE8F08FE0489FEDE0AB1E
:103060009FEDE1BBA84247DDE14F9FEDE39B9FED64
:10307000E48B9DED120B53EC1A2B51EC100B002E30
:103080001CDDFDF7A9F941EC100BBD4208D053EC53
:103090001B2B51EC100BFDF79FF9C4E900010BE06D
:1030A00053EC192B51EC100BFDF796F953EC182B40
:1030B000FDF792F9C4E900010120C8E7FDF7EBF83C
:1030C00041EC100BBD4208D053EC1B2B51EC100B04
:1030D000FDF7E1F8C4E900010BE053EC192B51ECCA
:1030E000100BFDF7D8F853EC182BFDF7D4F8C4E912
:1030F00000014FF0FF30AAE7C348A84279DB9DEDFD
:10310000120B51EC100B01F0B9F841EC180B9FEDCC
:10311000C00B53EC102BFDF765F99FEDBF1B53EC73
:10312000112BFDF7B8F8FDF7EBFB0746FDF7CAFBDF
:1031300041EC190B53EC1A2BFDF754F953EC182BF7
:10314000FDF74DF941EC180B53EC1B2B51EC190B0F
:10315000FDF748F9DFF8C8A241EC100B4FEA15580B
:103160000125FA4453EC102B51EC180BFDF734F900
:10317000032DC4E900013DD0C1F30A5005EB451110
:10318000A8EB00001139814234DA0AEB051BB0EEDE
:1031900048AA9BED000BF0EE68AA53EC102B51EC03
:1031A000190BFDF71FF941EC1B0B51EC1A0B53ECFB
:1031B0001B2BFDF711F941EC180B51EC1A0B53ECDA
:1031C000182BFDF709F953EC1B2BFDF705F99BEDC7
:1031D000020B41EC1A0B53EC102B51EC190BFDF7C1
:1031E00001F953EC1A2BFDF7F7F841EC100B6D1CAD
:1031F000B8E70EE0002EA8BF3846BFF628AF94ED22
:10320000000B51EC100B81F00041C4E90001784241
:103210001DE7C6F3130040F4801EC6F30A50A0F267
:10322000F530471100F01F05C5F12000DDF848B06A
:1032300008900020069007900520EC467949002D63
:1032400007EB0002794408BF51F8221009D051F869
:10325000223001EB8201AB404A68089922FA01F161
:103260001943A1FB0E26A1FB0B131A449A4234BF4B
:103270000123002303EB06080CEB8003D3E901A62E
:103280000E448E4234BF0121002192448A4411B180
:10329000924502D903E0924501D2012100E00021CC
:1032A000C3E901A641444CF82010011EA0F1010021
:1032B000C4DC029800F10050850F0298DDE9036735
:1032C0008000DDF81480FDF7FDFA41EC1A0B304662
:1032D000FDF709FB9FED541B53EC112BFDF782F812
:1032E00041EC1B0B3846FDF7FEFA9FED511B53ECEA
:1032F000112BFDF777F841EC180B4046FDF7F3FA78
:103300009FED4D1B53EC112BFDF76CF841EC190BA5
:1033100051EC180B53EC192BFCF7BDFF53EC1B2B96
:10332000FCF7B9FF53EC1A2BFCF7B5FFCDE9080108
:10333000002008909DED080B53EC1A2B51EC100B5C
:10334000FDF74AF853EC1B2BFDF746F853EC182B0E
:10335000FDF742F853EC192BFDF741F89FED381BB0
:1033600053EC112BFDF73EF89FED370B41EC180B9A
:1033700053EC102B9DED080B51EC100BFDF732F8C0
:1033800053EC182BFCF787FF9FED310B41EC180B2A
:1033900053EC102B9DED080B51EC100BFDF722F8B0
:1033A00053EC182BFCF777FF41EC100B139810F03F
:1033B000004F06D06D4251EC100B81F0004141EC02
:1033C000100B284684ED000B41E6000000000000D1
:1033D0000000000000000000FB21E93F7CD9024012
:1033E00000004054FB21F93F3163621A61B4D03DC3
:1033F000FB21F93F000000000000601A61B4D03DDD
:103400007370032E8A19A33BFB2139410000000091
:1034100083C8C96D305FE43F000000000000E03F5A
:10342000DA14000028140000000000000000103E24
:10343000000000000000103C000000000000103AF6
:10344000182D4454FB21F93D3326A611460B113C9F
:1034500000000054FB21F93D10B52DED040B2DEDBE
:10346000088B82B0B0EE419AF0EE619A0B9820F092
:1034700000449FED4BABB4F1795F11DA9DED0A0B7F
:1034800051EC100BFDF73CFA002801BFB0EE4A0AE0
:10349000F0EE6A0A02B0BDEC088B04BF04B010BDA8
:1034A0009DED0A0B53EC102B51EC100BFCF79AFF1F
:1034B00041EC180B3C480621B0EE480AF0EE680AD1
:1034C000784400F081F853EC182B51EC100BFCF70A
:1034D00089FF9DED0A0B41EC1B0B53EC192B51ECB2
:1034E000100BFCF77FFF41EC190B53EC1B2B51EC3D
:1034F000180BFCF777FF53EC192BFCF76DFF9FEDD2
:103500002C0B41EC190B53EC102B51EC180BFCF766
:1035100069FF41EC100B2848844210DA53EC192B58
:1035200051EC100BFCF758FF53EC1A2BFCF757FF2C
:1035300041EC100B02B0BDEC088B04B010BD1F486D
:10354000A042BCBF9FED1E1B8DED001B06DBA4F54A
:1035500000100190002000909DED001B51EC100B1D
:1035600053EC112BFCF738FF9DED000B41EC180BD1
:1035700053EC102B51EC1A0BFCF72EFF41EC1A0BFD
:1035800053EC192B51EC180BFCF726FF53EC1A2BBC
:10359000FCF725FF41EC100BCCE700000000000019
:1035A000000000000000F03F4C110000000000008F
:1035B000000000000000E03F3333D33F0000E93F4C
:1035C000000000000000D23F70B504462DED028BD4
:1035D0004D1E00EBC500B0EE408AF0EE608A90ED23
:1035E000000B35F0060017D053EC182B51EC100BE4
:1035F000FCF7F8FE41EC100B6D1E04EBC50090EDDE
:10360000001B51EC100B53EC112BFCF744FE41EC6A
:10361000100B35F00600E7D1022D36D0042D1CD05A
:10362000062D1CBFBDEC028B70BD53EC182B51EC6A
:10363000100BFCF7D7FE94ED0A1B53EC112BFCF793
:103640002AFE53EC182BFCF7CDFE94ED081B53EC2F
:10365000112BFCF720FE41EC100B53EC182B51EC16
:10366000100BFCF7BFFE94ED061B53EC112BFCF77F
:1036700012FE53EC182BFCF7B5FE94ED040B53EC43
:10368000102BFCF708FE41EC100B53EC182B51ECFF
:10369000100BFCF7A7FE94ED021B53EC112BFCF76B
:1036A000FAFD53EC182BFCF79DFE94ED001B53EC38
:1036B000112BFCF7F0FDBDEC028B41EC100B70BD43
:1036C00031B504462DED040B2DED0A8BB0EE41BA59
:1036D000F0EE61BA0B989DED0A0B20F00040B0F1BE
:1036E000795F0DDA51EC100BFFF726FB042808BFB9
:1036F00000F09AF89DED0A0BBDEC0A8B05B030BDC9
:1037000053EC102B51EC100BFCF76CFE41EC180B3A
:103710009DED0A0B53EC182B51EC100BFCF762FEDD
:1037200041EC190B2C48B0EE480AF0EE680A05216E
:103730007844FFF749FF9FED2ACBB0EE40AAF0EEA8
:1037400060AA9CB353EC1C2B51EC190BFCF74AFEFE
:1037500041EC1C0B53EC1A2B51EC190BFCF742FEFD
:103760009FED210B41EC190B53EC102B51EC1B0B73
:10377000FCF738FE53EC192BFCF72EFE53EC182BFC
:10378000FCF730FE53EC1B2BFCF726FE53EC1C2BF6
:10379000FCF722FE9DED0A1B53EC112BFCF71FFEDC
:1037A000BDEC0A8B05B041EC100B30BDFFE753ECCC
:1037B0001A2B51EC180BFCF715FE53EC1C2BFCF7E5
:1037C0006AFD53EC192BFCF70DFE9DED0A1B53EC23
:1037D000112BFCF760FDE3E7D40F000000000000B0
:1037E000495555555555C5BF000000000000E03F44
:1037F00010B553EC102B51EC100BFCF74CFD41ECC9
:10380000100B10BD000000009FED050B10B553EC30
:10381000102B51EC100BFCF761FF41EC100B10BDAD
:1038200000000000000000009FED050B10B553ECF8
:10383000102B51EC100BFCF7D5FD41EC100B10BD1B
:10384000000000000000001002E008C8121F08C1BC
:10385000002AFAD170477047002001E001C1121F11
:10386000002AFBD170470000014908607047000042
:103870002C0000202DE9FF5F82B00021DDE904303B
:10388000020DDDF840B0034318D044F61050A2F208
:10389000FF3242431514119801281FD0A5EB0B00ED
:1038A000401C5FEA000A4FF000064E4FDFF83891E7
:1038B000B046504615D5CAF1000413E01198012412
:1038C0004AA3012801D16FEA0B010298119AC0E9BD
:1038D0000031C0E9024206B0BDE8F09FCBF1000024
:1038E000DFE704460021404A491842EB0450CDE985
:1038F000001012E0E00707D032463B4640464946FA
:10390000FCF770FD8046894632463B461046194614
:10391000FCF768FD06460F466410002CEAD1DDE98D
:103920000401DDE90023BAF1000F06DAFCF75AFDC5
:1039300042464B46FCF756FD05E0FCF7CFFE4246FB
:103940004B46FCF7CBFE04460E460022284BFCF704
:103950008FFF03D84FF0FF30014607E00022254BD0
:1039600020463146FCF797FCFCF76AFF102409E07B
:10397000002C0ADB0A220023FCF74AFC039B3032AE
:103980001A55641E50EA0102F2D1641C039AC4F174
:1039900011031444119A012A03D0012208430DD1C6
:1039A0000AE0084304D000204FF0110B119072E799
:1039B000A3EB0B056D1E0DE05B4504DD4FF000022F
:1039C00005F1010504E003DA4FF00002A5F101055D
:1039D000002AECD002981199C0E90231C0E90045F3
:1039E00079E70000000014400000F03F30000000C4
:1039F0000000F0430000E03F2DE9FF4F95B09B46EB
:103A00008946064600250FE2252877D1002427465F
:103A1000F84A0121059400E0044316F8013F203BD9
:103A200001FA03F01042F7D130782A2811D06FF054
:103A30002F033078A0F13002092A16D8059A44F0F5
:103A4000020402EB820203EB42021044761C059052
:103A5000EFE759F8042B0592002A03DA504244F4A8
:103A60000054059044F00204761C30782E2816D1BC
:103A700016F8010F44F004042A280DD06FF02F022D
:103A80003078A0F13003092B09D807EB870302EB4C
:103A90004303C718761CF3E759F8047B761C30788B
:103AA0006C280FD006DC4C2817D068280DD06A2867
:103AB00014D104E0742810D07A280FD10DE044F41A
:103AC00000140AE044F4801401E044F440147278D5
:103AD000824202D104F58014761C761C3078662868
:103AE0000BD013DC582877D009DC002875D0452886
:103AF000F6D04628F4D047281AD19DE118E0632873
:103B000035D0642879D0652812D195E1702873D01A
:103B100008DC6728F1D069286FD06E280DD06F2897
:103B200006D1B5E073282CD0752875D0782874D0CC
:103B30005A46179990476D1C75E1C4F3025002284C
:103B400009D003280DD0D9F8001004280DD00D603D
:103B500009F1040967E1D9F80010EA17C1E9005238
:103B6000F6E7D9F800100D80F2E70D70F0E719F8CC
:103B7000041B8DF8001000208DF80100EA4601209A
:103B800003E059F804AB4FF0FF3061074FF000013C
:103B900002D40DE008F101018846B9420FDA8045F0
:103BA000F8DB1AF808100029F4D108E008F1010147
:103BB00088468142FADB1AF808100029F6D10598E8
:103BC0005B46A0EB080721463846179A00F094FAA6
:103BD000284400EB080507E04DE029E10DE01AF864
:103BE000010B5A4617999047B8F10108F7D25B4686
:103BF00021463846179A13E142E00A220092C4F3A4
:103C000002524FF0000A022A08D059F804CB032AC6
:103C10004FEAEC710AD00DE029E02AE009F1070132
:103C200021F00702F2E802C1914609E00FFA8CFC8C
:103C30004FEAEC71042A03D14FFA8CFC4FEAEC7185
:103C4000002907DA0A460021DCF1000C61EB0201D1
:103C50002D2202E0220504D52B228DF8042001221A
:103C600003E0E20701D02022F7E7904659E00A215D
:103C700002E010220DE010214FF0000A00910BE04D
:103C800010224FF0000A44F004040827009203E0D9
:103C900008224FF0000A0092C4F30252022A05D013
:103CA00059F804CB0021032A08D009E009F10701E3
:103CB00021F00702F2E802C1914605E01FFA8CFCF0
:103CC000042A01D10CF0FF0C4FF00008220728D580
:103CD000702806D0009B83F0100353EA0A0305D036
:103CE0000EE040228DF80420012208E05CEA010287
:103CF00006D030228DF804208DF80500022290466F
:103D0000009B83F0080353EA0A030AD15CEA01022C
:103D100001D1620705D530228DF804204FF001084B
:103D20007F1E582804D034A003900EA802900DE006
:103D300036A0F9E753466046009AFCF769FA8446D4
:103D40000398825C0298401E029002705CEA0100B7
:103D5000F0D1029806A9081A00F1200A600702D5DE
:103D600024F4803400E00127574502DDA7EB0A0068
:103D700000E0002000EB0A01009005984144401A41
:103D80000590E00306D45B462146179A059800F09B
:103D9000B3F90544002706E001A85A46C05D17990B
:103DA00090476D1C7F1C4745F6DBE0030CD55B4656
:103DB0002146179A059800F09FF9054404E0302049
:103DC0005A46179990476D1C0099481E009000298B
:103DD000F5DC08E0029802995A460078491C0291E5
:103DE000179990476D1CBAF10001AAF1010AF1DCA4
:103DF00065E10000092801003031323334353637AF
:103E00003839616263646566000000003031323326
:103E100034353637383941424344454600000000C6
:103E200000F058F90544761C307800287FF4ECAD9A
:103E300019B02846BDE8F08F620700D4062709F1C3
:103E4000070222F0070CFCE80223E14603F00048D9
:103E50005FEA080C02D00FF2702C0DE05FEA045C00
:103E600002D50FF2682C07E05FEAC47C02D00FF2A3
:103E7000602C01E0AFF2700C4FF0FF3823F00043EC
:103E8000CDF850C065280CD006DC452809D046285E
:103E90001DD047283DD13DE0662818D067287ED147
:103EA00038E00021112F01DB112000E0781CCDE962
:103EB000000106A90EA8FFF7DDFCDDE90F010E9A4F
:103EC00003910021009207F1010A04914DE04FF0A7
:103ED00000400097CDE9011006A90EA8FFF7CAFC23
:103EE000DDE90F0203920E9B11990022DDF80CA070
:103EF0000093049211B9791C00EB010AB7EB0A0098
:103F000004D4C0F1FF3007F1010A0490AAEB0700C6
:103F1000019044E0012F00DA01270021112F01DD7B
:103F2000112000E03846CDE9000106A90EA8FFF7F0
:103F3000A1FCDDE90F010E9A03910021049100928A
:103F4000BA4621070CD40399514500DA8A46BAF1E2
:103F5000010F05DD009AAAF10101515C302908D05A
:103F6000B84202DA10F1040F06DA0121CDE901109E
:103F700015E0AAF10101E9E7002805DC04990144F4
:103F80000491AAEB000102E0411C514500DD8A4684
:103F90000499401A401C01904FF000400290200705
:103FA00004D40198504501DBCDF8048000208DF841
:103FB0004F0002980DF14F07B0F1004F25D02B2094
:103FC0000E9002984FF0020800280CDA404202904E
:103FD0002D200E9007E00A210298FCF7A4FA303158
:103FE000029007F8011DB8F10001A8F10108F2DC08
:103FF00002980028EFD1791E0E980870307800F0F2
:10400000200040F0450007F8020D12A8C01B00F187
:1040100007081498007800B1012000EB0A0101980C
:1040200001EBE07105984144401A401E0590E00301
:1040300006D45B462146179A059800F05DF80544C2
:104040001498007818B15A46179990476D1CE003F0
:1040500024D55B462146179A059800F04DF8054493
:104060001CE00498002807DBDDE90301884203DD3A
:104070000098405C179901E0179930205A46904704
:10408000049805F10105401C04900198401E019020
:1040900004D12E205A46179990476D1CBAF10001A1
:1040A000AAF1010ADDDC05E017F8010B5A46179961
:1040B00090476D1CB8F10001A8F10108F4DC5B46E3
:1040C0002146179A0598ABE62D0000002B00000052
:1040D000200000002DE9F041044600251E46174649
:1040E000880404D405E039462020B0476D1C641EC6
:1040F000F9D52846BDE8F0812DE9F04104460025B8
:104100001E469046C80301D5302700E020278804CA
:1041100004D505E041463846B0476D1C641EF9D50C
:104120002846BDE8F081000010B52DED088BB0EEFB
:10413000418AB0EE409AF0EE608AB0EE480A00F094
:104140000DF918EE100AFCF7BFF941EC100BFEF761
:1041500003FFB0EE40AAF0EE60AA19EE100AFCF7D9
:10416000B3F953EC1A2BFCF73DF941EC1A0B18EE9E
:10417000100AFCF7A9F941EC100BFEF705FEB0EEB2
:1041800040BAF0EE60BA18EE900AFCF79DF953ECD5
:104190001B2BFCF727F953EC1A2BFCF71DF9FCF746
:1041A000A6F9304C206018EE100AFCF78DF941ECAE
:1041B000100BFEF7E9FDB0EE40AAF0EE60AA19EE92
:1041C000100AFCF781F953EC1A2BFCF70BF941ECC0
:1041D000190B18EE100AFCF777F941EC100BFEF7FB
:1041E000BBFEB0EE40AAF0EE60AA18EE900AFCF713
:1041F0006BF953EC1A2BFCF7F5F853EC192BFCF781
:104200004AF8FCF774F900EE900AC4ED010A94ED47
:10421000000A00F0D5F814489FED140AD0ED000A0A
:10422000134860EE800A0268FCEEE00A10EE901A75
:10423000516310490268D1ED000A60EE800AFCEE7D
:10424000E00A10EE901A91630B490068D1ED000A64
:1042500020EE800ABCEEC00A10EE101AC163BDEC5D
:10426000088B10BD100000200C00002000007A43D5
:1042700030000020080000200400002082B0CDE9BA
:10428000000121F0004001909DED000B02B051ECC7
:10429000100B704713B54FF6FF73012269460248B1
:1042A000FDF720FF00981CBDC80000201FB5FCF7DB
:1042B0007DFCFEF755F8FDF76DFFFDF789FFFDF773
:1042C000F1FFFEF713F81D48FDF752FB00211C48D3
:1042D000FDF780FD04211A48FDF77CFD08211848F0
:1042E000FDF778FD00211648FDF796FA04211448E1
:1042F000FDF792FA08211248FDF78EFADFF84480A4
:10430000DFF84490DFF844A0D8F80000FCF7DCF8B0
:1043100006460F46D9F80000FCF7D6F804460D46CD
:10432000DAF80000FCF7D0F88DE8F00041EC100B53
:1043300007A053EC102BFEF7EFFCE5E77C00002014
:10434000300000200C0000200800002004000020A5
:1043500025662C25662C25660D0A000010B510EE8A
:10436000100A2DED028BFCF7AFF89FED138B41EC9B
:10437000100BB0EE481AF0EE681AFEF769FD51EC2A
:10438000100BFCF7B4F800EE100A10EE100AB5EEB0
:10439000C00AF1EE10FA02DBFCF796F805E0FCF734
:1043A00093F853EC182BFBF776FFFCF7A0F8BDEC65
:1043B000028B00EE100A10BD44174154FB21194036
:1043C0009FED801AB6EE003A20EE011A00EEC31AF5
:1043D000DFED7D1A60EE211A40EEC31AF5EEC01A29
:1043E000F1EE10FA01DD012000E00020B5EEC01A68
:1043F000F1EE10FA01DD012100E00021B0EE602AAB
:1044000000EB4101B5EEC02AF1EE10FA01DD01200A
:1044100000E0002001EB80016C484FF07E52F7EE87
:10442000002A05293AD09FED682AF6EE003AB0EE50
:10443000604A20EE022A14EE232A9FED624A0429E4
:1044400020EE040AB0EE604A14EE230A43D0062997
:1044500060D0F1EE600A02297BD0032978D00129CF
:1044600057D130EE201A11EE101A914205DDC2EE3E
:10447000811A21EE800A61EEA00A32EEC01A30EEF7
:10448000200A31EE601A21EE031A30EE010A80EDA7
:10449000000A80ED011A30EE810A55E031EEA00AE3
:1044A00010EE101A914205DD82EE801A61EE211A9B
:1044B00061EE200A32EEE10A31EEA01A30EE600A17
:1044C00020EE030A31EE001A70EE800A80ED001A29
:1044D000C0ED010A38E072EE000A10EE901A914227
:1044E00005DD82EEA01A21EE022A21EE000A72EE0C
:1044F000C20A70EEC00A60EE830A30EE201A32EE75
:10450000000A80ED001A30EE200A80ED010AC0EDAD
:10451000020A704730EE810A10EE101A914205DD52
:10452000C2EE801A61EEA00A21EE811A32EEE00A94
:1045300070EE810A30EE410A20EE030A70EE800A26
:1045400080EC020A31EE000A80ED020A704700E0BA
:104550001AE030EE820A10EE101A914205DD82EE6A
:10456000801A61EE200A21EE022A32EEE00A70EE95
:10457000820A30EE420A20EE030A80ED000A32EE93
:10458000001A80ED011A19E031EE210A10EE101A1E
:10459000914205DDC2EE800A20EE811A60EEA11A7A
:1045A00032EEC10A30EE610A20EE030A71EE800A93
:1045B000C0ED000A71EE210A80ED010A30EE800A9A
:1045C000C2E70000D7B35DBFD7B35D3F0400002052
:1045D000010002000400060008000A000C001000A0
:1045E00020004000800000010101010307010000DC
:1045F000080402040801010100000000000000009E
:104600000102030406070809000000000102030478
:104610004C5555555555A53F7751C1166CC156BFE0
:104620009015CB19A001FA3EAD529C804F7E92BEF0
:10463000C4B1B4BD9EEE213ED43888BEE9FAA8BD0F
:1046400000004054FB21F93F3163621A61B4D03D50
:104650000000601A61B4D03D7370032E8A19A33B29
:104660000000002E8A19A33BC14920259A837B397B
:1046700000000000000000006E83F9A22915444EDE
:10468000D15727FCC0DD34F5999562DB4190433C5E
:10469000AB6351FE61C5BBDE3A6E24B7E0D24D423A
:1046A000EA2E49061C92D1091CEB1DFE3EA729B13A
:1046B000F53582E88444BB2E26709CE9417E5FB4C8
:1046C00039D69139F43953838B5F849C3B28F9BDEB
:1046D000FF97F81F0F9805DE8B112FEF1F6D0A5AF9
:1046E000CF7E366DB709CB27663F464F2DEA5F9EDA
:1046F000C7BA27757BF1E5EBF739073DEA92528A95
:10470000B15FFB6B085D8D1FA6F810111111813F81
:10471000D561C119A0012ABF7DFEB157E31DC73E77
:10472000EB9C2B8AE6E55ABE7CD5CF5A3AD9E53DBB
:104730005047000800000020300000004838000802
:10474000804700083000002030050000583800087D
:104750000000000000000000000000000000000059
:104760000000000000000000100000000100000038
:10477000000000000024F400000000000000000021
:04000005080001D915
:00000001FF
